{
  "contractName": "MetaSave",
  "abi": [
    {
      "inputs": [],
      "stateMutability": "nonpayable",
      "type": "constructor"
    },
    {
      "inputs": [],
      "name": "AccessControlBadConfirmation",
      "type": "error"
    },
    {
      "inputs": [
        {
          "internalType": "address",
          "name": "account",
          "type": "address"
        },
        {
          "internalType": "bytes32",
          "name": "neededRole",
          "type": "bytes32"
        }
      ],
      "name": "AccessControlUnauthorizedAccount",
      "type": "error"
    },
    {
      "anonymous": false,
      "inputs": [
        {
          "indexed": true,
          "internalType": "bytes32",
          "name": "role",
          "type": "bytes32"
        },
        {
          "indexed": true,
          "internalType": "bytes32",
          "name": "previousAdminRole",
          "type": "bytes32"
        },
        {
          "indexed": true,
          "internalType": "bytes32",
          "name": "newAdminRole",
          "type": "bytes32"
        }
      ],
      "name": "RoleAdminChanged",
      "type": "event"
    },
    {
      "anonymous": false,
      "inputs": [
        {
          "indexed": true,
          "internalType": "bytes32",
          "name": "role",
          "type": "bytes32"
        },
        {
          "indexed": true,
          "internalType": "address",
          "name": "account",
          "type": "address"
        },
        {
          "indexed": true,
          "internalType": "address",
          "name": "sender",
          "type": "address"
        }
      ],
      "name": "RoleGranted",
      "type": "event"
    },
    {
      "anonymous": false,
      "inputs": [
        {
          "indexed": true,
          "internalType": "bytes32",
          "name": "role",
          "type": "bytes32"
        },
        {
          "indexed": true,
          "internalType": "address",
          "name": "account",
          "type": "address"
        },
        {
          "indexed": true,
          "internalType": "address",
          "name": "sender",
          "type": "address"
        }
      ],
      "name": "RoleRevoked",
      "type": "event"
    },
    {
      "inputs": [],
      "name": "DEFAULT_ADMIN_ROLE",
      "outputs": [
        {
          "internalType": "bytes32",
          "name": "",
          "type": "bytes32"
        }
      ],
      "stateMutability": "view",
      "type": "function",
      "constant": true
    },
    {
      "inputs": [],
      "name": "HOSPITAL_ROLE",
      "outputs": [
        {
          "internalType": "bytes32",
          "name": "",
          "type": "bytes32"
        }
      ],
      "stateMutability": "view",
      "type": "function",
      "constant": true
    },
    {
      "inputs": [],
      "name": "USER_ROLE",
      "outputs": [
        {
          "internalType": "bytes32",
          "name": "",
          "type": "bytes32"
        }
      ],
      "stateMutability": "view",
      "type": "function",
      "constant": true
    },
    {
      "inputs": [
        {
          "internalType": "bytes32",
          "name": "role",
          "type": "bytes32"
        }
      ],
      "name": "getRoleAdmin",
      "outputs": [
        {
          "internalType": "bytes32",
          "name": "",
          "type": "bytes32"
        }
      ],
      "stateMutability": "view",
      "type": "function",
      "constant": true
    },
    {
      "inputs": [
        {
          "internalType": "bytes32",
          "name": "role",
          "type": "bytes32"
        },
        {
          "internalType": "address",
          "name": "account",
          "type": "address"
        }
      ],
      "name": "grantRole",
      "outputs": [],
      "stateMutability": "nonpayable",
      "type": "function"
    },
    {
      "inputs": [
        {
          "internalType": "bytes32",
          "name": "role",
          "type": "bytes32"
        },
        {
          "internalType": "address",
          "name": "account",
          "type": "address"
        }
      ],
      "name": "hasRole",
      "outputs": [
        {
          "internalType": "bool",
          "name": "",
          "type": "bool"
        }
      ],
      "stateMutability": "view",
      "type": "function",
      "constant": true
    },
    {
      "inputs": [
        {
          "internalType": "bytes32",
          "name": "role",
          "type": "bytes32"
        },
        {
          "internalType": "address",
          "name": "callerConfirmation",
          "type": "address"
        }
      ],
      "name": "renounceRole",
      "outputs": [],
      "stateMutability": "nonpayable",
      "type": "function"
    },
    {
      "inputs": [
        {
          "internalType": "bytes32",
          "name": "role",
          "type": "bytes32"
        },
        {
          "internalType": "address",
          "name": "account",
          "type": "address"
        }
      ],
      "name": "revokeRole",
      "outputs": [],
      "stateMutability": "nonpayable",
      "type": "function"
    },
    {
      "inputs": [
        {
          "internalType": "bytes4",
          "name": "interfaceId",
          "type": "bytes4"
        }
      ],
      "name": "supportsInterface",
      "outputs": [
        {
          "internalType": "bool",
          "name": "",
          "type": "bool"
        }
      ],
      "stateMutability": "view",
      "type": "function",
      "constant": true
    },
    {
      "inputs": [
        {
          "internalType": "address",
          "name": "account",
          "type": "address"
        }
      ],
      "name": "grantUserRole",
      "outputs": [
        {
          "internalType": "bool",
          "name": "",
          "type": "bool"
        }
      ],
      "stateMutability": "nonpayable",
      "type": "function"
    },
    {
      "inputs": [
        {
          "internalType": "address",
          "name": "account",
          "type": "address"
        }
      ],
      "name": "grantHospitalRole",
      "outputs": [
        {
          "internalType": "bool",
          "name": "",
          "type": "bool"
        }
      ],
      "stateMutability": "nonpayable",
      "type": "function"
    },
    {
      "inputs": [
        {
          "internalType": "address",
          "name": "user_addr",
          "type": "address"
        },
        {
          "internalType": "address",
          "name": "device_addr",
          "type": "address"
        }
      ],
      "name": "addDevice",
      "outputs": [],
      "stateMutability": "nonpayable",
      "type": "function"
    },
    {
      "inputs": [
        {
          "internalType": "address",
          "name": "user_addr",
          "type": "address"
        }
      ],
      "name": "getDevices",
      "outputs": [
        {
          "internalType": "address[]",
          "name": "",
          "type": "address[]"
        }
      ],
      "stateMutability": "view",
      "type": "function",
      "constant": true
    },
    {
      "inputs": [
        {
          "internalType": "address",
          "name": "owner",
          "type": "address"
        },
        {
          "internalType": "address",
          "name": "_device",
          "type": "address"
        }
      ],
      "name": "removeDevice",
      "outputs": [
        {
          "internalType": "bool",
          "name": "",
          "type": "bool"
        }
      ],
      "stateMutability": "nonpayable",
      "type": "function"
    },
    {
      "inputs": [
        {
          "internalType": "address",
          "name": "user_addr",
          "type": "address"
        },
        {
          "internalType": "address",
          "name": "hospital_addr",
          "type": "address"
        }
      ],
      "name": "userSelectHospital",
      "outputs": [],
      "stateMutability": "nonpayable",
      "type": "function"
    },
    {
      "inputs": [
        {
          "internalType": "address",
          "name": "user_addr",
          "type": "address"
        }
      ],
      "name": "getUserHospitals",
      "outputs": [
        {
          "internalType": "address[]",
          "name": "",
          "type": "address[]"
        }
      ],
      "stateMutability": "view",
      "type": "function",
      "constant": true
    },
    {
      "inputs": [
        {
          "internalType": "address",
          "name": "hospital_addr",
          "type": "address"
        }
      ],
      "name": "getHospitalUsers",
      "outputs": [
        {
          "internalType": "address[]",
          "name": "",
          "type": "address[]"
        }
      ],
      "stateMutability": "view",
      "type": "function",
      "constant": true
    },
    {
      "inputs": [
        {
          "internalType": "address",
          "name": "user_addr",
          "type": "address"
        },
        {
          "internalType": "string",
          "name": "ipfsFileName",
          "type": "string"
        }
      ],
      "name": "setIPFSFileName",
      "outputs": [],
      "stateMutability": "nonpayable",
      "type": "function"
    },
    {
      "inputs": [
        {
          "internalType": "address",
          "name": "user_addr",
          "type": "address"
        }
      ],
      "name": "getIPFSFileName",
      "outputs": [
        {
          "internalType": "string",
          "name": "",
          "type": "string"
        }
      ],
      "stateMutability": "view",
      "type": "function",
      "constant": true
    },
    {
      "inputs": [
        {
          "internalType": "address",
          "name": "user_addr",
          "type": "address"
        },
        {
          "internalType": "string",
          "name": "imgIPFSid",
          "type": "string"
        },
        {
          "internalType": "string",
          "name": "dataIPFSid",
          "type": "string"
        }
      ],
      "name": "setFallData",
      "outputs": [],
      "stateMutability": "nonpayable",
      "type": "function"
    },
    {
      "inputs": [
        {
          "internalType": "address",
          "name": "user_addr",
          "type": "address"
        }
      ],
      "name": "getFallData",
      "outputs": [
        {
          "components": [
            {
              "internalType": "string",
              "name": "imgIPFSid",
              "type": "string"
            },
            {
              "internalType": "string",
              "name": "dataIPFSid",
              "type": "string"
            }
          ],
          "internalType": "struct MetaSave.FallData[]",
          "name": "",
          "type": "tuple[]"
        }
      ],
      "stateMutability": "view",
      "type": "function",
      "constant": true
    }
  ],
  "bytecode": "0x608060405273ce927753f89b4482cbd56affee3bf2931418e47160015f6101000a81548173ffffffffffffffffffffffffffffffffffffffff021916908373ffffffffffffffffffffffffffffffffffffffff16021790555034801562000064575f80fd5b506200009a5f801b60015f9054906101000a900473ffffffffffffffffffffffffffffffffffffffff16620000a160201b60201c565b5062000206565b5f620000b483836200019c60201b60201c565b620001925760015f808581526020019081526020015f205f015f8473ffffffffffffffffffffffffffffffffffffffff1673ffffffffffffffffffffffffffffffffffffffff1681526020019081526020015f205f6101000a81548160ff0219169083151502179055506200012e620001ff60201b60201c565b73ffffffffffffffffffffffffffffffffffffffff168273ffffffffffffffffffffffffffffffffffffffff16847f2f8788117e7eff1d82e926ec794901d17c78024a50270940304540a733656f0d60405160405180910390a46001905062000196565b5f90505b92915050565b5f805f8481526020019081526020015f205f015f8373ffffffffffffffffffffffffffffffffffffffff1673ffffffffffffffffffffffffffffffffffffffff1681526020019081526020015f205f9054906101000a900460ff16905092915050565b5f33905090565b61248c80620002145f395ff3fe608060405234801561000f575f80fd5b5060043610610135575f3560e01c806368660e3c116100b657806389537a571161007a57806389537a571461039357806391d14854146103c3578063a217fddf146103f3578063aca3583814610411578063d547741f1461042d578063f6ba66781461044957610135565b806368660e3c146102cb578063689dbee5146102fb57806372508ca1146103175780637ee756f214610347578063813799131461037757610135565b806336568abe116100fd57806336568abe14610203578063417b26e01461021f5780634c5fa8b81461024f5780634f718ea11461026b5780635792e33a1461029b57610135565b806301ffc9a7146101395780631311916114610169578063248a9ca3146101875780632ae929a9146101b75780632f2ff15d146101e7575b5f80fd5b610153600480360381019061014e9190611817565b610467565b604051610160919061185c565b60405180910390f35b6101716104e0565b60405161017e919061188d565b60405180910390f35b6101a1600480360381019061019c91906118d0565b610504565b6040516101ae919061188d565b60405180910390f35b6101d160048036038101906101cc9190611955565b610520565b6040516101de9190611a37565b60405180910390f35b61020160048036038101906101fc9190611a57565b61061a565b005b61021d60048036038101906102189190611a57565b61063c565b005b61023960048036038101906102349190611955565b6106b7565b6040516102469190611a37565b60405180910390f35b61026960048036038101906102649190611bd1565b6107e8565b005b61028560048036038101906102809190611955565b6108c8565b6040516102929190611cd3565b60405180910390f35b6102b560048036038101906102b09190611cf3565b610a0f565b6040516102c2919061185c565b60405180910390f35b6102e560048036038101906102e09190611955565b610d2a565b6040516102f2919061185c565b60405180910390f35b61031560048036038101906103109190611cf3565b610d6b565b005b610331600480360381019061032c9190611955565b610f0e565b60405161033e9190611e75565b60405180910390f35b610361600480360381019061035c9190611955565b611143565b60405161036e919061185c565b60405180910390f35b610391600480360381019061038c9190611cf3565b611184565b005b6103ad60048036038101906103a89190611955565b61128c565b6040516103ba9190611a37565b60405180910390f35b6103dd60048036038101906103d89190611a57565b611386565b6040516103ea919061185c565b60405180910390f35b6103fb6113e9565b604051610408919061188d565b60405180910390f35b61042b60048036038101906104269190611e95565b6113ef565b005b61044760048036038101906104429190611a57565b611470565b005b610451611492565b60405161045e919061188d565b60405180910390f35b5f7f7965db0b000000000000000000000000000000000000000000000000000000007bffffffffffffffffffffffffffffffffffffffffffffffffffffffff1916827bffffffffffffffffffffffffffffffffffffffffffffffffffffffff191614806104d957506104d8826114b6565b5b9050919050565b7f14823911f2da1b49f045a0929a60b8c1f2a7fc8c06c7284ca3e8ab4e193a08c881565b5f805f8381526020019081526020015f20600101549050919050565b606061054c7fc8f5b4140cca307cd927e59cbeea8291bffeee228fc677f0fa059aef7b4dd8d583611386565b610554575f80fd5b60055f8373ffffffffffffffffffffffffffffffffffffffff1673ffffffffffffffffffffffffffffffffffffffff1681526020019081526020015f2080548060200260200160405190810160405280929190818152602001828054801561060e57602002820191905f5260205f20905b815f9054906101000a900473ffffffffffffffffffffffffffffffffffffffff1673ffffffffffffffffffffffffffffffffffffffff16815260200190600101908083116105c5575b50505050509050919050565b61062382610504565b61062c8161151f565b6106368383611533565b50505050565b61064461161c565b73ffffffffffffffffffffffffffffffffffffffff168173ffffffffffffffffffffffffffffffffffffffff16146106a8576040517f6697b23200000000000000000000000000000000000000000000000000000000815260040160405180910390fd5b6106b28282611623565b505050565b60606106e37f14823911f2da1b49f045a0929a60b8c1f2a7fc8c06c7284ca3e8ab4e193a08c883611386565b610722576040517f08c379a000000000000000000000000000000000000000000000000000000000815260040161071990611f39565b60405180910390fd5b60065f8373ffffffffffffffffffffffffffffffffffffffff1673ffffffffffffffffffffffffffffffffffffffff1681526020019081526020015f208054806020026020016040519081016040528092919081815260200182805480156107dc57602002820191905f5260205f20905b815f9054906101000a900473ffffffffffffffffffffffffffffffffffffffff1673ffffffffffffffffffffffffffffffffffffffff1681526020019060010190808311610793575b50505050509050919050565b6108127f14823911f2da1b49f045a0929a60b8c1f2a7fc8c06c7284ca3e8ab4e193a08c884611386565b61081a575f80fd5b5f604051806040016040528084815260200183815250905060035f8573ffffffffffffffffffffffffffffffffffffffff1673ffffffffffffffffffffffffffffffffffffffff1681526020019081526020015f2081908060018154018082558091505060019003905f5260205f2090600202015f909190919091505f820151815f0190816108a9919061215a565b5060208201518160010190816108bf919061215a565b50505050505050565b60606108f47f14823911f2da1b49f045a0929a60b8c1f2a7fc8c06c7284ca3e8ab4e193a08c883611386565b6108fc575f80fd5b6109058261170c565b610944576040517f08c379a000000000000000000000000000000000000000000000000000000000815260040161093b90612273565b60405180910390fd5b60025f8373ffffffffffffffffffffffffffffffffffffffff1673ffffffffffffffffffffffffffffffffffffffff1681526020019081526020015f20805461098c90611f84565b80601f01602080910402602001604051908101604052809291908181526020018280546109b890611f84565b8015610a035780601f106109da57610100808354040283529160200191610a03565b820191905f5260205f20905b8154815290600101906020018083116109e657829003601f168201915b50505050509050919050565b5f610a3a7f14823911f2da1b49f045a0929a60b8c1f2a7fc8c06c7284ca3e8ab4e193a08c884611386565b610a79576040517f08c379a0000000000000000000000000000000000000000000000000000000008152600401610a7090611f39565b60405180910390fd5b5f60065f8573ffffffffffffffffffffffffffffffffffffffff1673ffffffffffffffffffffffffffffffffffffffff1681526020019081526020015f208054905090505f5b81811015610d1e578373ffffffffffffffffffffffffffffffffffffffff1660065f8773ffffffffffffffffffffffffffffffffffffffff1673ffffffffffffffffffffffffffffffffffffffff1681526020019081526020015f208281548110610b2d57610b2c612291565b5b905f5260205f20015f9054906101000a900473ffffffffffffffffffffffffffffffffffffffff1673ffffffffffffffffffffffffffffffffffffffff1603610d0b5760065f8673ffffffffffffffffffffffffffffffffffffffff1673ffffffffffffffffffffffffffffffffffffffff1681526020019081526020015f20600183610bba91906122eb565b81548110610bcb57610bca612291565b5b905f5260205f20015f9054906101000a900473ffffffffffffffffffffffffffffffffffffffff1660065f8773ffffffffffffffffffffffffffffffffffffffff1673ffffffffffffffffffffffffffffffffffffffff1681526020019081526020015f208281548110610c4257610c41612291565b5b905f5260205f20015f6101000a81548173ffffffffffffffffffffffffffffffffffffffff021916908373ffffffffffffffffffffffffffffffffffffffff16021790555060065f8673ffffffffffffffffffffffffffffffffffffffff1673ffffffffffffffffffffffffffffffffffffffff1681526020019081526020015f20805480610cd457610cd361231e565b5b600190038181905f5260205f20015f6101000a81549073ffffffffffffffffffffffffffffffffffffffff02191690559055610d1e565b8080610d169061234b565b915050610abf565b50600191505092915050565b5f805f1b610d378161151f565b610d617f14823911f2da1b49f045a0929a60b8c1f2a7fc8c06c7284ca3e8ab4e193a08c88461061a565b6001915050919050565b610d957f14823911f2da1b49f045a0929a60b8c1f2a7fc8c06c7284ca3e8ab4e193a08c883611386565b610dd4576040517f08c379a0000000000000000000000000000000000000000000000000000000008152600401610dcb90611f39565b60405180910390fd5b60045f8373ffffffffffffffffffffffffffffffffffffffff1673ffffffffffffffffffffffffffffffffffffffff1681526020019081526020015f2081908060018154018082558091505060019003905f5260205f20015f9091909190916101000a81548173ffffffffffffffffffffffffffffffffffffffff021916908373ffffffffffffffffffffffffffffffffffffffff16021790555060055f8273ffffffffffffffffffffffffffffffffffffffff1673ffffffffffffffffffffffffffffffffffffffff1681526020019081526020015f2082908060018154018082558091505060019003905f5260205f20015f9091909190916101000a81548173ffffffffffffffffffffffffffffffffffffffff021916908373ffffffffffffffffffffffffffffffffffffffff1602179055505050565b6060610f3a7f14823911f2da1b49f045a0929a60b8c1f2a7fc8c06c7284ca3e8ab4e193a08c883611386565b610f42575f80fd5b5f60035f8473ffffffffffffffffffffffffffffffffffffffff1673ffffffffffffffffffffffffffffffffffffffff1681526020019081526020015f2090505f818054905011610fc8576040517f08c379a0000000000000000000000000000000000000000000000000000000008152600401610fbf90612402565b60405180910390fd5b80805480602002602001604051908101604052809291908181526020015f905b82821015611137578382905f5260205f2090600202016040518060400160405290815f8201805461101890611f84565b80601f016020809104026020016040519081016040528092919081815260200182805461104490611f84565b801561108f5780601f106110665761010080835404028352916020019161108f565b820191905f5260205f20905b81548152906001019060200180831161107257829003601f168201915b505050505081526020016001820180546110a890611f84565b80601f01602080910402602001604051908101604052809291908181526020018280546110d490611f84565b801561111f5780601f106110f65761010080835404028352916020019161111f565b820191905f5260205f20905b81548152906001019060200180831161110257829003601f168201915b50505050508152505081526020019060010190610fe8565b50505050915050919050565b5f805f1b6111508161151f565b61117a7fc8f5b4140cca307cd927e59cbeea8291bffeee228fc677f0fa059aef7b4dd8d58461061a565b6001915050919050565b6111ae7f14823911f2da1b49f045a0929a60b8c1f2a7fc8c06c7284ca3e8ab4e193a08c883611386565b6111ed576040517f08c379a00000000000000000000000000000000000000000000000000000000081526004016111e490611f39565b60405180910390fd5b60065f8373ffffffffffffffffffffffffffffffffffffffff1673ffffffffffffffffffffffffffffffffffffffff1681526020019081526020015f2081908060018154018082558091505060019003905f5260205f20015f9091909190916101000a81548173ffffffffffffffffffffffffffffffffffffffff021916908373ffffffffffffffffffffffffffffffffffffffff1602179055505050565b60606112b87f14823911f2da1b49f045a0929a60b8c1f2a7fc8c06c7284ca3e8ab4e193a08c883611386565b6112c0575f80fd5b60045f8373ffffffffffffffffffffffffffffffffffffffff1673ffffffffffffffffffffffffffffffffffffffff1681526020019081526020015f2080548060200260200160405190810160405280929190818152602001828054801561137a57602002820191905f5260205f20905b815f9054906101000a900473ffffffffffffffffffffffffffffffffffffffff1673ffffffffffffffffffffffffffffffffffffffff1681526020019060010190808311611331575b50505050509050919050565b5f805f8481526020019081526020015f205f015f8373ffffffffffffffffffffffffffffffffffffffff1673ffffffffffffffffffffffffffffffffffffffff1681526020019081526020015f205f9054906101000a900460ff16905092915050565b5f801b81565b6114197f14823911f2da1b49f045a0929a60b8c1f2a7fc8c06c7284ca3e8ab4e193a08c883611386565b611421575f80fd5b8060025f8473ffffffffffffffffffffffffffffffffffffffff1673ffffffffffffffffffffffffffffffffffffffff1681526020019081526020015f20908161146b919061215a565b505050565b61147982610504565b6114828161151f565b61148c8383611623565b50505050565b7fc8f5b4140cca307cd927e59cbeea8291bffeee228fc677f0fa059aef7b4dd8d581565b5f7f01ffc9a7000000000000000000000000000000000000000000000000000000007bffffffffffffffffffffffffffffffffffffffffffffffffffffffff1916827bffffffffffffffffffffffffffffffffffffffffffffffffffffffff1916149050919050565b6115308161152b61161c565b611760565b50565b5f61153e8383611386565b6116125760015f808581526020019081526020015f205f015f8473ffffffffffffffffffffffffffffffffffffffff1673ffffffffffffffffffffffffffffffffffffffff1681526020019081526020015f205f6101000a81548160ff0219169083151502179055506115af61161c565b73ffffffffffffffffffffffffffffffffffffffff168273ffffffffffffffffffffffffffffffffffffffff16847f2f8788117e7eff1d82e926ec794901d17c78024a50270940304540a733656f0d60405160405180910390a460019050611616565b5f90505b92915050565b5f33905090565b5f61162e8383611386565b15611702575f805f8581526020019081526020015f205f015f8473ffffffffffffffffffffffffffffffffffffffff1673ffffffffffffffffffffffffffffffffffffffff1681526020019081526020015f205f6101000a81548160ff02191690831515021790555061169f61161c565b73ffffffffffffffffffffffffffffffffffffffff168273ffffffffffffffffffffffffffffffffffffffff16847ff6391f5c32d9c69d2a47ea670b442974b53935d1edc7fd64eb21e047a839171b60405160405180910390a460019050611706565b5f90505b92915050565b5f8060025f8473ffffffffffffffffffffffffffffffffffffffff1673ffffffffffffffffffffffffffffffffffffffff1681526020019081526020015f20805461175690611f84565b9050119050919050565b61176a8282611386565b6117ad5780826040517fe2517d3f0000000000000000000000000000000000000000000000000000000081526004016117a492919061242f565b60405180910390fd5b5050565b5f604051905090565b5f80fd5b5f80fd5b5f7fffffffff0000000000000000000000000000000000000000000000000000000082169050919050565b6117f6816117c2565b8114611800575f80fd5b50565b5f81359050611811816117ed565b92915050565b5f6020828403121561182c5761182b6117ba565b5b5f61183984828501611803565b91505092915050565b5f8115159050919050565b61185681611842565b82525050565b5f60208201905061186f5f83018461184d565b92915050565b5f819050919050565b61188781611875565b82525050565b5f6020820190506118a05f83018461187e565b92915050565b6118af81611875565b81146118b9575f80fd5b50565b5f813590506118ca816118a6565b92915050565b5f602082840312156118e5576118e46117ba565b5b5f6118f2848285016118bc565b91505092915050565b5f73ffffffffffffffffffffffffffffffffffffffff82169050919050565b5f611924826118fb565b9050919050565b6119348161191a565b811461193e575f80fd5b50565b5f8135905061194f8161192b565b92915050565b5f6020828403121561196a576119696117ba565b5b5f61197784828501611941565b91505092915050565b5f81519050919050565b5f82825260208201905092915050565b5f819050602082019050919050565b6119b28161191a565b82525050565b5f6119c383836119a9565b60208301905092915050565b5f602082019050919050565b5f6119e582611980565b6119ef818561198a565b93506119fa8361199a565b805f5b83811015611a2a578151611a1188826119b8565b9750611a1c836119cf565b9250506001810190506119fd565b5085935050505092915050565b5f6020820190508181035f830152611a4f81846119db565b905092915050565b5f8060408385031215611a6d57611a6c6117ba565b5b5f611a7a858286016118bc565b9250506020611a8b85828601611941565b9150509250929050565b5f80fd5b5f80fd5b5f601f19601f8301169050919050565b7f4e487b71000000000000000000000000000000000000000000000000000000005f52604160045260245ffd5b611ae382611a9d565b810181811067ffffffffffffffff82111715611b0257611b01611aad565b5b80604052505050565b5f611b146117b1565b9050611b208282611ada565b919050565b5f67ffffffffffffffff821115611b3f57611b3e611aad565b5b611b4882611a9d565b9050602081019050919050565b828183375f83830152505050565b5f611b75611b7084611b25565b611b0b565b905082815260208101848484011115611b9157611b90611a99565b5b611b9c848285611b55565b509392505050565b5f82601f830112611bb857611bb7611a95565b5b8135611bc8848260208601611b63565b91505092915050565b5f805f60608486031215611be857611be76117ba565b5b5f611bf586828701611941565b935050602084013567ffffffffffffffff811115611c1657611c156117be565b5b611c2286828701611ba4565b925050604084013567ffffffffffffffff811115611c4357611c426117be565b5b611c4f86828701611ba4565b9150509250925092565b5f81519050919050565b5f82825260208201905092915050565b5f5b83811015611c90578082015181840152602081019050611c75565b5f8484015250505050565b5f611ca582611c59565b611caf8185611c63565b9350611cbf818560208601611c73565b611cc881611a9d565b840191505092915050565b5f6020820190508181035f830152611ceb8184611c9b565b905092915050565b5f8060408385031215611d0957611d086117ba565b5b5f611d1685828601611941565b9250506020611d2785828601611941565b9150509250929050565b5f81519050919050565b5f82825260208201905092915050565b5f819050602082019050919050565b5f82825260208201905092915050565b5f611d7482611c59565b611d7e8185611d5a565b9350611d8e818560208601611c73565b611d9781611a9d565b840191505092915050565b5f604083015f8301518482035f860152611dbc8282611d6a565b91505060208301518482036020860152611dd68282611d6a565b9150508091505092915050565b5f611dee8383611da2565b905092915050565b5f602082019050919050565b5f611e0c82611d31565b611e168185611d3b565b935083602082028501611e2885611d4b565b805f5b85811015611e635784840389528151611e448582611de3565b9450611e4f83611df6565b925060208a01995050600181019050611e2b565b50829750879550505050505092915050565b5f6020820190508181035f830152611e8d8184611e02565b905092915050565b5f8060408385031215611eab57611eaa6117ba565b5b5f611eb885828601611941565b925050602083013567ffffffffffffffff811115611ed957611ed86117be565b5b611ee585828601611ba4565b9150509250929050565b7f43616c6c6572206973206e6f74206120757365720000000000000000000000005f82015250565b5f611f23601483611c63565b9150611f2e82611eef565b602082019050919050565b5f6020820190508181035f830152611f5081611f17565b9050919050565b7f4e487b71000000000000000000000000000000000000000000000000000000005f52602260045260245ffd5b5f6002820490506001821680611f9b57607f821691505b602082108103611fae57611fad611f57565b5b50919050565b5f819050815f5260205f209050919050565b5f6020601f8301049050919050565b5f82821b905092915050565b5f600883026120107fffffffffffffffffffffffffffffffffffffffffffffffffffffffffffffffff82611fd5565b61201a8683611fd5565b95508019841693508086168417925050509392505050565b5f819050919050565b5f819050919050565b5f61205e61205961205484612032565b61203b565b612032565b9050919050565b5f819050919050565b61207783612044565b61208b61208382612065565b848454611fe1565b825550505050565b5f90565b61209f612093565b6120aa81848461206e565b505050565b5b818110156120cd576120c25f82612097565b6001810190506120b0565b5050565b601f821115612112576120e381611fb4565b6120ec84611fc6565b810160208510156120fb578190505b61210f61210785611fc6565b8301826120af565b50505b505050565b5f82821c905092915050565b5f6121325f1984600802612117565b1980831691505092915050565b5f61214a8383612123565b9150826002028217905092915050565b61216382611c59565b67ffffffffffffffff81111561217c5761217b611aad565b5b6121868254611f84565b6121918282856120d1565b5f60209050601f8311600181146121c2575f84156121b0578287015190505b6121ba858261213f565b865550612221565b601f1984166121d086611fb4565b5f5b828110156121f7578489015182556001820191506020850194506020810190506121d2565b868310156122145784890151612210601f891682612123565b8355505b6001600288020188555050505b505050505050565b7f55736572206e6f7420666f756e640000000000000000000000000000000000005f82015250565b5f61225d600e83611c63565b915061226882612229565b602082019050919050565b5f6020820190508181035f83015261228a81612251565b9050919050565b7f4e487b71000000000000000000000000000000000000000000000000000000005f52603260045260245ffd5b7f4e487b71000000000000000000000000000000000000000000000000000000005f52601160045260245ffd5b5f6122f582612032565b915061230083612032565b9250828203905081811115612318576123176122be565b5b92915050565b7f4e487b71000000000000000000000000000000000000000000000000000000005f52603160045260245ffd5b5f61235582612032565b91507fffffffffffffffffffffffffffffffffffffffffffffffffffffffffffffffff8203612387576123866122be565b5b600182019050919050565b7f4e6f2066616c6c206461746120666f756e6420666f722074686520676976656e5f8201527f2075736572206164647265737300000000000000000000000000000000000000602082015250565b5f6123ec602d83611c63565b91506123f782612392565b604082019050919050565b5f6020820190508181035f830152612419816123e0565b9050919050565b6124298161191a565b82525050565b5f6040820190506124425f830185612420565b61244f602083018461187e565b939250505056fea2646970667358221220aa2e99516e5cb05674f8f18f13989274f8cc1560dca80053e27a84cde7609d1064736f6c63430008140033",
  "immutableReferences": {},
  "source": "// SPDX-License-Identifier: MIT\r\npragma solidity ^0.8.13;\r\n\r\nimport \"@openzeppelin/contracts/access/AccessControl.sol\";\r\n\r\ncontract MetaSave is AccessControl {\r\n    address private admin = 0xcE927753f89b4482CbD56afFEe3bf2931418e471;\r\n    constructor() {\r\n        _grantRole(DEFAULT_ADMIN_ROLE, admin);\r\n    }\r\n\r\n    struct FallData {\r\n        string imgIPFSid;\r\n        string dataIPFSid;\r\n    }\r\n\r\n\tmapping(address => string) private userIPFSMapping;\r\n\tmapping(address => FallData[]) private fallDataMap;\r\n\r\n    mapping(address => address[]) private userHospitalMapping;\r\n    mapping(address => address[]) private hospitalUserMapping;\r\n\r\n    mapping(address => address[]) private userDeviceMapping;\r\n\r\n    bytes32 public constant USER_ROLE = keccak256(\"USER_ROLE\");\r\n    bytes32 public constant HOSPITAL_ROLE = keccak256(\"HOSPITAL_ROLE\");\r\n\r\n    modifier onlyAdmin() {\r\n        require(hasRole(DEFAULT_ADMIN_ROLE, msg.sender), \"Caller is not an admin\");\r\n        _;\r\n    }\r\n \r\n    function grantUserRole(address account) public onlyRole(DEFAULT_ADMIN_ROLE) returns (bool) { \r\n        grantRole(USER_ROLE, account);\r\n        return true;\r\n    }\r\n\r\n    function grantHospitalRole(address account) public onlyRole(DEFAULT_ADMIN_ROLE) returns (bool) { \r\n        grantRole(HOSPITAL_ROLE, account);\r\n        return true;\r\n    }\r\n\r\n    function addDevice(address user_addr, address device_addr) public {\r\n        require(hasRole(USER_ROLE, user_addr), \"Caller is not a user\");\r\n\r\n        userDeviceMapping[user_addr].push(device_addr);\r\n    }\r\n\r\n    function getDevices(address user_addr) public view returns (address[] memory) {\r\n        require(hasRole(USER_ROLE, user_addr), \"Caller is not a user\");\r\n\r\n        return userDeviceMapping[user_addr];\r\n    }\r\n\r\n    function removeDevice(address owner, address _device) external returns (bool) {\r\n        require(hasRole(USER_ROLE, owner), \"Caller is not a user\");\r\n\r\n        uint256 len = userDeviceMapping[owner].length;\r\n        for (uint256 i = 0; i < len; i++) {\r\n            if (userDeviceMapping[owner][i] == _device) {\r\n                userDeviceMapping[owner][i] = userDeviceMapping[owner][len - 1];\r\n                userDeviceMapping[owner].pop();\r\n                break;\r\n            }\r\n        }\r\n        return true;\r\n    }\r\n\r\n    function userSelectHospital(address user_addr, address hospital_addr) public {\r\n        require(hasRole(USER_ROLE, user_addr), \"Caller is not a user\");\r\n\r\n        userHospitalMapping[user_addr].push(hospital_addr);\r\n        hospitalUserMapping[hospital_addr].push(user_addr);\r\n    }\r\n\r\n    function getUserHospitals(address user_addr) public view returns (address[] memory) {\r\n        require(hasRole(USER_ROLE, user_addr));\r\n\r\n        return userHospitalMapping[user_addr];\r\n    }\r\n\r\n    function getHospitalUsers(address hospital_addr) public view returns (address[] memory) {\r\n        require(hasRole(HOSPITAL_ROLE, hospital_addr));\r\n\r\n        return hospitalUserMapping[hospital_addr];\r\n    }\r\n\r\n    function setIPFSFileName(address user_addr, string memory ipfsFileName) public {\r\n        require(hasRole(USER_ROLE, user_addr));\r\n\r\n        userIPFSMapping[user_addr] = ipfsFileName;\r\n    }\r\n\r\n    function getIPFSFileName(address user_addr) public view returns (string memory) {\r\n        require(hasRole(USER_ROLE, user_addr));\r\n\r\n        require(userExists(user_addr), \"User not found\");\r\n\r\n        return userIPFSMapping[user_addr];\r\n    }\r\n\r\n    function userExists(address user_addr) internal view returns (bool) {\r\n        return bytes(userIPFSMapping[user_addr]).length > 0;\r\n    }\r\n\r\n    function setFallData(address user_addr, string memory imgIPFSid, string memory dataIPFSid) public {\r\n        require(hasRole(USER_ROLE, user_addr));\r\n\r\n        FallData memory newFallData = FallData(imgIPFSid, dataIPFSid);\r\n        fallDataMap[user_addr].push(newFallData);\r\n    }\r\n\r\n    function getFallData(address user_addr) public view returns (FallData[] memory) {\r\n        require(hasRole(USER_ROLE, user_addr));\r\n        \r\n        FallData[] storage fallData = fallDataMap[user_addr];\r\n        require(fallData.length > 0, \"No fall data found for the given user address\");\r\n        return fallData;\r\n    }\r\n}\r\n",
  "sourcePath": "D:\\xampp\\htdocs\\metasave\\packages\\metasave-contracts\\contracts\\MetaSave.sol",
  "compiler": {
    "name": "solc",
    "version": "0.8.20+commit.a1b79de6.Emscripten.clang"
  },
  "schemaVersion": "3.4.16",
  "updatedAt": "2024-04-01T11:18:43.754Z",
  "networkType": "ethereum",
  "devdoc": {
    "errors": {
      "AccessControlBadConfirmation()": [
        {
          "details": "The caller of a function is not the expected one. NOTE: Don't confuse with {AccessControlUnauthorizedAccount}."
        }
      ],
      "AccessControlUnauthorizedAccount(address,bytes32)": [
        {
          "details": "The `account` is missing a role."
        }
      ]
    },
    "events": {
      "RoleAdminChanged(bytes32,bytes32,bytes32)": {
        "details": "Emitted when `newAdminRole` is set as ``role``'s admin role, replacing `previousAdminRole` `DEFAULT_ADMIN_ROLE` is the starting admin for all roles, despite {RoleAdminChanged} not being emitted signaling this."
      },
      "RoleGranted(bytes32,address,address)": {
        "details": "Emitted when `account` is granted `role`. `sender` is the account that originated the contract call, an admin role bearer except when using {AccessControl-_setupRole}."
      },
      "RoleRevoked(bytes32,address,address)": {
        "details": "Emitted when `account` is revoked `role`. `sender` is the account that originated the contract call:   - if using `revokeRole`, it is the admin role bearer   - if using `renounceRole`, it is the role bearer (i.e. `account`)"
      }
    },
    "kind": "dev",
    "methods": {
      "getRoleAdmin(bytes32)": {
        "details": "Returns the admin role that controls `role`. See {grantRole} and {revokeRole}. To change a role's admin, use {_setRoleAdmin}."
      },
      "grantRole(bytes32,address)": {
        "details": "Grants `role` to `account`. If `account` had not been already granted `role`, emits a {RoleGranted} event. Requirements: - the caller must have ``role``'s admin role. May emit a {RoleGranted} event."
      },
      "hasRole(bytes32,address)": {
        "details": "Returns `true` if `account` has been granted `role`."
      },
      "renounceRole(bytes32,address)": {
        "details": "Revokes `role` from the calling account. Roles are often managed via {grantRole} and {revokeRole}: this function's purpose is to provide a mechanism for accounts to lose their privileges if they are compromised (such as when a trusted device is misplaced). If the calling account had been revoked `role`, emits a {RoleRevoked} event. Requirements: - the caller must be `callerConfirmation`. May emit a {RoleRevoked} event."
      },
      "revokeRole(bytes32,address)": {
        "details": "Revokes `role` from `account`. If `account` had been granted `role`, emits a {RoleRevoked} event. Requirements: - the caller must have ``role``'s admin role. May emit a {RoleRevoked} event."
      },
      "supportsInterface(bytes4)": {
        "details": "See {IERC165-supportsInterface}."
      }
    },
    "version": 1
  },
  "userdoc": {
    "kind": "user",
    "methods": {},
    "version": 1
  }
}