{
  "contractName": "MetaSave",
  "abi": [
    {
      "inputs": [],
      "stateMutability": "nonpayable",
      "type": "constructor"
    },
    {
      "inputs": [],
      "name": "AccessControlBadConfirmation",
      "type": "error"
    },
    {
      "inputs": [
        {
          "internalType": "address",
          "name": "account",
          "type": "address"
        },
        {
          "internalType": "bytes32",
          "name": "neededRole",
          "type": "bytes32"
        }
      ],
      "name": "AccessControlUnauthorizedAccount",
      "type": "error"
    },
    {
      "anonymous": false,
      "inputs": [
        {
          "indexed": true,
          "internalType": "bytes32",
          "name": "role",
          "type": "bytes32"
        },
        {
          "indexed": true,
          "internalType": "bytes32",
          "name": "previousAdminRole",
          "type": "bytes32"
        },
        {
          "indexed": true,
          "internalType": "bytes32",
          "name": "newAdminRole",
          "type": "bytes32"
        }
      ],
      "name": "RoleAdminChanged",
      "type": "event"
    },
    {
      "anonymous": false,
      "inputs": [
        {
          "indexed": true,
          "internalType": "bytes32",
          "name": "role",
          "type": "bytes32"
        },
        {
          "indexed": true,
          "internalType": "address",
          "name": "account",
          "type": "address"
        },
        {
          "indexed": true,
          "internalType": "address",
          "name": "sender",
          "type": "address"
        }
      ],
      "name": "RoleGranted",
      "type": "event"
    },
    {
      "anonymous": false,
      "inputs": [
        {
          "indexed": true,
          "internalType": "bytes32",
          "name": "role",
          "type": "bytes32"
        },
        {
          "indexed": true,
          "internalType": "address",
          "name": "account",
          "type": "address"
        },
        {
          "indexed": true,
          "internalType": "address",
          "name": "sender",
          "type": "address"
        }
      ],
      "name": "RoleRevoked",
      "type": "event"
    },
    {
      "inputs": [],
      "name": "DEFAULT_ADMIN_ROLE",
      "outputs": [
        {
          "internalType": "bytes32",
          "name": "",
          "type": "bytes32"
        }
      ],
      "stateMutability": "view",
      "type": "function",
      "constant": true
    },
    {
      "inputs": [],
      "name": "HOSPITAL_ROLE",
      "outputs": [
        {
          "internalType": "bytes32",
          "name": "",
          "type": "bytes32"
        }
      ],
      "stateMutability": "view",
      "type": "function",
      "constant": true
    },
    {
      "inputs": [],
      "name": "USER_ROLE",
      "outputs": [
        {
          "internalType": "bytes32",
          "name": "",
          "type": "bytes32"
        }
      ],
      "stateMutability": "view",
      "type": "function",
      "constant": true
    },
    {
      "inputs": [
        {
          "internalType": "bytes32",
          "name": "role",
          "type": "bytes32"
        }
      ],
      "name": "getRoleAdmin",
      "outputs": [
        {
          "internalType": "bytes32",
          "name": "",
          "type": "bytes32"
        }
      ],
      "stateMutability": "view",
      "type": "function",
      "constant": true
    },
    {
      "inputs": [
        {
          "internalType": "bytes32",
          "name": "role",
          "type": "bytes32"
        },
        {
          "internalType": "address",
          "name": "account",
          "type": "address"
        }
      ],
      "name": "grantRole",
      "outputs": [],
      "stateMutability": "nonpayable",
      "type": "function"
    },
    {
      "inputs": [
        {
          "internalType": "bytes32",
          "name": "role",
          "type": "bytes32"
        },
        {
          "internalType": "address",
          "name": "account",
          "type": "address"
        }
      ],
      "name": "hasRole",
      "outputs": [
        {
          "internalType": "bool",
          "name": "",
          "type": "bool"
        }
      ],
      "stateMutability": "view",
      "type": "function",
      "constant": true
    },
    {
      "inputs": [
        {
          "internalType": "bytes32",
          "name": "role",
          "type": "bytes32"
        },
        {
          "internalType": "address",
          "name": "callerConfirmation",
          "type": "address"
        }
      ],
      "name": "renounceRole",
      "outputs": [],
      "stateMutability": "nonpayable",
      "type": "function"
    },
    {
      "inputs": [
        {
          "internalType": "bytes32",
          "name": "role",
          "type": "bytes32"
        },
        {
          "internalType": "address",
          "name": "account",
          "type": "address"
        }
      ],
      "name": "revokeRole",
      "outputs": [],
      "stateMutability": "nonpayable",
      "type": "function"
    },
    {
      "inputs": [
        {
          "internalType": "bytes4",
          "name": "interfaceId",
          "type": "bytes4"
        }
      ],
      "name": "supportsInterface",
      "outputs": [
        {
          "internalType": "bool",
          "name": "",
          "type": "bool"
        }
      ],
      "stateMutability": "view",
      "type": "function",
      "constant": true
    },
    {
      "inputs": [
        {
          "internalType": "address",
          "name": "account",
          "type": "address"
        }
      ],
      "name": "grantUserRole",
      "outputs": [
        {
          "internalType": "bool",
          "name": "",
          "type": "bool"
        }
      ],
      "stateMutability": "nonpayable",
      "type": "function"
    },
    {
      "inputs": [
        {
          "internalType": "address",
          "name": "account",
          "type": "address"
        }
      ],
      "name": "grantHospitalRole",
      "outputs": [
        {
          "internalType": "bool",
          "name": "",
          "type": "bool"
        }
      ],
      "stateMutability": "nonpayable",
      "type": "function"
    },
    {
      "inputs": [
        {
          "internalType": "address",
          "name": "user_addr",
          "type": "address"
        },
        {
          "internalType": "address",
          "name": "device_addr",
          "type": "address"
        }
      ],
      "name": "addDevice",
      "outputs": [],
      "stateMutability": "nonpayable",
      "type": "function"
    },
    {
      "inputs": [
        {
          "internalType": "address",
          "name": "user_addr",
          "type": "address"
        }
      ],
      "name": "getDevices",
      "outputs": [
        {
          "internalType": "address[]",
          "name": "",
          "type": "address[]"
        }
      ],
      "stateMutability": "view",
      "type": "function",
      "constant": true
    },
    {
      "inputs": [
        {
          "internalType": "address",
          "name": "user_addr",
          "type": "address"
        },
        {
          "internalType": "address",
          "name": "hospital_addr",
          "type": "address"
        }
      ],
      "name": "userSelectHospital",
      "outputs": [],
      "stateMutability": "nonpayable",
      "type": "function"
    },
    {
      "inputs": [
        {
          "internalType": "address",
          "name": "user_addr",
          "type": "address"
        }
      ],
      "name": "getUserHospitals",
      "outputs": [
        {
          "internalType": "address[]",
          "name": "",
          "type": "address[]"
        }
      ],
      "stateMutability": "view",
      "type": "function",
      "constant": true
    },
    {
      "inputs": [
        {
          "internalType": "address",
          "name": "hospital_addr",
          "type": "address"
        }
      ],
      "name": "getHospitalUsers",
      "outputs": [
        {
          "internalType": "address[]",
          "name": "",
          "type": "address[]"
        }
      ],
      "stateMutability": "view",
      "type": "function",
      "constant": true
    },
    {
      "inputs": [
        {
          "internalType": "address",
          "name": "user_addr",
          "type": "address"
        },
        {
          "internalType": "string",
          "name": "ipfsFileName",
          "type": "string"
        }
      ],
      "name": "setIPFSFileName",
      "outputs": [],
      "stateMutability": "nonpayable",
      "type": "function"
    },
    {
      "inputs": [
        {
          "internalType": "address",
          "name": "user_addr",
          "type": "address"
        }
      ],
      "name": "getIPFSFileName",
      "outputs": [
        {
          "internalType": "string",
          "name": "",
          "type": "string"
        }
      ],
      "stateMutability": "view",
      "type": "function",
      "constant": true
    },
    {
      "inputs": [
        {
          "internalType": "address",
          "name": "user_addr",
          "type": "address"
        },
        {
          "internalType": "string",
          "name": "imgIPFSid",
          "type": "string"
        },
        {
          "internalType": "string",
          "name": "dataIPFSid",
          "type": "string"
        }
      ],
      "name": "setFallData",
      "outputs": [],
      "stateMutability": "nonpayable",
      "type": "function"
    },
    {
      "inputs": [
        {
          "internalType": "address",
          "name": "user_addr",
          "type": "address"
        }
      ],
      "name": "getFallData",
      "outputs": [
        {
          "components": [
            {
              "internalType": "string",
              "name": "imgIPFSid",
              "type": "string"
            },
            {
              "internalType": "string",
              "name": "dataIPFSid",
              "type": "string"
            }
          ],
          "internalType": "struct MetaSave.FallData[]",
          "name": "",
          "type": "tuple[]"
        }
      ],
      "stateMutability": "view",
      "type": "function",
      "constant": true
    }
  ],
  "bytecode": "0x608060405234801562000010575f80fd5b50620000255f801b336200002c60201b60201c565b5062000191565b5f6200003f83836200012760201b60201c565b6200011d5760015f808581526020019081526020015f205f015f8473ffffffffffffffffffffffffffffffffffffffff1673ffffffffffffffffffffffffffffffffffffffff1681526020019081526020015f205f6101000a81548160ff021916908315150217905550620000b96200018a60201b60201c565b73ffffffffffffffffffffffffffffffffffffffff168273ffffffffffffffffffffffffffffffffffffffff16847f2f8788117e7eff1d82e926ec794901d17c78024a50270940304540a733656f0d60405160405180910390a46001905062000121565b5f90505b92915050565b5f805f8481526020019081526020015f205f015f8373ffffffffffffffffffffffffffffffffffffffff1673ffffffffffffffffffffffffffffffffffffffff1681526020019081526020015f205f9054906101000a900460ff16905092915050565b5f33905090565b611ffe806200019f5f395ff3fe608060405234801561000f575f80fd5b506004361061012a575f3560e01c8063689dbee5116100ab57806391d148541161006f57806391d1485414610388578063a217fddf146103b8578063aca35838146103d6578063d547741f146103f2578063f6ba66781461040e5761012a565b8063689dbee5146102c057806372508ca1146102dc5780637ee756f21461030c578063813799131461033c57806389537a57146103585761012a565b806336568abe116100f257806336568abe146101f8578063417b26e0146102145780634c5fa8b8146102445780634f718ea11461026057806368660e3c146102905761012a565b806301ffc9a71461012e578063131191611461015e578063248a9ca31461017c5780632ae929a9146101ac5780632f2ff15d146101dc575b5f80fd5b6101486004803603810190610143919061148a565b61042c565b60405161015591906114cf565b60405180910390f35b6101666104a5565b6040516101739190611500565b60405180910390f35b61019660048036038101906101919190611543565b6104c9565b6040516101a39190611500565b60405180910390f35b6101c660048036038101906101c191906115c8565b6104e5565b6040516101d391906116aa565b60405180910390f35b6101f660048036038101906101f191906116ca565b6105df565b005b610212600480360381019061020d91906116ca565b610601565b005b61022e600480360381019061022991906115c8565b61067c565b60405161023b91906116aa565b60405180910390f35b61025e60048036038101906102599190611844565b610776565b005b61027a600480360381019061027591906115c8565b610856565b6040516102879190611946565b60405180910390f35b6102aa60048036038101906102a591906115c8565b61099d565b6040516102b791906114cf565b60405180910390f35b6102da60048036038101906102d59190611966565b6109de565b005b6102f660048036038101906102f191906115c8565b610b81565b6040516103039190611ae8565b60405180910390f35b610326600480360381019061032191906115c8565b610db6565b60405161033391906114cf565b60405180910390f35b61035660048036038101906103519190611966565b610df7565b005b610372600480360381019061036d91906115c8565b610eff565b60405161037f91906116aa565b60405180910390f35b6103a2600480360381019061039d91906116ca565b610ff9565b6040516103af91906114cf565b60405180910390f35b6103c061105c565b6040516103cd9190611500565b60405180910390f35b6103f060048036038101906103eb9190611b08565b611062565b005b61040c600480360381019061040791906116ca565b6110e3565b005b610416611105565b6040516104239190611500565b60405180910390f35b5f7f7965db0b000000000000000000000000000000000000000000000000000000007bffffffffffffffffffffffffffffffffffffffffffffffffffffffff1916827bffffffffffffffffffffffffffffffffffffffffffffffffffffffff1916148061049e575061049d82611129565b5b9050919050565b7f14823911f2da1b49f045a0929a60b8c1f2a7fc8c06c7284ca3e8ab4e193a08c881565b5f805f8381526020019081526020015f20600101549050919050565b60606105117fc8f5b4140cca307cd927e59cbeea8291bffeee228fc677f0fa059aef7b4dd8d533610ff9565b610519575f80fd5b60045f8373ffffffffffffffffffffffffffffffffffffffff1673ffffffffffffffffffffffffffffffffffffffff1681526020019081526020015f208054806020026020016040519081016040528092919081815260200182805480156105d357602002820191905f5260205f20905b815f9054906101000a900473ffffffffffffffffffffffffffffffffffffffff1673ffffffffffffffffffffffffffffffffffffffff168152602001906001019080831161058a575b50505050509050919050565b6105e8826104c9565b6105f181611192565b6105fb83836111a6565b50505050565b61060961128f565b73ffffffffffffffffffffffffffffffffffffffff168173ffffffffffffffffffffffffffffffffffffffff161461066d576040517f6697b23200000000000000000000000000000000000000000000000000000000815260040160405180910390fd5b6106778282611296565b505050565b60606106a87f14823911f2da1b49f045a0929a60b8c1f2a7fc8c06c7284ca3e8ab4e193a08c833610ff9565b6106b0575f80fd5b60055f8373ffffffffffffffffffffffffffffffffffffffff1673ffffffffffffffffffffffffffffffffffffffff1681526020019081526020015f2080548060200260200160405190810160405280929190818152602001828054801561076a57602002820191905f5260205f20905b815f9054906101000a900473ffffffffffffffffffffffffffffffffffffffff1673ffffffffffffffffffffffffffffffffffffffff1681526020019060010190808311610721575b50505050509050919050565b6107a07f14823911f2da1b49f045a0929a60b8c1f2a7fc8c06c7284ca3e8ab4e193a08c833610ff9565b6107a8575f80fd5b5f604051806040016040528084815260200183815250905060025f8573ffffffffffffffffffffffffffffffffffffffff1673ffffffffffffffffffffffffffffffffffffffff1681526020019081526020015f2081908060018154018082558091505060019003905f5260205f2090600202015f909190919091505f820151815f0190816108379190611d65565b50602082015181600101908161084d9190611d65565b50505050505050565b60606108827f14823911f2da1b49f045a0929a60b8c1f2a7fc8c06c7284ca3e8ab4e193a08c833610ff9565b61088a575f80fd5b6108938261137f565b6108d2576040517f08c379a00000000000000000000000000000000000000000000000000000000081526004016108c990611e7e565b60405180910390fd5b60015f8373ffffffffffffffffffffffffffffffffffffffff1673ffffffffffffffffffffffffffffffffffffffff1681526020019081526020015f20805461091a90611b8f565b80601f016020809104026020016040519081016040528092919081815260200182805461094690611b8f565b80156109915780601f1061096857610100808354040283529160200191610991565b820191905f5260205f20905b81548152906001019060200180831161097457829003601f168201915b50505050509050919050565b5f805f1b6109aa81611192565b6109d47f14823911f2da1b49f045a0929a60b8c1f2a7fc8c06c7284ca3e8ab4e193a08c8846105df565b6001915050919050565b610a087f14823911f2da1b49f045a0929a60b8c1f2a7fc8c06c7284ca3e8ab4e193a08c833610ff9565b610a47576040517f08c379a0000000000000000000000000000000000000000000000000000000008152600401610a3e90611ee6565b60405180910390fd5b60035f8373ffffffffffffffffffffffffffffffffffffffff1673ffffffffffffffffffffffffffffffffffffffff1681526020019081526020015f2081908060018154018082558091505060019003905f5260205f20015f9091909190916101000a81548173ffffffffffffffffffffffffffffffffffffffff021916908373ffffffffffffffffffffffffffffffffffffffff16021790555060045f8273ffffffffffffffffffffffffffffffffffffffff1673ffffffffffffffffffffffffffffffffffffffff1681526020019081526020015f2082908060018154018082558091505060019003905f5260205f20015f9091909190916101000a81548173ffffffffffffffffffffffffffffffffffffffff021916908373ffffffffffffffffffffffffffffffffffffffff1602179055505050565b6060610bad7f14823911f2da1b49f045a0929a60b8c1f2a7fc8c06c7284ca3e8ab4e193a08c833610ff9565b610bb5575f80fd5b5f60025f8473ffffffffffffffffffffffffffffffffffffffff1673ffffffffffffffffffffffffffffffffffffffff1681526020019081526020015f2090505f818054905011610c3b576040517f08c379a0000000000000000000000000000000000000000000000000000000008152600401610c3290611f74565b60405180910390fd5b80805480602002602001604051908101604052809291908181526020015f905b82821015610daa578382905f5260205f2090600202016040518060400160405290815f82018054610c8b90611b8f565b80601f0160208091040260200160405190810160405280929190818152602001828054610cb790611b8f565b8015610d025780601f10610cd957610100808354040283529160200191610d02565b820191905f5260205f20905b815481529060010190602001808311610ce557829003601f168201915b50505050508152602001600182018054610d1b90611b8f565b80601f0160208091040260200160405190810160405280929190818152602001828054610d4790611b8f565b8015610d925780601f10610d6957610100808354040283529160200191610d92565b820191905f5260205f20905b815481529060010190602001808311610d7557829003601f168201915b50505050508152505081526020019060010190610c5b565b50505050915050919050565b5f805f1b610dc381611192565b610ded7fc8f5b4140cca307cd927e59cbeea8291bffeee228fc677f0fa059aef7b4dd8d5846105df565b6001915050919050565b610e217f14823911f2da1b49f045a0929a60b8c1f2a7fc8c06c7284ca3e8ab4e193a08c833610ff9565b610e60576040517f08c379a0000000000000000000000000000000000000000000000000000000008152600401610e5790611ee6565b60405180910390fd5b60055f8373ffffffffffffffffffffffffffffffffffffffff1673ffffffffffffffffffffffffffffffffffffffff1681526020019081526020015f2081908060018154018082558091505060019003905f5260205f20015f9091909190916101000a81548173ffffffffffffffffffffffffffffffffffffffff021916908373ffffffffffffffffffffffffffffffffffffffff1602179055505050565b6060610f2b7f14823911f2da1b49f045a0929a60b8c1f2a7fc8c06c7284ca3e8ab4e193a08c833610ff9565b610f33575f80fd5b60035f8373ffffffffffffffffffffffffffffffffffffffff1673ffffffffffffffffffffffffffffffffffffffff1681526020019081526020015f20805480602002602001604051908101604052809291908181526020018280548015610fed57602002820191905f5260205f20905b815f9054906101000a900473ffffffffffffffffffffffffffffffffffffffff1673ffffffffffffffffffffffffffffffffffffffff1681526020019060010190808311610fa4575b50505050509050919050565b5f805f8481526020019081526020015f205f015f8373ffffffffffffffffffffffffffffffffffffffff1673ffffffffffffffffffffffffffffffffffffffff1681526020019081526020015f205f9054906101000a900460ff16905092915050565b5f801b81565b61108c7f14823911f2da1b49f045a0929a60b8c1f2a7fc8c06c7284ca3e8ab4e193a08c833610ff9565b611094575f80fd5b8060015f8473ffffffffffffffffffffffffffffffffffffffff1673ffffffffffffffffffffffffffffffffffffffff1681526020019081526020015f2090816110de9190611d65565b505050565b6110ec826104c9565b6110f581611192565b6110ff8383611296565b50505050565b7fc8f5b4140cca307cd927e59cbeea8291bffeee228fc677f0fa059aef7b4dd8d581565b5f7f01ffc9a7000000000000000000000000000000000000000000000000000000007bffffffffffffffffffffffffffffffffffffffffffffffffffffffff1916827bffffffffffffffffffffffffffffffffffffffffffffffffffffffff1916149050919050565b6111a38161119e61128f565b6113d3565b50565b5f6111b18383610ff9565b6112855760015f808581526020019081526020015f205f015f8473ffffffffffffffffffffffffffffffffffffffff1673ffffffffffffffffffffffffffffffffffffffff1681526020019081526020015f205f6101000a81548160ff02191690831515021790555061122261128f565b73ffffffffffffffffffffffffffffffffffffffff168273ffffffffffffffffffffffffffffffffffffffff16847f2f8788117e7eff1d82e926ec794901d17c78024a50270940304540a733656f0d60405160405180910390a460019050611289565b5f90505b92915050565b5f33905090565b5f6112a18383610ff9565b15611375575f805f8581526020019081526020015f205f015f8473ffffffffffffffffffffffffffffffffffffffff1673ffffffffffffffffffffffffffffffffffffffff1681526020019081526020015f205f6101000a81548160ff02191690831515021790555061131261128f565b73ffffffffffffffffffffffffffffffffffffffff168273ffffffffffffffffffffffffffffffffffffffff16847ff6391f5c32d9c69d2a47ea670b442974b53935d1edc7fd64eb21e047a839171b60405160405180910390a460019050611379565b5f90505b92915050565b5f8060015f8473ffffffffffffffffffffffffffffffffffffffff1673ffffffffffffffffffffffffffffffffffffffff1681526020019081526020015f2080546113c990611b8f565b9050119050919050565b6113dd8282610ff9565b6114205780826040517fe2517d3f000000000000000000000000000000000000000000000000000000008152600401611417929190611fa1565b60405180910390fd5b5050565b5f604051905090565b5f80fd5b5f80fd5b5f7fffffffff0000000000000000000000000000000000000000000000000000000082169050919050565b61146981611435565b8114611473575f80fd5b50565b5f8135905061148481611460565b92915050565b5f6020828403121561149f5761149e61142d565b5b5f6114ac84828501611476565b91505092915050565b5f8115159050919050565b6114c9816114b5565b82525050565b5f6020820190506114e25f8301846114c0565b92915050565b5f819050919050565b6114fa816114e8565b82525050565b5f6020820190506115135f8301846114f1565b92915050565b611522816114e8565b811461152c575f80fd5b50565b5f8135905061153d81611519565b92915050565b5f602082840312156115585761155761142d565b5b5f6115658482850161152f565b91505092915050565b5f73ffffffffffffffffffffffffffffffffffffffff82169050919050565b5f6115978261156e565b9050919050565b6115a78161158d565b81146115b1575f80fd5b50565b5f813590506115c28161159e565b92915050565b5f602082840312156115dd576115dc61142d565b5b5f6115ea848285016115b4565b91505092915050565b5f81519050919050565b5f82825260208201905092915050565b5f819050602082019050919050565b6116258161158d565b82525050565b5f611636838361161c565b60208301905092915050565b5f602082019050919050565b5f611658826115f3565b61166281856115fd565b935061166d8361160d565b805f5b8381101561169d578151611684888261162b565b975061168f83611642565b925050600181019050611670565b5085935050505092915050565b5f6020820190508181035f8301526116c2818461164e565b905092915050565b5f80604083850312156116e0576116df61142d565b5b5f6116ed8582860161152f565b92505060206116fe858286016115b4565b9150509250929050565b5f80fd5b5f80fd5b5f601f19601f8301169050919050565b7f4e487b71000000000000000000000000000000000000000000000000000000005f52604160045260245ffd5b61175682611710565b810181811067ffffffffffffffff8211171561177557611774611720565b5b80604052505050565b5f611787611424565b9050611793828261174d565b919050565b5f67ffffffffffffffff8211156117b2576117b1611720565b5b6117bb82611710565b9050602081019050919050565b828183375f83830152505050565b5f6117e86117e384611798565b61177e565b9050828152602081018484840111156118045761180361170c565b5b61180f8482856117c8565b509392505050565b5f82601f83011261182b5761182a611708565b5b813561183b8482602086016117d6565b91505092915050565b5f805f6060848603121561185b5761185a61142d565b5b5f611868868287016115b4565b935050602084013567ffffffffffffffff81111561188957611888611431565b5b61189586828701611817565b925050604084013567ffffffffffffffff8111156118b6576118b5611431565b5b6118c286828701611817565b9150509250925092565b5f81519050919050565b5f82825260208201905092915050565b5f5b838110156119035780820151818401526020810190506118e8565b5f8484015250505050565b5f611918826118cc565b61192281856118d6565b93506119328185602086016118e6565b61193b81611710565b840191505092915050565b5f6020820190508181035f83015261195e818461190e565b905092915050565b5f806040838503121561197c5761197b61142d565b5b5f611989858286016115b4565b925050602061199a858286016115b4565b9150509250929050565b5f81519050919050565b5f82825260208201905092915050565b5f819050602082019050919050565b5f82825260208201905092915050565b5f6119e7826118cc565b6119f181856119cd565b9350611a018185602086016118e6565b611a0a81611710565b840191505092915050565b5f604083015f8301518482035f860152611a2f82826119dd565b91505060208301518482036020860152611a4982826119dd565b9150508091505092915050565b5f611a618383611a15565b905092915050565b5f602082019050919050565b5f611a7f826119a4565b611a8981856119ae565b935083602082028501611a9b856119be565b805f5b85811015611ad65784840389528151611ab78582611a56565b9450611ac283611a69565b925060208a01995050600181019050611a9e565b50829750879550505050505092915050565b5f6020820190508181035f830152611b008184611a75565b905092915050565b5f8060408385031215611b1e57611b1d61142d565b5b5f611b2b858286016115b4565b925050602083013567ffffffffffffffff811115611b4c57611b4b611431565b5b611b5885828601611817565b9150509250929050565b7f4e487b71000000000000000000000000000000000000000000000000000000005f52602260045260245ffd5b5f6002820490506001821680611ba657607f821691505b602082108103611bb957611bb8611b62565b5b50919050565b5f819050815f5260205f209050919050565b5f6020601f8301049050919050565b5f82821b905092915050565b5f60088302611c1b7fffffffffffffffffffffffffffffffffffffffffffffffffffffffffffffffff82611be0565b611c258683611be0565b95508019841693508086168417925050509392505050565b5f819050919050565b5f819050919050565b5f611c69611c64611c5f84611c3d565b611c46565b611c3d565b9050919050565b5f819050919050565b611c8283611c4f565b611c96611c8e82611c70565b848454611bec565b825550505050565b5f90565b611caa611c9e565b611cb5818484611c79565b505050565b5b81811015611cd857611ccd5f82611ca2565b600181019050611cbb565b5050565b601f821115611d1d57611cee81611bbf565b611cf784611bd1565b81016020851015611d06578190505b611d1a611d1285611bd1565b830182611cba565b50505b505050565b5f82821c905092915050565b5f611d3d5f1984600802611d22565b1980831691505092915050565b5f611d558383611d2e565b9150826002028217905092915050565b611d6e826118cc565b67ffffffffffffffff811115611d8757611d86611720565b5b611d918254611b8f565b611d9c828285611cdc565b5f60209050601f831160018114611dcd575f8415611dbb578287015190505b611dc58582611d4a565b865550611e2c565b601f198416611ddb86611bbf565b5f5b82811015611e0257848901518255600182019150602085019450602081019050611ddd565b86831015611e1f5784890151611e1b601f891682611d2e565b8355505b6001600288020188555050505b505050505050565b7f55736572206e6f7420666f756e640000000000000000000000000000000000005f82015250565b5f611e68600e836118d6565b9150611e7382611e34565b602082019050919050565b5f6020820190508181035f830152611e9581611e5c565b9050919050565b7f43616c6c6572206973206e6f74206120757365720000000000000000000000005f82015250565b5f611ed06014836118d6565b9150611edb82611e9c565b602082019050919050565b5f6020820190508181035f830152611efd81611ec4565b9050919050565b7f4e6f2066616c6c206461746120666f756e6420666f722074686520676976656e5f8201527f2075736572206164647265737300000000000000000000000000000000000000602082015250565b5f611f5e602d836118d6565b9150611f6982611f04565b604082019050919050565b5f6020820190508181035f830152611f8b81611f52565b9050919050565b611f9b8161158d565b82525050565b5f604082019050611fb45f830185611f92565b611fc160208301846114f1565b939250505056fea2646970667358221220b203afbabdaabf8921eae437bf4dcdef9e0acb593c5731aea509cc6a364d01a264736f6c63430008140033",
  "immutableReferences": {},
  "source": "// SPDX-License-Identifier: MIT\r\npragma solidity ^0.8.13;\r\n\r\nimport \"@openzeppelin/contracts/access/AccessControl.sol\";\r\n\r\ncontract MetaSave is AccessControl {\r\n    constructor() {\r\n        _grantRole(DEFAULT_ADMIN_ROLE, msg.sender);\r\n    }\r\n\r\n    struct FallData {\r\n        string imgIPFSid;\r\n        string dataIPFSid;\r\n    }\r\n\r\n\tmapping(address => string) private userIPFSMapping;\r\n\tmapping(address => FallData[]) private fallDataMap;\r\n\r\n    mapping(address => address[]) private userHospitalMapping;\r\n    mapping(address => address[]) private hospitalUserMapping;\r\n\r\n    mapping(address => address[]) private userDeviceMapping;\r\n\r\n    bytes32 public constant USER_ROLE = keccak256(\"USER_ROLE\");\r\n    bytes32 public constant HOSPITAL_ROLE = keccak256(\"HOSPITAL_ROLE\");\r\n\r\n    modifier onlyAdmin() {\r\n        require(hasRole(DEFAULT_ADMIN_ROLE, msg.sender), \"Caller is not an admin\");\r\n        _;\r\n    }\r\n \r\n    function grantUserRole(address account) public onlyRole(DEFAULT_ADMIN_ROLE) returns (bool) { \r\n        grantRole(USER_ROLE, account);\r\n        return true;\r\n    }\r\n\r\n    function grantHospitalRole(address account) public onlyRole(DEFAULT_ADMIN_ROLE) returns (bool) { \r\n        grantRole(HOSPITAL_ROLE, account);\r\n        return true;\r\n    }\r\n\r\n    function addDevice(address user_addr, address device_addr) public {\r\n        require(hasRole(USER_ROLE, msg.sender), \"Caller is not a user\");\r\n\r\n        userDeviceMapping[user_addr].push(device_addr);\r\n    }\r\n\r\n    function getDevices(address user_addr) public view returns (address[] memory) {\r\n        require(hasRole(USER_ROLE, msg.sender));\r\n\r\n        return userDeviceMapping[user_addr];\r\n    }\r\n\r\n    function userSelectHospital(address user_addr, address hospital_addr) public {\r\n        require(hasRole(USER_ROLE, msg.sender), \"Caller is not a user\");\r\n\r\n        userHospitalMapping[user_addr].push(hospital_addr);\r\n        hospitalUserMapping[hospital_addr].push(user_addr);\r\n    }\r\n\r\n    function getUserHospitals(address user_addr) public view returns (address[] memory) {\r\n        require(hasRole(USER_ROLE, msg.sender));\r\n\r\n        return userHospitalMapping[user_addr];\r\n    }\r\n\r\n    function getHospitalUsers(address hospital_addr) public view returns (address[] memory) {\r\n        require(hasRole(HOSPITAL_ROLE, msg.sender));\r\n\r\n        return hospitalUserMapping[hospital_addr];\r\n    }\r\n\r\n    function setIPFSFileName(address user_addr, string memory ipfsFileName) public {\r\n        require(hasRole(USER_ROLE, msg.sender));\r\n\r\n        userIPFSMapping[user_addr] = ipfsFileName;\r\n    }\r\n\r\n    function getIPFSFileName(address user_addr) public view returns (string memory) {\r\n        require(hasRole(USER_ROLE, msg.sender));\r\n\r\n        require(userExists(user_addr), \"User not found\");\r\n\r\n        return userIPFSMapping[user_addr];\r\n    }\r\n\r\n    function userExists(address user_addr) internal view returns (bool) {\r\n        return bytes(userIPFSMapping[user_addr]).length > 0;\r\n    }\r\n\r\n    function setFallData(address user_addr, string memory imgIPFSid, string memory dataIPFSid) public {\r\n        require(hasRole(USER_ROLE, msg.sender));\r\n\r\n        FallData memory newFallData = FallData(imgIPFSid, dataIPFSid);\r\n        fallDataMap[user_addr].push(newFallData);\r\n    }\r\n\r\n    function getFallData(address user_addr) public view returns (FallData[] memory) {\r\n        require(hasRole(USER_ROLE, msg.sender));\r\n        \r\n        FallData[] storage fallData = fallDataMap[user_addr];\r\n        require(fallData.length > 0, \"No fall data found for the given user address\");\r\n        return fallData;\r\n    }\r\n}\r\n",
  "sourcePath": "D:\\xampp\\htdocs\\metasave\\packages\\metasave-contracts\\contracts\\MetaSave.sol",
  "compiler": {
    "name": "solc",
    "version": "0.8.20+commit.a1b79de6.Emscripten.clang"
  },
  "schemaVersion": "3.4.16",
  "updatedAt": "2024-03-19T14:25:49.369Z",
  "networkType": "ethereum",
  "devdoc": {
    "errors": {
      "AccessControlBadConfirmation()": [
        {
          "details": "The caller of a function is not the expected one. NOTE: Don't confuse with {AccessControlUnauthorizedAccount}."
        }
      ],
      "AccessControlUnauthorizedAccount(address,bytes32)": [
        {
          "details": "The `account` is missing a role."
        }
      ]
    },
    "events": {
      "RoleAdminChanged(bytes32,bytes32,bytes32)": {
        "details": "Emitted when `newAdminRole` is set as ``role``'s admin role, replacing `previousAdminRole` `DEFAULT_ADMIN_ROLE` is the starting admin for all roles, despite {RoleAdminChanged} not being emitted signaling this."
      },
      "RoleGranted(bytes32,address,address)": {
        "details": "Emitted when `account` is granted `role`. `sender` is the account that originated the contract call, an admin role bearer except when using {AccessControl-_setupRole}."
      },
      "RoleRevoked(bytes32,address,address)": {
        "details": "Emitted when `account` is revoked `role`. `sender` is the account that originated the contract call:   - if using `revokeRole`, it is the admin role bearer   - if using `renounceRole`, it is the role bearer (i.e. `account`)"
      }
    },
    "kind": "dev",
    "methods": {
      "getRoleAdmin(bytes32)": {
        "details": "Returns the admin role that controls `role`. See {grantRole} and {revokeRole}. To change a role's admin, use {_setRoleAdmin}."
      },
      "grantRole(bytes32,address)": {
        "details": "Grants `role` to `account`. If `account` had not been already granted `role`, emits a {RoleGranted} event. Requirements: - the caller must have ``role``'s admin role. May emit a {RoleGranted} event."
      },
      "hasRole(bytes32,address)": {
        "details": "Returns `true` if `account` has been granted `role`."
      },
      "renounceRole(bytes32,address)": {
        "details": "Revokes `role` from the calling account. Roles are often managed via {grantRole} and {revokeRole}: this function's purpose is to provide a mechanism for accounts to lose their privileges if they are compromised (such as when a trusted device is misplaced). If the calling account had been revoked `role`, emits a {RoleRevoked} event. Requirements: - the caller must be `callerConfirmation`. May emit a {RoleRevoked} event."
      },
      "revokeRole(bytes32,address)": {
        "details": "Revokes `role` from `account`. If `account` had been granted `role`, emits a {RoleRevoked} event. Requirements: - the caller must have ``role``'s admin role. May emit a {RoleRevoked} event."
      },
      "supportsInterface(bytes4)": {
        "details": "See {IERC165-supportsInterface}."
      }
    },
    "version": 1
  },
  "userdoc": {
    "kind": "user",
    "methods": {},
    "version": 1
  }
}