{
  "contractName": "MetaSave",
  "abi": [
    {
      "inputs": [
        {
          "internalType": "address",
          "name": "user_addr",
          "type": "address"
        },
        {
          "internalType": "string",
          "name": "ipfsFileName",
          "type": "string"
        }
      ],
      "name": "setIPFSFileName",
      "outputs": [],
      "stateMutability": "nonpayable",
      "type": "function"
    },
    {
      "inputs": [
        {
          "internalType": "address",
          "name": "user_addr",
          "type": "address"
        }
      ],
      "name": "getIPFSFileName",
      "outputs": [
        {
          "internalType": "string",
          "name": "",
          "type": "string"
        }
      ],
      "stateMutability": "view",
      "type": "function",
      "constant": true
    },
    {
      "inputs": [
        {
          "internalType": "address",
          "name": "user_addr",
          "type": "address"
        },
        {
          "internalType": "string",
          "name": "imgIPFSid",
          "type": "string"
        },
        {
          "internalType": "string",
          "name": "dataIPFSid",
          "type": "string"
        }
      ],
      "name": "setFallData",
      "outputs": [],
      "stateMutability": "nonpayable",
      "type": "function"
    },
    {
      "inputs": [
        {
          "internalType": "address",
          "name": "user_addr",
          "type": "address"
        }
      ],
      "name": "getFallData",
      "outputs": [
        {
          "components": [
            {
              "internalType": "string",
              "name": "imgIPFSid",
              "type": "string"
            },
            {
              "internalType": "string",
              "name": "dataIPFSid",
              "type": "string"
            }
          ],
          "internalType": "struct MetaSave.FallData[]",
          "name": "",
          "type": "tuple[]"
        }
      ],
      "stateMutability": "view",
      "type": "function",
      "constant": true
    }
  ],
  "bytecode": "0x608060405234801561001057600080fd5b50610ca0806100206000396000f3fe608060405234801561001057600080fd5b506004361061004c5760003560e01c80634c5fa8b8146100515780634f718ea11461006d57806372508ca11461009d578063aca35838146100cd575b600080fd5b61006b600480360381019061006691906107dc565b6100e9565b005b61008760048036038101906100829190610867565b6101ad565b604051610094919061091c565b60405180910390f35b6100b760048036038101906100b29190610867565b6102c5565b6040516100c49190610a8e565b60405180910390f35b6100e760048036038101906100e29190610ab0565b6104d4565b005b60006040518060400160405280848152602001838152509050600160008573ffffffffffffffffffffffffffffffffffffffff1673ffffffffffffffffffffffffffffffffffffffff1681526020019081526020016000208190806001815401808255809150506001900390600052602060002090600202016000909190919091506000820151816000019080519060200190610187929190610581565b5060208201518160010190805190602001906101a4929190610581565b50505050505050565b60606101b88261052b565b6101f7576040517f08c379a00000000000000000000000000000000000000000000000000000000081526004016101ee90610b58565b60405180910390fd5b6000808373ffffffffffffffffffffffffffffffffffffffff1673ffffffffffffffffffffffffffffffffffffffff168152602001908152602001600020805461024090610ba7565b80601f016020809104026020016040519081016040528092919081815260200182805461026c90610ba7565b80156102b95780601f1061028e576101008083540402835291602001916102b9565b820191906000526020600020905b81548152906001019060200180831161029c57829003601f168201915b50505050509050919050565b60606000600160008473ffffffffffffffffffffffffffffffffffffffff1673ffffffffffffffffffffffffffffffffffffffff16815260200190815260200160002090506000818054905011610351576040517f08c379a000000000000000000000000000000000000000000000000000000000815260040161034890610c4a565b60405180910390fd5b80805480602002602001604051908101604052809291908181526020016000905b828210156104c857838290600052602060002090600202016040518060400160405290816000820180546103a590610ba7565b80601f01602080910402602001604051908101604052809291908181526020018280546103d190610ba7565b801561041e5780601f106103f35761010080835404028352916020019161041e565b820191906000526020600020905b81548152906001019060200180831161040157829003601f168201915b5050505050815260200160018201805461043790610ba7565b80601f016020809104026020016040519081016040528092919081815260200182805461046390610ba7565b80156104b05780601f10610485576101008083540402835291602001916104b0565b820191906000526020600020905b81548152906001019060200180831161049357829003601f168201915b50505050508152505081526020019060010190610372565b50505050915050919050565b806000808473ffffffffffffffffffffffffffffffffffffffff1673ffffffffffffffffffffffffffffffffffffffff1681526020019081526020016000209080519060200190610526929190610581565b505050565b6000806000808473ffffffffffffffffffffffffffffffffffffffff1673ffffffffffffffffffffffffffffffffffffffff168152602001908152602001600020805461057790610ba7565b9050119050919050565b82805461058d90610ba7565b90600052602060002090601f0160209004810192826105af57600085556105f6565b82601f106105c857805160ff19168380011785556105f6565b828001600101855582156105f6579182015b828111156105f55782518255916020019190600101906105da565b5b5090506106039190610607565b5090565b5b80821115610620576000816000905550600101610608565b5090565b6000604051905090565b600080fd5b600080fd5b600073ffffffffffffffffffffffffffffffffffffffff82169050919050565b600061066382610638565b9050919050565b61067381610658565b811461067e57600080fd5b50565b6000813590506106908161066a565b92915050565b600080fd5b600080fd5b6000601f19601f8301169050919050565b7f4e487b7100000000000000000000000000000000000000000000000000000000600052604160045260246000fd5b6106e9826106a0565b810181811067ffffffffffffffff82111715610708576107076106b1565b5b80604052505050565b600061071b610624565b905061072782826106e0565b919050565b600067ffffffffffffffff821115610747576107466106b1565b5b610750826106a0565b9050602081019050919050565b82818337600083830152505050565b600061077f61077a8461072c565b610711565b90508281526020810184848401111561079b5761079a61069b565b5b6107a684828561075d565b509392505050565b600082601f8301126107c3576107c2610696565b5b81356107d384826020860161076c565b91505092915050565b6000806000606084860312156107f5576107f461062e565b5b600061080386828701610681565b935050602084013567ffffffffffffffff81111561082457610823610633565b5b610830868287016107ae565b925050604084013567ffffffffffffffff81111561085157610850610633565b5b61085d868287016107ae565b9150509250925092565b60006020828403121561087d5761087c61062e565b5b600061088b84828501610681565b91505092915050565b600081519050919050565b600082825260208201905092915050565b60005b838110156108ce5780820151818401526020810190506108b3565b838111156108dd576000848401525b50505050565b60006108ee82610894565b6108f8818561089f565b93506109088185602086016108b0565b610911816106a0565b840191505092915050565b6000602082019050818103600083015261093681846108e3565b905092915050565b600081519050919050565b600082825260208201905092915050565b6000819050602082019050919050565b600082825260208201905092915050565b600061098682610894565b610990818561096a565b93506109a08185602086016108b0565b6109a9816106a0565b840191505092915050565b600060408301600083015184820360008601526109d1828261097b565b915050602083015184820360208601526109eb828261097b565b9150508091505092915050565b6000610a0483836109b4565b905092915050565b6000602082019050919050565b6000610a248261093e565b610a2e8185610949565b935083602082028501610a408561095a565b8060005b85811015610a7c5784840389528151610a5d85826109f8565b9450610a6883610a0c565b925060208a01995050600181019050610a44565b50829750879550505050505092915050565b60006020820190508181036000830152610aa88184610a19565b905092915050565b60008060408385031215610ac757610ac661062e565b5b6000610ad585828601610681565b925050602083013567ffffffffffffffff811115610af657610af5610633565b5b610b02858286016107ae565b9150509250929050565b7f55736572206e6f7420666f756e64000000000000000000000000000000000000600082015250565b6000610b42600e8361089f565b9150610b4d82610b0c565b602082019050919050565b60006020820190508181036000830152610b7181610b35565b9050919050565b7f4e487b7100000000000000000000000000000000000000000000000000000000600052602260045260246000fd5b60006002820490506001821680610bbf57607f821691505b602082108103610bd257610bd1610b78565b5b50919050565b7f4e6f2066616c6c206461746120666f756e6420666f722074686520676976656e60008201527f2075736572206164647265737300000000000000000000000000000000000000602082015250565b6000610c34602d8361089f565b9150610c3f82610bd8565b604082019050919050565b60006020820190508181036000830152610c6381610c27565b905091905056fea264697066735822122050140ac6d98c3b526485c241ceec74c9a86d07b04b4a13e593888bb66c774e5a64736f6c634300080d0033",
  "immutableReferences": {},
  "source": "// SPDX-License-Identifier: MIT\npragma solidity ^0.8.13;\n\ncontract MetaSave {\n    struct FallData {\n        string imgIPFSid;\n        string dataIPFSid;\n    }\n\n\tmapping(address => string) private userIPFSMapping;\n\tmapping(address => FallData[]) private fallDataMap;\n\n    function setIPFSFileName(address user_addr, string memory ipfsFileName) public {\n        userIPFSMapping[user_addr] = ipfsFileName;\n    }\n\n    function getIPFSFileName(address user_addr) public view returns (string memory) {\n        require(userExists(user_addr), \"User not found\");\n        return userIPFSMapping[user_addr];\n    }\n\n    function userExists(address user_addr) internal view returns (bool) {\n        return bytes(userIPFSMapping[user_addr]).length > 0;\n    }\n\n    function setFallData(address user_addr, string memory imgIPFSid, string memory dataIPFSid) public {\n        FallData memory newFallData = FallData(imgIPFSid, dataIPFSid);\n        fallDataMap[user_addr].push(newFallData);\n    }\n\n    function getFallData(address user_addr) public view returns (FallData[] memory) {\n        FallData[] storage fallData = fallDataMap[user_addr];\n        require(fallData.length > 0, \"No fall data found for the given user address\");\n        return fallData;\n    }\n}\n",
  "sourcePath": "D:\\xampp\\htdocs\\metasave\\packages\\metasave-contracts\\contracts\\MetaSave.sol",
  "compiler": {
    "name": "solc",
    "version": "0.8.13+commit.abaa5c0e.Emscripten.clang"
  },
  "schemaVersion": "3.4.16",
  "updatedAt": "2024-02-22T15:49:48.507Z",
  "networkType": "ethereum",
  "devdoc": {
    "kind": "dev",
    "methods": {},
    "version": 1
  },
  "userdoc": {
    "kind": "user",
    "methods": {},
    "version": 1
  }
}