{
  "contractName": "ZKProof",
  "abi": [
    {
      "inputs": [
        {
          "internalType": "bytes32",
          "name": "_root",
          "type": "bytes32"
        },
        {
          "internalType": "string",
          "name": "_mtIPFSid",
          "type": "string"
        },
        {
          "internalType": "uint32",
          "name": "user",
          "type": "uint32"
        }
      ],
      "name": "setRootAndIPFS",
      "outputs": [],
      "stateMutability": "nonpayable",
      "type": "function"
    },
    {
      "inputs": [
        {
          "internalType": "uint32",
          "name": "user",
          "type": "uint32"
        }
      ],
      "name": "getMTRoot",
      "outputs": [
        {
          "internalType": "bytes32",
          "name": "",
          "type": "bytes32"
        }
      ],
      "stateMutability": "view",
      "type": "function",
      "constant": true
    },
    {
      "inputs": [
        {
          "internalType": "uint32",
          "name": "user",
          "type": "uint32"
        }
      ],
      "name": "getMTIPFSid",
      "outputs": [
        {
          "internalType": "string",
          "name": "",
          "type": "string"
        }
      ],
      "stateMutability": "view",
      "type": "function",
      "constant": true
    },
    {
      "inputs": [
        {
          "internalType": "bytes32[]",
          "name": "proof",
          "type": "bytes32[]"
        },
        {
          "internalType": "address",
          "name": "hxsh",
          "type": "address"
        },
        {
          "internalType": "bytes32",
          "name": "message",
          "type": "bytes32"
        },
        {
          "internalType": "uint32",
          "name": "user",
          "type": "uint32"
        }
      ],
      "name": "verify",
      "outputs": [
        {
          "internalType": "bool",
          "name": "",
          "type": "bool"
        }
      ],
      "stateMutability": "view",
      "type": "function",
      "constant": true
    }
  ],
  "bytecode": "0x608060405234801561000f575f80fd5b50610d0b8061001d5f395ff3fe608060405234801561000f575f80fd5b506004361061004a575f3560e01c80631aff122e1461004e578063a2539b531461007e578063f052344d1461009a578063f8bb1bb2146100ca575b5f80fd5b61006860048036038101906100639190610459565b6100fa565b604051610075919061050e565b60405180910390f35b6100986004803603810190610093919061068d565b61023d565b005b6100b460048036038101906100af9190610459565b610291565b6040516100c19190610708565b60405180910390f35b6100e460048036038101906100df919061083f565b6102c6565b6040516100f191906108d9565b60405180910390f35b606060018263ffffffff160361019a57600180546101179061091f565b80601f01602080910402602001604051908101604052809291908181526020018280546101439061091f565b801561018e5780601f106101655761010080835404028352916020019161018e565b820191905f5260205f20905b81548152906001019060200180831161017157829003601f168201915b50505050509050610238565b5f8263ffffffff160361023757600380546101b49061091f565b80601f01602080910402602001604051908101604052809291908181526020018280546101e09061091f565b801561022b5780601f106102025761010080835404028352916020019161022b565b820191905f5260205f20905b81548152906001019060200180831161020e57829003601f168201915b50505050509050610238565b5b919050565b60018163ffffffff160361026657825f8190555081600190816102609190610af5565b5061028c565b5f8163ffffffff160361028b578260028190555081600390816102899190610af5565b505b5b505050565b5f60018263ffffffff16036102a9575f5490506102c1565b5f8263ffffffff16036102c05760025490506102c1565b5b919050565b5f8084846040516020016102db929190610bd3565b604051602081830303815290604052805190602001206040516020016103019190610c1a565b60405160208183030381529060405280519060200120905060018363ffffffff160361033b57610333865f5483610367565b91505061035f565b5f8363ffffffff160361035d576103558660025483610367565b91505061035f565b505b949350505050565b5f82610373858461037d565b1490509392505050565b5f808290505f5b84518110156103c6576103b1828683815181106103a4576103a3610c34565b5b60200260200101516103d1565b915080806103be90610c8e565b915050610384565b508091505092915050565b5f8183106103e8576103e382846103fb565b6103f3565b6103f283836103fb565b5b905092915050565b5f825f528160205260405f20905092915050565b5f604051905090565b5f80fd5b5f80fd5b5f63ffffffff82169050919050565b61043881610420565b8114610442575f80fd5b50565b5f813590506104538161042f565b92915050565b5f6020828403121561046e5761046d610418565b5b5f61047b84828501610445565b91505092915050565b5f81519050919050565b5f82825260208201905092915050565b5f5b838110156104bb5780820151818401526020810190506104a0565b5f8484015250505050565b5f601f19601f8301169050919050565b5f6104e082610484565b6104ea818561048e565b93506104fa81856020860161049e565b610503816104c6565b840191505092915050565b5f6020820190508181035f83015261052681846104d6565b905092915050565b5f819050919050565b6105408161052e565b811461054a575f80fd5b50565b5f8135905061055b81610537565b92915050565b5f80fd5b5f80fd5b7f4e487b71000000000000000000000000000000000000000000000000000000005f52604160045260245ffd5b61059f826104c6565b810181811067ffffffffffffffff821117156105be576105bd610569565b5b80604052505050565b5f6105d061040f565b90506105dc8282610596565b919050565b5f67ffffffffffffffff8211156105fb576105fa610569565b5b610604826104c6565b9050602081019050919050565b828183375f83830152505050565b5f61063161062c846105e1565b6105c7565b90508281526020810184848401111561064d5761064c610565565b5b610658848285610611565b509392505050565b5f82601f83011261067457610673610561565b5b813561068484826020860161061f565b91505092915050565b5f805f606084860312156106a4576106a3610418565b5b5f6106b18682870161054d565b935050602084013567ffffffffffffffff8111156106d2576106d161041c565b5b6106de86828701610660565b92505060406106ef86828701610445565b9150509250925092565b6107028161052e565b82525050565b5f60208201905061071b5f8301846106f9565b92915050565b5f67ffffffffffffffff82111561073b5761073a610569565b5b602082029050602081019050919050565b5f80fd5b5f61076261075d84610721565b6105c7565b905080838252602082019050602084028301858111156107855761078461074c565b5b835b818110156107ae578061079a888261054d565b845260208401935050602081019050610787565b5050509392505050565b5f82601f8301126107cc576107cb610561565b5b81356107dc848260208601610750565b91505092915050565b5f73ffffffffffffffffffffffffffffffffffffffff82169050919050565b5f61080e826107e5565b9050919050565b61081e81610804565b8114610828575f80fd5b50565b5f8135905061083981610815565b92915050565b5f805f806080858703121561085757610856610418565b5b5f85013567ffffffffffffffff8111156108745761087361041c565b5b610880878288016107b8565b94505060206108918782880161082b565b93505060406108a28782880161054d565b92505060606108b387828801610445565b91505092959194509250565b5f8115159050919050565b6108d3816108bf565b82525050565b5f6020820190506108ec5f8301846108ca565b92915050565b7f4e487b71000000000000000000000000000000000000000000000000000000005f52602260045260245ffd5b5f600282049050600182168061093657607f821691505b602082108103610949576109486108f2565b5b50919050565b5f819050815f5260205f209050919050565b5f6020601f8301049050919050565b5f82821b905092915050565b5f600883026109ab7fffffffffffffffffffffffffffffffffffffffffffffffffffffffffffffffff82610970565b6109b58683610970565b95508019841693508086168417925050509392505050565b5f819050919050565b5f819050919050565b5f6109f96109f46109ef846109cd565b6109d6565b6109cd565b9050919050565b5f819050919050565b610a12836109df565b610a26610a1e82610a00565b84845461097c565b825550505050565b5f90565b610a3a610a2e565b610a45818484610a09565b505050565b5b81811015610a6857610a5d5f82610a32565b600181019050610a4b565b5050565b601f821115610aad57610a7e8161094f565b610a8784610961565b81016020851015610a96578190505b610aaa610aa285610961565b830182610a4a565b50505b505050565b5f82821c905092915050565b5f610acd5f1984600802610ab2565b1980831691505092915050565b5f610ae58383610abe565b9150826002028217905092915050565b610afe82610484565b67ffffffffffffffff811115610b1757610b16610569565b5b610b21825461091f565b610b2c828285610a6c565b5f60209050601f831160018114610b5d575f8415610b4b578287015190505b610b558582610ada565b865550610bbc565b601f198416610b6b8661094f565b5f5b82811015610b9257848901518255600182019150602085019450602081019050610b6d565b86831015610baf5784890151610bab601f891682610abe565b8355505b6001600288020188555050505b505050505050565b610bcd81610804565b82525050565b5f604082019050610be65f830185610bc4565b610bf360208301846106f9565b9392505050565b5f819050919050565b610c14610c0f8261052e565b610bfa565b82525050565b5f610c258284610c03565b60208201915081905092915050565b7f4e487b71000000000000000000000000000000000000000000000000000000005f52603260045260245ffd5b7f4e487b71000000000000000000000000000000000000000000000000000000005f52601160045260245ffd5b5f610c98826109cd565b91507fffffffffffffffffffffffffffffffffffffffffffffffffffffffffffffffff8203610cca57610cc9610c61565b5b60018201905091905056fea26469706673582212202461d30449f5114c15807e7156198ccbebdc83d98d6e978159169e09d3d516c564736f6c63430008140033",
  "immutableReferences": {},
  "source": "// SPDX-License-Identifier: MIT\r\npragma solidity ^0.8.13;\r\n\r\nimport \"@openzeppelin/contracts/utils/cryptography/MerkleProof.sol\";\r\n\r\ncontract ZKProof {\r\n\r\n    bytes32 private u_root;\r\n    string private u_mtIPFSid;\r\n\r\n    bytes32 private d_root;\r\n    string private d_mtIPFSid;\r\n\r\n    function setRootAndIPFS(bytes32 _root, string memory _mtIPFSid, uint32 user) public {\r\n        if (user == 1){\r\n            u_root = _root;\r\n            u_mtIPFSid = _mtIPFSid;\r\n        }else if (user == 0){\r\n            d_root = _root;\r\n            d_mtIPFSid = _mtIPFSid;\r\n        }\r\n    }\r\n\r\n    function getMTRoot(uint32 user) public view returns (bytes32) {\r\n        if(user == 1){\r\n            return u_root;\r\n        }else if(user == 0){\r\n            return d_root;\r\n        }\r\n    }\r\n\r\n    function getMTIPFSid(uint32 user) public view returns (string memory) {\r\n        if(user == 1){\r\n            return u_mtIPFSid;\r\n        }else if(user == 0){\r\n            return d_mtIPFSid;\r\n        }\r\n    }\r\n\r\n    function verify(\r\n        bytes32[] memory proof,\r\n        address hxsh,\r\n        bytes32 message,\r\n        uint32 user\r\n    ) public view returns (bool) {\r\n        bytes32 leaf = keccak256(bytes.concat(keccak256(abi.encode(hxsh, message))));\r\n        // another verify circuit to verify if the user holds the token/message\r\n        if(user == 1){\r\n            return MerkleProof.verify(proof, u_root, leaf);\r\n        }else if(user == 0){\r\n            return MerkleProof.verify(proof, d_root, leaf);\r\n        }\r\n    }\r\n}",
  "sourcePath": "D:\\xampp\\htdocs\\metasave\\packages\\metasave-contracts\\contracts\\ZKProof.sol",
  "compiler": {
    "name": "solc",
    "version": "0.8.20+commit.a1b79de6.Emscripten.clang"
  },
  "schemaVersion": "3.4.16",
  "updatedAt": "2024-05-08T03:44:58.790Z",
  "networkType": "ethereum",
  "devdoc": {
    "kind": "dev",
    "methods": {},
    "version": 1
  },
  "userdoc": {
    "kind": "user",
    "methods": {},
    "version": 1
  }
}