{
  "contractName": "MetaSave",
  "abi": [
    {
      "inputs": [],
      "stateMutability": "nonpayable",
      "type": "constructor"
    },
    {
      "inputs": [],
      "name": "AccessControlBadConfirmation",
      "type": "error"
    },
    {
      "inputs": [
        {
          "internalType": "address",
          "name": "account",
          "type": "address"
        },
        {
          "internalType": "bytes32",
          "name": "neededRole",
          "type": "bytes32"
        }
      ],
      "name": "AccessControlUnauthorizedAccount",
      "type": "error"
    },
    {
      "anonymous": false,
      "inputs": [
        {
          "indexed": true,
          "internalType": "bytes32",
          "name": "role",
          "type": "bytes32"
        },
        {
          "indexed": true,
          "internalType": "bytes32",
          "name": "previousAdminRole",
          "type": "bytes32"
        },
        {
          "indexed": true,
          "internalType": "bytes32",
          "name": "newAdminRole",
          "type": "bytes32"
        }
      ],
      "name": "RoleAdminChanged",
      "type": "event"
    },
    {
      "anonymous": false,
      "inputs": [
        {
          "indexed": true,
          "internalType": "bytes32",
          "name": "role",
          "type": "bytes32"
        },
        {
          "indexed": true,
          "internalType": "address",
          "name": "account",
          "type": "address"
        },
        {
          "indexed": true,
          "internalType": "address",
          "name": "sender",
          "type": "address"
        }
      ],
      "name": "RoleGranted",
      "type": "event"
    },
    {
      "anonymous": false,
      "inputs": [
        {
          "indexed": true,
          "internalType": "bytes32",
          "name": "role",
          "type": "bytes32"
        },
        {
          "indexed": true,
          "internalType": "address",
          "name": "account",
          "type": "address"
        },
        {
          "indexed": true,
          "internalType": "address",
          "name": "sender",
          "type": "address"
        }
      ],
      "name": "RoleRevoked",
      "type": "event"
    },
    {
      "inputs": [],
      "name": "DEFAULT_ADMIN_ROLE",
      "outputs": [
        {
          "internalType": "bytes32",
          "name": "",
          "type": "bytes32"
        }
      ],
      "stateMutability": "view",
      "type": "function",
      "constant": true
    },
    {
      "inputs": [],
      "name": "HOSPITAL_ROLE",
      "outputs": [
        {
          "internalType": "bytes32",
          "name": "",
          "type": "bytes32"
        }
      ],
      "stateMutability": "view",
      "type": "function",
      "constant": true
    },
    {
      "inputs": [],
      "name": "USER_ROLE",
      "outputs": [
        {
          "internalType": "bytes32",
          "name": "",
          "type": "bytes32"
        }
      ],
      "stateMutability": "view",
      "type": "function",
      "constant": true
    },
    {
      "inputs": [
        {
          "internalType": "bytes32",
          "name": "role",
          "type": "bytes32"
        }
      ],
      "name": "getRoleAdmin",
      "outputs": [
        {
          "internalType": "bytes32",
          "name": "",
          "type": "bytes32"
        }
      ],
      "stateMutability": "view",
      "type": "function",
      "constant": true
    },
    {
      "inputs": [
        {
          "internalType": "bytes32",
          "name": "role",
          "type": "bytes32"
        },
        {
          "internalType": "address",
          "name": "account",
          "type": "address"
        }
      ],
      "name": "grantRole",
      "outputs": [],
      "stateMutability": "nonpayable",
      "type": "function"
    },
    {
      "inputs": [
        {
          "internalType": "bytes32",
          "name": "role",
          "type": "bytes32"
        },
        {
          "internalType": "address",
          "name": "account",
          "type": "address"
        }
      ],
      "name": "hasRole",
      "outputs": [
        {
          "internalType": "bool",
          "name": "",
          "type": "bool"
        }
      ],
      "stateMutability": "view",
      "type": "function",
      "constant": true
    },
    {
      "inputs": [
        {
          "internalType": "bytes32",
          "name": "role",
          "type": "bytes32"
        },
        {
          "internalType": "address",
          "name": "callerConfirmation",
          "type": "address"
        }
      ],
      "name": "renounceRole",
      "outputs": [],
      "stateMutability": "nonpayable",
      "type": "function"
    },
    {
      "inputs": [
        {
          "internalType": "bytes32",
          "name": "role",
          "type": "bytes32"
        },
        {
          "internalType": "address",
          "name": "account",
          "type": "address"
        }
      ],
      "name": "revokeRole",
      "outputs": [],
      "stateMutability": "nonpayable",
      "type": "function"
    },
    {
      "inputs": [
        {
          "internalType": "bytes4",
          "name": "interfaceId",
          "type": "bytes4"
        }
      ],
      "name": "supportsInterface",
      "outputs": [
        {
          "internalType": "bool",
          "name": "",
          "type": "bool"
        }
      ],
      "stateMutability": "view",
      "type": "function",
      "constant": true
    },
    {
      "inputs": [
        {
          "internalType": "address",
          "name": "account",
          "type": "address"
        }
      ],
      "name": "grantUserRole",
      "outputs": [
        {
          "internalType": "bool",
          "name": "",
          "type": "bool"
        }
      ],
      "stateMutability": "nonpayable",
      "type": "function"
    },
    {
      "inputs": [
        {
          "internalType": "address",
          "name": "account",
          "type": "address"
        }
      ],
      "name": "grantHospitalRole",
      "outputs": [
        {
          "internalType": "bool",
          "name": "",
          "type": "bool"
        }
      ],
      "stateMutability": "nonpayable",
      "type": "function"
    },
    {
      "inputs": [
        {
          "internalType": "address",
          "name": "user_addr",
          "type": "address"
        },
        {
          "internalType": "string",
          "name": "name",
          "type": "string"
        },
        {
          "internalType": "string",
          "name": "id",
          "type": "string"
        },
        {
          "internalType": "string",
          "name": "ip",
          "type": "string"
        },
        {
          "internalType": "string",
          "name": "date",
          "type": "string"
        }
      ],
      "name": "addDevice",
      "outputs": [],
      "stateMutability": "nonpayable",
      "type": "function"
    },
    {
      "inputs": [
        {
          "internalType": "address",
          "name": "user_addr",
          "type": "address"
        }
      ],
      "name": "getDevices",
      "outputs": [
        {
          "components": [
            {
              "internalType": "string",
              "name": "name",
              "type": "string"
            },
            {
              "internalType": "string",
              "name": "id",
              "type": "string"
            },
            {
              "internalType": "string",
              "name": "ip",
              "type": "string"
            },
            {
              "internalType": "string",
              "name": "date",
              "type": "string"
            }
          ],
          "internalType": "struct MetaSave.Device[]",
          "name": "",
          "type": "tuple[]"
        }
      ],
      "stateMutability": "view",
      "type": "function",
      "constant": true
    },
    {
      "inputs": [
        {
          "internalType": "address",
          "name": "owner",
          "type": "address"
        },
        {
          "internalType": "string",
          "name": "deviceId",
          "type": "string"
        }
      ],
      "name": "removeDevice",
      "outputs": [
        {
          "internalType": "bool",
          "name": "",
          "type": "bool"
        }
      ],
      "stateMutability": "nonpayable",
      "type": "function"
    },
    {
      "inputs": [
        {
          "internalType": "address",
          "name": "user_addr",
          "type": "address"
        },
        {
          "internalType": "address",
          "name": "hospital_addr",
          "type": "address"
        }
      ],
      "name": "userSelectHospital",
      "outputs": [],
      "stateMutability": "nonpayable",
      "type": "function"
    },
    {
      "inputs": [
        {
          "internalType": "address",
          "name": "user_addr",
          "type": "address"
        }
      ],
      "name": "getUserHospitals",
      "outputs": [
        {
          "internalType": "address[]",
          "name": "",
          "type": "address[]"
        }
      ],
      "stateMutability": "view",
      "type": "function",
      "constant": true
    },
    {
      "inputs": [
        {
          "internalType": "address",
          "name": "hospital_addr",
          "type": "address"
        }
      ],
      "name": "getHospitalUsers",
      "outputs": [
        {
          "internalType": "address[]",
          "name": "",
          "type": "address[]"
        }
      ],
      "stateMutability": "view",
      "type": "function",
      "constant": true
    },
    {
      "inputs": [
        {
          "internalType": "address",
          "name": "user_addr",
          "type": "address"
        },
        {
          "internalType": "string",
          "name": "ipfsFileName",
          "type": "string"
        }
      ],
      "name": "setIPFSFileName",
      "outputs": [],
      "stateMutability": "nonpayable",
      "type": "function"
    },
    {
      "inputs": [
        {
          "internalType": "address",
          "name": "user_addr",
          "type": "address"
        }
      ],
      "name": "getIPFSFileName",
      "outputs": [
        {
          "internalType": "string",
          "name": "",
          "type": "string"
        }
      ],
      "stateMutability": "view",
      "type": "function",
      "constant": true
    },
    {
      "inputs": [
        {
          "internalType": "address",
          "name": "user_addr",
          "type": "address"
        },
        {
          "internalType": "string",
          "name": "imgIPFSid",
          "type": "string"
        },
        {
          "internalType": "string",
          "name": "dataIPFSid",
          "type": "string"
        }
      ],
      "name": "setFallData",
      "outputs": [],
      "stateMutability": "nonpayable",
      "type": "function"
    },
    {
      "inputs": [
        {
          "internalType": "address",
          "name": "user_addr",
          "type": "address"
        }
      ],
      "name": "getFallData",
      "outputs": [
        {
          "components": [
            {
              "internalType": "string",
              "name": "imgIPFSid",
              "type": "string"
            },
            {
              "internalType": "string",
              "name": "dataIPFSid",
              "type": "string"
            }
          ],
          "internalType": "struct MetaSave.FallData[]",
          "name": "",
          "type": "tuple[]"
        }
      ],
      "stateMutability": "view",
      "type": "function",
      "constant": true
    }
  ],
  "bytecode": "0x608060405273ce927753f89b4482cbd56affee3bf2931418e47160015f6101000a81548173ffffffffffffffffffffffffffffffffffffffff021916908373ffffffffffffffffffffffffffffffffffffffff16021790555034801562000064575f80fd5b506200009a5f801b60015f9054906101000a900473ffffffffffffffffffffffffffffffffffffffff16620000a160201b60201c565b5062000206565b5f620000b483836200019c60201b60201c565b620001925760015f808581526020019081526020015f205f015f8473ffffffffffffffffffffffffffffffffffffffff1673ffffffffffffffffffffffffffffffffffffffff1681526020019081526020015f205f6101000a81548160ff0219169083151502179055506200012e620001ff60201b60201c565b73ffffffffffffffffffffffffffffffffffffffff168273ffffffffffffffffffffffffffffffffffffffff16847f2f8788117e7eff1d82e926ec794901d17c78024a50270940304540a733656f0d60405160405180910390a46001905062000196565b5f90505b92915050565b5f805f8481526020019081526020015f205f015f8373ffffffffffffffffffffffffffffffffffffffff1673ffffffffffffffffffffffffffffffffffffffff1681526020019081526020015f205f9054906101000a900460ff16905092915050565b5f33905090565b612a3180620002145f395ff3fe608060405234801561000f575f80fd5b5060043610610135575f3560e01c806368660e3c116100b657806391d148541161007a57806391d14854146103a7578063a217fddf146103d7578063aca35838146103f5578063b2c9d4b814610411578063d547741f1461042d578063f6ba66781461044957610135565b806368660e3c146102cb578063689dbee5146102fb57806372508ca1146103175780637ee756f21461034757806389537a571461037757610135565b806336568abe116100fd57806336568abe14610203578063417b26e01461021f57806344060fb51461024f5780634c5fa8b81461027f5780634f718ea11461029b57610135565b806301ffc9a7146101395780631311916114610169578063248a9ca3146101875780632ae929a9146101b75780632f2ff15d146101e7575b5f80fd5b610153600480360381019061014e91906119d9565b610467565b6040516101609190611a1e565b60405180910390f35b6101716104e0565b60405161017e9190611a4f565b60405180910390f35b6101a1600480360381019061019c9190611a92565b610504565b6040516101ae9190611a4f565b60405180910390f35b6101d160048036038101906101cc9190611b17565b610520565b6040516101de9190611bf9565b60405180910390f35b61020160048036038101906101fc9190611c19565b61061a565b005b61021d60048036038101906102189190611c19565b61063c565b005b61023960048036038101906102349190611b17565b6106b7565b6040516102469190611e11565b60405180910390f35b61026960048036038101906102649190611f5d565b6109f8565b6040516102769190611a1e565b60405180910390f35b61029960048036038101906102949190611fb7565b610c24565b005b6102b560048036038101906102b09190611b17565b610d04565b6040516102c29190612087565b60405180910390f35b6102e560048036038101906102e09190611b17565b610e4b565b6040516102f29190611a1e565b60405180910390f35b610315600480360381019061031091906120a7565b610e8c565b005b610331600480360381019061032c9190611b17565b61102f565b60405161033e91906121e1565b60405180910390f35b610361600480360381019061035c9190611b17565b611264565b60405161036e9190611a1e565b60405180910390f35b610391600480360381019061038c9190611b17565b6112a5565b60405161039e9190611bf9565b60405180910390f35b6103c160048036038101906103bc9190611c19565b61139f565b6040516103ce9190611a1e565b60405180910390f35b6103df611402565b6040516103ec9190611a4f565b60405180910390f35b61040f600480360381019061040a9190611f5d565b611408565b005b61042b60048036038101906104269190612201565b611489565b005b61044760048036038101906104429190611c19565b6115da565b005b6104516115fc565b60405161045e9190611a4f565b60405180910390f35b5f7f7965db0b000000000000000000000000000000000000000000000000000000007bffffffffffffffffffffffffffffffffffffffffffffffffffffffff1916827bffffffffffffffffffffffffffffffffffffffffffffffffffffffff191614806104d957506104d882611620565b5b9050919050565b7f14823911f2da1b49f045a0929a60b8c1f2a7fc8c06c7284ca3e8ab4e193a08c881565b5f805f8381526020019081526020015f20600101549050919050565b606061054c7fc8f5b4140cca307cd927e59cbeea8291bffeee228fc677f0fa059aef7b4dd8d58361139f565b610554575f80fd5b60055f8373ffffffffffffffffffffffffffffffffffffffff1673ffffffffffffffffffffffffffffffffffffffff1681526020019081526020015f2080548060200260200160405190810160405280929190818152602001828054801561060e57602002820191905f5260205f20905b815f9054906101000a900473ffffffffffffffffffffffffffffffffffffffff1673ffffffffffffffffffffffffffffffffffffffff16815260200190600101908083116105c5575b50505050509050919050565b61062382610504565b61062c81611689565b610636838361169d565b50505050565b610644611786565b73ffffffffffffffffffffffffffffffffffffffff168173ffffffffffffffffffffffffffffffffffffffff16146106a8576040517f6697b23200000000000000000000000000000000000000000000000000000000815260040160405180910390fd5b6106b2828261178d565b505050565b60606106e37f14823911f2da1b49f045a0929a60b8c1f2a7fc8c06c7284ca3e8ab4e193a08c88361139f565b610722576040517f08c379a000000000000000000000000000000000000000000000000000000000815260040161071990612332565b60405180910390fd5b60065f8373ffffffffffffffffffffffffffffffffffffffff1673ffffffffffffffffffffffffffffffffffffffff1681526020019081526020015f20805480602002602001604051908101604052809291908181526020015f905b828210156109ed578382905f5260205f2090600402016040518060800160405290815f820180546107ae9061237d565b80601f01602080910402602001604051908101604052809291908181526020018280546107da9061237d565b80156108255780601f106107fc57610100808354040283529160200191610825565b820191905f5260205f20905b81548152906001019060200180831161080857829003601f168201915b5050505050815260200160018201805461083e9061237d565b80601f016020809104026020016040519081016040528092919081815260200182805461086a9061237d565b80156108b55780601f1061088c576101008083540402835291602001916108b5565b820191905f5260205f20905b81548152906001019060200180831161089857829003601f168201915b505050505081526020016002820180546108ce9061237d565b80601f01602080910402602001604051908101604052809291908181526020018280546108fa9061237d565b80156109455780601f1061091c57610100808354040283529160200191610945565b820191905f5260205f20905b81548152906001019060200180831161092857829003601f168201915b5050505050815260200160038201805461095e9061237d565b80601f016020809104026020016040519081016040528092919081815260200182805461098a9061237d565b80156109d55780601f106109ac576101008083540402835291602001916109d5565b820191905f5260205f20905b8154815290600101906020018083116109b857829003601f168201915b5050505050815250508152602001906001019061077e565b505050509050919050565b5f610a237f14823911f2da1b49f045a0929a60b8c1f2a7fc8c06c7284ca3e8ab4e193a08c88461139f565b610a62576040517f08c379a0000000000000000000000000000000000000000000000000000000008152600401610a5990612332565b60405180910390fd5b5f60065f8573ffffffffffffffffffffffffffffffffffffffff1673ffffffffffffffffffffffffffffffffffffffff1681526020019081526020015f2090505f5b8180549050811015610c18578380519060200120828281548110610acb57610aca6123ad565b5b905f5260205f209060040201600101604051610ae79190612476565b604051809103902003610c05578160018380549050610b0691906124c2565b81548110610b1757610b166123ad565b5b905f5260205f209060040201828281548110610b3657610b356123ad565b5b905f5260205f2090600402015f8201815f019081610b5491906126a7565b5060018201816001019081610b6991906126a7565b5060028201816002019081610b7e91906126a7565b5060038201816003019081610b9391906126a7565b5090505081805480610ba857610ba761278c565b5b600190038181905f5260205f2090600402015f8082015f610bc9919061191b565b600182015f610bd8919061191b565b600282015f610be7919061191b565b600382015f610bf6919061191b565b50509055600192505050610c1e565b8080610c10906127b9565b915050610aa4565b505f9150505b92915050565b610c4e7f14823911f2da1b49f045a0929a60b8c1f2a7fc8c06c7284ca3e8ab4e193a08c88461139f565b610c56575f80fd5b5f604051806040016040528084815260200183815250905060035f8573ffffffffffffffffffffffffffffffffffffffff1673ffffffffffffffffffffffffffffffffffffffff1681526020019081526020015f2081908060018154018082558091505060019003905f5260205f2090600202015f909190919091505f820151815f019081610ce59190612800565b506020820151816001019081610cfb9190612800565b50505050505050565b6060610d307f14823911f2da1b49f045a0929a60b8c1f2a7fc8c06c7284ca3e8ab4e193a08c88361139f565b610d38575f80fd5b610d4182611876565b610d80576040517f08c379a0000000000000000000000000000000000000000000000000000000008152600401610d7790612919565b60405180910390fd5b60025f8373ffffffffffffffffffffffffffffffffffffffff1673ffffffffffffffffffffffffffffffffffffffff1681526020019081526020015f208054610dc89061237d565b80601f0160208091040260200160405190810160405280929190818152602001828054610df49061237d565b8015610e3f5780601f10610e1657610100808354040283529160200191610e3f565b820191905f5260205f20905b815481529060010190602001808311610e2257829003601f168201915b50505050509050919050565b5f805f1b610e5881611689565b610e827f14823911f2da1b49f045a0929a60b8c1f2a7fc8c06c7284ca3e8ab4e193a08c88461061a565b6001915050919050565b610eb67f14823911f2da1b49f045a0929a60b8c1f2a7fc8c06c7284ca3e8ab4e193a08c88361139f565b610ef5576040517f08c379a0000000000000000000000000000000000000000000000000000000008152600401610eec90612332565b60405180910390fd5b60045f8373ffffffffffffffffffffffffffffffffffffffff1673ffffffffffffffffffffffffffffffffffffffff1681526020019081526020015f2081908060018154018082558091505060019003905f5260205f20015f9091909190916101000a81548173ffffffffffffffffffffffffffffffffffffffff021916908373ffffffffffffffffffffffffffffffffffffffff16021790555060055f8273ffffffffffffffffffffffffffffffffffffffff1673ffffffffffffffffffffffffffffffffffffffff1681526020019081526020015f2082908060018154018082558091505060019003905f5260205f20015f9091909190916101000a81548173ffffffffffffffffffffffffffffffffffffffff021916908373ffffffffffffffffffffffffffffffffffffffff1602179055505050565b606061105b7f14823911f2da1b49f045a0929a60b8c1f2a7fc8c06c7284ca3e8ab4e193a08c88361139f565b611063575f80fd5b5f60035f8473ffffffffffffffffffffffffffffffffffffffff1673ffffffffffffffffffffffffffffffffffffffff1681526020019081526020015f2090505f8180549050116110e9576040517f08c379a00000000000000000000000000000000000000000000000000000000081526004016110e0906129a7565b60405180910390fd5b80805480602002602001604051908101604052809291908181526020015f905b82821015611258578382905f5260205f2090600202016040518060400160405290815f820180546111399061237d565b80601f01602080910402602001604051908101604052809291908181526020018280546111659061237d565b80156111b05780601f10611187576101008083540402835291602001916111b0565b820191905f5260205f20905b81548152906001019060200180831161119357829003601f168201915b505050505081526020016001820180546111c99061237d565b80601f01602080910402602001604051908101604052809291908181526020018280546111f59061237d565b80156112405780601f1061121757610100808354040283529160200191611240565b820191905f5260205f20905b81548152906001019060200180831161122357829003601f168201915b50505050508152505081526020019060010190611109565b50505050915050919050565b5f805f1b61127181611689565b61129b7fc8f5b4140cca307cd927e59cbeea8291bffeee228fc677f0fa059aef7b4dd8d58461061a565b6001915050919050565b60606112d17f14823911f2da1b49f045a0929a60b8c1f2a7fc8c06c7284ca3e8ab4e193a08c88361139f565b6112d9575f80fd5b60045f8373ffffffffffffffffffffffffffffffffffffffff1673ffffffffffffffffffffffffffffffffffffffff1681526020019081526020015f2080548060200260200160405190810160405280929190818152602001828054801561139357602002820191905f5260205f20905b815f9054906101000a900473ffffffffffffffffffffffffffffffffffffffff1673ffffffffffffffffffffffffffffffffffffffff168152602001906001019080831161134a575b50505050509050919050565b5f805f8481526020019081526020015f205f015f8373ffffffffffffffffffffffffffffffffffffffff1673ffffffffffffffffffffffffffffffffffffffff1681526020019081526020015f205f9054906101000a900460ff16905092915050565b5f801b81565b6114327f14823911f2da1b49f045a0929a60b8c1f2a7fc8c06c7284ca3e8ab4e193a08c88361139f565b61143a575f80fd5b8060025f8473ffffffffffffffffffffffffffffffffffffffff1673ffffffffffffffffffffffffffffffffffffffff1681526020019081526020015f2090816114849190612800565b505050565b6114b37f14823911f2da1b49f045a0929a60b8c1f2a7fc8c06c7284ca3e8ab4e193a08c88661139f565b6114f2576040517f08c379a00000000000000000000000000000000000000000000000000000000081526004016114e990612332565b60405180910390fd5b5f604051806080016040528086815260200185815260200184815260200183815250905060065f8773ffffffffffffffffffffffffffffffffffffffff1673ffffffffffffffffffffffffffffffffffffffff1681526020019081526020015f2081908060018154018082558091505060019003905f5260205f2090600402015f909190919091505f820151815f01908161158d9190612800565b5060208201518160010190816115a39190612800565b5060408201518160020190816115b99190612800565b5060608201518160030190816115cf9190612800565b505050505050505050565b6115e382610504565b6115ec81611689565b6115f6838361178d565b50505050565b7fc8f5b4140cca307cd927e59cbeea8291bffeee228fc677f0fa059aef7b4dd8d581565b5f7f01ffc9a7000000000000000000000000000000000000000000000000000000007bffffffffffffffffffffffffffffffffffffffffffffffffffffffff1916827bffffffffffffffffffffffffffffffffffffffffffffffffffffffff1916149050919050565b61169a81611695611786565b6118ca565b50565b5f6116a8838361139f565b61177c5760015f808581526020019081526020015f205f015f8473ffffffffffffffffffffffffffffffffffffffff1673ffffffffffffffffffffffffffffffffffffffff1681526020019081526020015f205f6101000a81548160ff021916908315150217905550611719611786565b73ffffffffffffffffffffffffffffffffffffffff168273ffffffffffffffffffffffffffffffffffffffff16847f2f8788117e7eff1d82e926ec794901d17c78024a50270940304540a733656f0d60405160405180910390a460019050611780565b5f90505b92915050565b5f33905090565b5f611798838361139f565b1561186c575f805f8581526020019081526020015f205f015f8473ffffffffffffffffffffffffffffffffffffffff1673ffffffffffffffffffffffffffffffffffffffff1681526020019081526020015f205f6101000a81548160ff021916908315150217905550611809611786565b73ffffffffffffffffffffffffffffffffffffffff168273ffffffffffffffffffffffffffffffffffffffff16847ff6391f5c32d9c69d2a47ea670b442974b53935d1edc7fd64eb21e047a839171b60405160405180910390a460019050611870565b5f90505b92915050565b5f8060025f8473ffffffffffffffffffffffffffffffffffffffff1673ffffffffffffffffffffffffffffffffffffffff1681526020019081526020015f2080546118c09061237d565b9050119050919050565b6118d4828261139f565b6119175780826040517fe2517d3f00000000000000000000000000000000000000000000000000000000815260040161190e9291906129d4565b60405180910390fd5b5050565b5080546119279061237d565b5f825580601f106119385750611955565b601f0160209004905f5260205f20908101906119549190611958565b5b50565b5b8082111561196f575f815f905550600101611959565b5090565b5f604051905090565b5f80fd5b5f80fd5b5f7fffffffff0000000000000000000000000000000000000000000000000000000082169050919050565b6119b881611984565b81146119c2575f80fd5b50565b5f813590506119d3816119af565b92915050565b5f602082840312156119ee576119ed61197c565b5b5f6119fb848285016119c5565b91505092915050565b5f8115159050919050565b611a1881611a04565b82525050565b5f602082019050611a315f830184611a0f565b92915050565b5f819050919050565b611a4981611a37565b82525050565b5f602082019050611a625f830184611a40565b92915050565b611a7181611a37565b8114611a7b575f80fd5b50565b5f81359050611a8c81611a68565b92915050565b5f60208284031215611aa757611aa661197c565b5b5f611ab484828501611a7e565b91505092915050565b5f73ffffffffffffffffffffffffffffffffffffffff82169050919050565b5f611ae682611abd565b9050919050565b611af681611adc565b8114611b00575f80fd5b50565b5f81359050611b1181611aed565b92915050565b5f60208284031215611b2c57611b2b61197c565b5b5f611b3984828501611b03565b91505092915050565b5f81519050919050565b5f82825260208201905092915050565b5f819050602082019050919050565b611b7481611adc565b82525050565b5f611b858383611b6b565b60208301905092915050565b5f602082019050919050565b5f611ba782611b42565b611bb18185611b4c565b9350611bbc83611b5c565b805f5b83811015611bec578151611bd38882611b7a565b9750611bde83611b91565b925050600181019050611bbf565b5085935050505092915050565b5f6020820190508181035f830152611c118184611b9d565b905092915050565b5f8060408385031215611c2f57611c2e61197c565b5b5f611c3c85828601611a7e565b9250506020611c4d85828601611b03565b9150509250929050565b5f81519050919050565b5f82825260208201905092915050565b5f819050602082019050919050565b5f81519050919050565b5f82825260208201905092915050565b5f5b83811015611cb7578082015181840152602081019050611c9c565b5f8484015250505050565b5f601f19601f8301169050919050565b5f611cdc82611c80565b611ce68185611c8a565b9350611cf6818560208601611c9a565b611cff81611cc2565b840191505092915050565b5f608083015f8301518482035f860152611d248282611cd2565b91505060208301518482036020860152611d3e8282611cd2565b91505060408301518482036040860152611d588282611cd2565b91505060608301518482036060860152611d728282611cd2565b9150508091505092915050565b5f611d8a8383611d0a565b905092915050565b5f602082019050919050565b5f611da882611c57565b611db28185611c61565b935083602082028501611dc485611c71565b805f5b85811015611dff5784840389528151611de08582611d7f565b9450611deb83611d92565b925060208a01995050600181019050611dc7565b50829750879550505050505092915050565b5f6020820190508181035f830152611e298184611d9e565b905092915050565b5f80fd5b5f80fd5b7f4e487b71000000000000000000000000000000000000000000000000000000005f52604160045260245ffd5b611e6f82611cc2565b810181811067ffffffffffffffff82111715611e8e57611e8d611e39565b5b80604052505050565b5f611ea0611973565b9050611eac8282611e66565b919050565b5f67ffffffffffffffff821115611ecb57611eca611e39565b5b611ed482611cc2565b9050602081019050919050565b828183375f83830152505050565b5f611f01611efc84611eb1565b611e97565b905082815260208101848484011115611f1d57611f1c611e35565b5b611f28848285611ee1565b509392505050565b5f82601f830112611f4457611f43611e31565b5b8135611f54848260208601611eef565b91505092915050565b5f8060408385031215611f7357611f7261197c565b5b5f611f8085828601611b03565b925050602083013567ffffffffffffffff811115611fa157611fa0611980565b5b611fad85828601611f30565b9150509250929050565b5f805f60608486031215611fce57611fcd61197c565b5b5f611fdb86828701611b03565b935050602084013567ffffffffffffffff811115611ffc57611ffb611980565b5b61200886828701611f30565b925050604084013567ffffffffffffffff81111561202957612028611980565b5b61203586828701611f30565b9150509250925092565b5f82825260208201905092915050565b5f61205982611c80565b612063818561203f565b9350612073818560208601611c9a565b61207c81611cc2565b840191505092915050565b5f6020820190508181035f83015261209f818461204f565b905092915050565b5f80604083850312156120bd576120bc61197c565b5b5f6120ca85828601611b03565b92505060206120db85828601611b03565b9150509250929050565b5f81519050919050565b5f82825260208201905092915050565b5f819050602082019050919050565b5f604083015f8301518482035f8601526121288282611cd2565b915050602083015184820360208601526121428282611cd2565b9150508091505092915050565b5f61215a838361210e565b905092915050565b5f602082019050919050565b5f612178826120e5565b61218281856120ef565b935083602082028501612194856120ff565b805f5b858110156121cf57848403895281516121b0858261214f565b94506121bb83612162565b925060208a01995050600181019050612197565b50829750879550505050505092915050565b5f6020820190508181035f8301526121f9818461216e565b905092915050565b5f805f805f60a0868803121561221a5761221961197c565b5b5f61222788828901611b03565b955050602086013567ffffffffffffffff81111561224857612247611980565b5b61225488828901611f30565b945050604086013567ffffffffffffffff81111561227557612274611980565b5b61228188828901611f30565b935050606086013567ffffffffffffffff8111156122a2576122a1611980565b5b6122ae88828901611f30565b925050608086013567ffffffffffffffff8111156122cf576122ce611980565b5b6122db88828901611f30565b9150509295509295909350565b7f43616c6c6572206973206e6f74206120757365720000000000000000000000005f82015250565b5f61231c60148361203f565b9150612327826122e8565b602082019050919050565b5f6020820190508181035f83015261234981612310565b9050919050565b7f4e487b71000000000000000000000000000000000000000000000000000000005f52602260045260245ffd5b5f600282049050600182168061239457607f821691505b6020821081036123a7576123a6612350565b5b50919050565b7f4e487b71000000000000000000000000000000000000000000000000000000005f52603260045260245ffd5b5f81905092915050565b5f819050815f5260205f209050919050565b5f81546124028161237d565b61240c81866123da565b9450600182165f8114612426576001811461243b5761246d565b60ff198316865281151582028601935061246d565b612444856123e4565b5f5b8381101561246557815481890152600182019150602081019050612446565b838801955050505b50505092915050565b5f61248182846123f6565b915081905092915050565b5f819050919050565b7f4e487b71000000000000000000000000000000000000000000000000000000005f52601160045260245ffd5b5f6124cc8261248c565b91506124d78361248c565b92508282039050818111156124ef576124ee612495565b5b92915050565b5f815490506125038161237d565b9050919050565b5f819050815f5260205f209050919050565b5f6020601f8301049050919050565b5f82821b905092915050565b5f600883026125667fffffffffffffffffffffffffffffffffffffffffffffffffffffffffffffffff8261252b565b612570868361252b565b95508019841693508086168417925050509392505050565b5f819050919050565b5f6125ab6125a66125a18461248c565b612588565b61248c565b9050919050565b5f819050919050565b6125c483612591565b6125d86125d0826125b2565b848454612537565b825550505050565b5f90565b6125ec6125e0565b6125f78184846125bb565b505050565b5b8181101561261a5761260f5f826125e4565b6001810190506125fd565b5050565b601f82111561265f576126308161250a565b6126398461251c565b81016020851015612648578190505b61265c6126548561251c565b8301826125fc565b50505b505050565b5f82821c905092915050565b5f61267f5f1984600802612664565b1980831691505092915050565b5f6126978383612670565b9150826002028217905092915050565b8181036126b557505061278a565b6126be826124f5565b67ffffffffffffffff8111156126d7576126d6611e39565b5b6126e1825461237d565b6126ec82828561261e565b5f601f831160018114612719575f8415612707578287015490505b612711858261268c565b865550612783565b601f1984166127278761250a565b96506127328661250a565b5f5b8281101561275957848901548255600182019150600185019450602081019050612734565b868310156127765784890154612772601f891682612670565b8355505b6001600288020188555050505b5050505050505b565b7f4e487b71000000000000000000000000000000000000000000000000000000005f52603160045260245ffd5b5f6127c38261248c565b91507fffffffffffffffffffffffffffffffffffffffffffffffffffffffffffffffff82036127f5576127f4612495565b5b600182019050919050565b61280982611c80565b67ffffffffffffffff81111561282257612821611e39565b5b61282c825461237d565b61283782828561261e565b5f60209050601f831160018114612868575f8415612856578287015190505b612860858261268c565b8655506128c7565b601f1984166128768661250a565b5f5b8281101561289d57848901518255600182019150602085019450602081019050612878565b868310156128ba57848901516128b6601f891682612670565b8355505b6001600288020188555050505b505050505050565b7f55736572206e6f7420666f756e640000000000000000000000000000000000005f82015250565b5f612903600e8361203f565b915061290e826128cf565b602082019050919050565b5f6020820190508181035f830152612930816128f7565b9050919050565b7f4e6f2066616c6c206461746120666f756e6420666f722074686520676976656e5f8201527f2075736572206164647265737300000000000000000000000000000000000000602082015250565b5f612991602d8361203f565b915061299c82612937565b604082019050919050565b5f6020820190508181035f8301526129be81612985565b9050919050565b6129ce81611adc565b82525050565b5f6040820190506129e75f8301856129c5565b6129f46020830184611a40565b939250505056fea264697066735822122049d31ad74eeb5c71ec05faf16c989b393842a4369f1b4dfcefaeb0674ed170c464736f6c63430008140033",
  "immutableReferences": {},
  "source": "// SPDX-License-Identifier: MIT\r\npragma solidity ^0.8.13;\r\n\r\nimport \"@openzeppelin/contracts/access/AccessControl.sol\";\r\n\r\ncontract MetaSave is AccessControl {\r\n    address private admin = 0xcE927753f89b4482CbD56afFEe3bf2931418e471;\r\n    constructor() {\r\n        _grantRole(DEFAULT_ADMIN_ROLE, admin);\r\n    }\r\n\r\n    struct FallData {\r\n        string imgIPFSid;\r\n        string dataIPFSid;\r\n    }\r\n\r\n    struct Device {\r\n        string name;\r\n        string id;\r\n        string ip;\r\n        string date;\r\n    }\r\n\r\n\tmapping(address => string) private userIPFSMapping;\r\n\tmapping(address => FallData[]) private fallDataMap;\r\n\r\n    mapping(address => address[]) private userHospitalMapping;\r\n    mapping(address => address[]) private hospitalUserMapping;\r\n\r\n    mapping(address => Device[]) private userDeviceMapping;\r\n\r\n    bytes32 public constant USER_ROLE = keccak256(\"USER_ROLE\");\r\n    bytes32 public constant HOSPITAL_ROLE = keccak256(\"HOSPITAL_ROLE\");\r\n\r\n    modifier onlyAdmin() {\r\n        require(hasRole(DEFAULT_ADMIN_ROLE, msg.sender), \"Caller is not an admin\");\r\n        _;\r\n    }\r\n \r\n    function grantUserRole(address account) public onlyRole(DEFAULT_ADMIN_ROLE) returns (bool) { \r\n        grantRole(USER_ROLE, account);\r\n        return true;\r\n    }\r\n\r\n    function grantHospitalRole(address account) public onlyRole(DEFAULT_ADMIN_ROLE) returns (bool) { \r\n        grantRole(HOSPITAL_ROLE, account);\r\n        return true;\r\n    }\r\n\r\n    function addDevice(address user_addr, string memory name, string memory id, string memory ip, string memory date) public {\r\n        require(hasRole(USER_ROLE, user_addr), \"Caller is not a user\");\r\n\r\n        Device memory newDevice = Device({\r\n            name: name,\r\n            id: id,\r\n            ip: ip,\r\n            date: date\r\n        });\r\n\r\n        userDeviceMapping[user_addr].push(newDevice);\r\n    }\r\n\r\n    function getDevices(address user_addr) public view returns (Device[] memory) {\r\n        require(hasRole(USER_ROLE, user_addr), \"Caller is not a user\");\r\n\r\n        return userDeviceMapping[user_addr];\r\n    }\r\n\r\n    function removeDevice(address owner, string memory deviceId) external returns (bool) {\r\n        require(hasRole(USER_ROLE, owner), \"Caller is not a user\");\r\n\r\n        Device[] storage devices = userDeviceMapping[owner];\r\n        for (uint256 i = 0; i < devices.length; i++) {\r\n            if (keccak256(bytes(devices[i].id)) == keccak256(bytes(deviceId))) {\r\n                devices[i] = devices[devices.length - 1];\r\n                devices.pop();\r\n                return true;\r\n            }\r\n        }\r\n        return false;\r\n    }\r\n\r\n    function userSelectHospital(address user_addr, address hospital_addr) public {\r\n        require(hasRole(USER_ROLE, user_addr), \"Caller is not a user\");\r\n\r\n        userHospitalMapping[user_addr].push(hospital_addr);\r\n        hospitalUserMapping[hospital_addr].push(user_addr);\r\n    }\r\n\r\n    function getUserHospitals(address user_addr) public view returns (address[] memory) {\r\n        require(hasRole(USER_ROLE, user_addr));\r\n\r\n        return userHospitalMapping[user_addr];\r\n    }\r\n\r\n    function getHospitalUsers(address hospital_addr) public view returns (address[] memory) {\r\n        require(hasRole(HOSPITAL_ROLE, hospital_addr));\r\n\r\n        return hospitalUserMapping[hospital_addr];\r\n    }\r\n\r\n    function setIPFSFileName(address user_addr, string memory ipfsFileName) public {\r\n        require(hasRole(USER_ROLE, user_addr));\r\n\r\n        userIPFSMapping[user_addr] = ipfsFileName;\r\n    }\r\n\r\n    function getIPFSFileName(address user_addr) public view returns (string memory) {\r\n        require(hasRole(USER_ROLE, user_addr));\r\n\r\n        require(userExists(user_addr), \"User not found\");\r\n\r\n        return userIPFSMapping[user_addr];\r\n    }\r\n\r\n    function userExists(address user_addr) internal view returns (bool) {\r\n        return bytes(userIPFSMapping[user_addr]).length > 0;\r\n    }\r\n\r\n    function setFallData(address user_addr, string memory imgIPFSid, string memory dataIPFSid) public {\r\n        require(hasRole(USER_ROLE, user_addr));\r\n\r\n        FallData memory newFallData = FallData(imgIPFSid, dataIPFSid);\r\n        fallDataMap[user_addr].push(newFallData);\r\n    }\r\n\r\n    function getFallData(address user_addr) public view returns (FallData[] memory) {\r\n        require(hasRole(USER_ROLE, user_addr));\r\n        \r\n        FallData[] storage fallData = fallDataMap[user_addr];\r\n        require(fallData.length > 0, \"No fall data found for the given user address\");\r\n        return fallData;\r\n    }\r\n}\r\n",
  "sourcePath": "D:\\xampp\\htdocs\\metasave\\packages\\metasave-contracts\\contracts\\MetaSave.sol",
  "compiler": {
    "name": "solc",
    "version": "0.8.20+commit.a1b79de6.Emscripten.clang"
  },
  "schemaVersion": "3.4.16",
  "updatedAt": "2024-05-08T03:44:14.047Z",
  "networkType": "ethereum",
  "devdoc": {
    "errors": {
      "AccessControlBadConfirmation()": [
        {
          "details": "The caller of a function is not the expected one. NOTE: Don't confuse with {AccessControlUnauthorizedAccount}."
        }
      ],
      "AccessControlUnauthorizedAccount(address,bytes32)": [
        {
          "details": "The `account` is missing a role."
        }
      ]
    },
    "events": {
      "RoleAdminChanged(bytes32,bytes32,bytes32)": {
        "details": "Emitted when `newAdminRole` is set as ``role``'s admin role, replacing `previousAdminRole` `DEFAULT_ADMIN_ROLE` is the starting admin for all roles, despite {RoleAdminChanged} not being emitted signaling this."
      },
      "RoleGranted(bytes32,address,address)": {
        "details": "Emitted when `account` is granted `role`. `sender` is the account that originated the contract call, an admin role bearer except when using {AccessControl-_setupRole}."
      },
      "RoleRevoked(bytes32,address,address)": {
        "details": "Emitted when `account` is revoked `role`. `sender` is the account that originated the contract call:   - if using `revokeRole`, it is the admin role bearer   - if using `renounceRole`, it is the role bearer (i.e. `account`)"
      }
    },
    "kind": "dev",
    "methods": {
      "getRoleAdmin(bytes32)": {
        "details": "Returns the admin role that controls `role`. See {grantRole} and {revokeRole}. To change a role's admin, use {_setRoleAdmin}."
      },
      "grantRole(bytes32,address)": {
        "details": "Grants `role` to `account`. If `account` had not been already granted `role`, emits a {RoleGranted} event. Requirements: - the caller must have ``role``'s admin role. May emit a {RoleGranted} event."
      },
      "hasRole(bytes32,address)": {
        "details": "Returns `true` if `account` has been granted `role`."
      },
      "renounceRole(bytes32,address)": {
        "details": "Revokes `role` from the calling account. Roles are often managed via {grantRole} and {revokeRole}: this function's purpose is to provide a mechanism for accounts to lose their privileges if they are compromised (such as when a trusted device is misplaced). If the calling account had been revoked `role`, emits a {RoleRevoked} event. Requirements: - the caller must be `callerConfirmation`. May emit a {RoleRevoked} event."
      },
      "revokeRole(bytes32,address)": {
        "details": "Revokes `role` from `account`. If `account` had been granted `role`, emits a {RoleRevoked} event. Requirements: - the caller must have ``role``'s admin role. May emit a {RoleRevoked} event."
      },
      "supportsInterface(bytes4)": {
        "details": "See {IERC165-supportsInterface}."
      }
    },
    "version": 1
  },
  "userdoc": {
    "kind": "user",
    "methods": {},
    "version": 1
  }
}