{
  "contractName": "MetaSave",
  "abi": [
    {
      "inputs": [],
      "name": "AccessControlBadConfirmation",
      "type": "error"
    },
    {
      "inputs": [
        {
          "internalType": "address",
          "name": "account",
          "type": "address"
        },
        {
          "internalType": "bytes32",
          "name": "neededRole",
          "type": "bytes32"
        }
      ],
      "name": "AccessControlUnauthorizedAccount",
      "type": "error"
    },
    {
      "anonymous": false,
      "inputs": [
        {
          "indexed": true,
          "internalType": "bytes32",
          "name": "role",
          "type": "bytes32"
        },
        {
          "indexed": true,
          "internalType": "bytes32",
          "name": "previousAdminRole",
          "type": "bytes32"
        },
        {
          "indexed": true,
          "internalType": "bytes32",
          "name": "newAdminRole",
          "type": "bytes32"
        }
      ],
      "name": "RoleAdminChanged",
      "type": "event"
    },
    {
      "anonymous": false,
      "inputs": [
        {
          "indexed": true,
          "internalType": "bytes32",
          "name": "role",
          "type": "bytes32"
        },
        {
          "indexed": true,
          "internalType": "address",
          "name": "account",
          "type": "address"
        },
        {
          "indexed": true,
          "internalType": "address",
          "name": "sender",
          "type": "address"
        }
      ],
      "name": "RoleGranted",
      "type": "event"
    },
    {
      "anonymous": false,
      "inputs": [
        {
          "indexed": true,
          "internalType": "bytes32",
          "name": "role",
          "type": "bytes32"
        },
        {
          "indexed": true,
          "internalType": "address",
          "name": "account",
          "type": "address"
        },
        {
          "indexed": true,
          "internalType": "address",
          "name": "sender",
          "type": "address"
        }
      ],
      "name": "RoleRevoked",
      "type": "event"
    },
    {
      "inputs": [],
      "name": "DEFAULT_ADMIN_ROLE",
      "outputs": [
        {
          "internalType": "bytes32",
          "name": "",
          "type": "bytes32"
        }
      ],
      "stateMutability": "view",
      "type": "function",
      "constant": true
    },
    {
      "inputs": [],
      "name": "HOSPITAL_ROLE",
      "outputs": [
        {
          "internalType": "bytes32",
          "name": "",
          "type": "bytes32"
        }
      ],
      "stateMutability": "view",
      "type": "function",
      "constant": true
    },
    {
      "inputs": [],
      "name": "USER_ROLE",
      "outputs": [
        {
          "internalType": "bytes32",
          "name": "",
          "type": "bytes32"
        }
      ],
      "stateMutability": "view",
      "type": "function",
      "constant": true
    },
    {
      "inputs": [
        {
          "internalType": "bytes32",
          "name": "role",
          "type": "bytes32"
        }
      ],
      "name": "getRoleAdmin",
      "outputs": [
        {
          "internalType": "bytes32",
          "name": "",
          "type": "bytes32"
        }
      ],
      "stateMutability": "view",
      "type": "function",
      "constant": true
    },
    {
      "inputs": [
        {
          "internalType": "bytes32",
          "name": "role",
          "type": "bytes32"
        },
        {
          "internalType": "address",
          "name": "account",
          "type": "address"
        }
      ],
      "name": "grantRole",
      "outputs": [],
      "stateMutability": "nonpayable",
      "type": "function"
    },
    {
      "inputs": [
        {
          "internalType": "bytes32",
          "name": "role",
          "type": "bytes32"
        },
        {
          "internalType": "address",
          "name": "account",
          "type": "address"
        }
      ],
      "name": "hasRole",
      "outputs": [
        {
          "internalType": "bool",
          "name": "",
          "type": "bool"
        }
      ],
      "stateMutability": "view",
      "type": "function",
      "constant": true
    },
    {
      "inputs": [
        {
          "internalType": "bytes32",
          "name": "role",
          "type": "bytes32"
        },
        {
          "internalType": "address",
          "name": "callerConfirmation",
          "type": "address"
        }
      ],
      "name": "renounceRole",
      "outputs": [],
      "stateMutability": "nonpayable",
      "type": "function"
    },
    {
      "inputs": [
        {
          "internalType": "bytes32",
          "name": "role",
          "type": "bytes32"
        },
        {
          "internalType": "address",
          "name": "account",
          "type": "address"
        }
      ],
      "name": "revokeRole",
      "outputs": [],
      "stateMutability": "nonpayable",
      "type": "function"
    },
    {
      "inputs": [
        {
          "internalType": "bytes4",
          "name": "interfaceId",
          "type": "bytes4"
        }
      ],
      "name": "supportsInterface",
      "outputs": [
        {
          "internalType": "bool",
          "name": "",
          "type": "bool"
        }
      ],
      "stateMutability": "view",
      "type": "function",
      "constant": true
    },
    {
      "inputs": [],
      "name": "userSignUp",
      "outputs": [
        {
          "internalType": "bool",
          "name": "",
          "type": "bool"
        }
      ],
      "stateMutability": "nonpayable",
      "type": "function"
    },
    {
      "inputs": [],
      "name": "hospitalSignUp",
      "outputs": [
        {
          "internalType": "bool",
          "name": "",
          "type": "bool"
        }
      ],
      "stateMutability": "nonpayable",
      "type": "function"
    },
    {
      "inputs": [
        {
          "internalType": "address",
          "name": "user_addr",
          "type": "address"
        },
        {
          "internalType": "address",
          "name": "device_addr",
          "type": "address"
        }
      ],
      "name": "addDevice",
      "outputs": [],
      "stateMutability": "nonpayable",
      "type": "function"
    },
    {
      "inputs": [
        {
          "internalType": "address",
          "name": "user_addr",
          "type": "address"
        }
      ],
      "name": "getDevices",
      "outputs": [
        {
          "internalType": "address[]",
          "name": "",
          "type": "address[]"
        }
      ],
      "stateMutability": "view",
      "type": "function",
      "constant": true
    },
    {
      "inputs": [
        {
          "internalType": "address",
          "name": "user_addr",
          "type": "address"
        },
        {
          "internalType": "address",
          "name": "hospital_addr",
          "type": "address"
        }
      ],
      "name": "userSelectHospital",
      "outputs": [],
      "stateMutability": "nonpayable",
      "type": "function"
    },
    {
      "inputs": [
        {
          "internalType": "address",
          "name": "user_addr",
          "type": "address"
        }
      ],
      "name": "getUserHospitals",
      "outputs": [
        {
          "internalType": "address[]",
          "name": "",
          "type": "address[]"
        }
      ],
      "stateMutability": "view",
      "type": "function",
      "constant": true
    },
    {
      "inputs": [
        {
          "internalType": "address",
          "name": "hospital_addr",
          "type": "address"
        }
      ],
      "name": "getHospitalUsers",
      "outputs": [
        {
          "internalType": "address[]",
          "name": "",
          "type": "address[]"
        }
      ],
      "stateMutability": "view",
      "type": "function",
      "constant": true
    },
    {
      "inputs": [
        {
          "internalType": "address",
          "name": "user_addr",
          "type": "address"
        },
        {
          "internalType": "string",
          "name": "ipfsFileName",
          "type": "string"
        }
      ],
      "name": "setIPFSFileName",
      "outputs": [],
      "stateMutability": "nonpayable",
      "type": "function"
    },
    {
      "inputs": [
        {
          "internalType": "address",
          "name": "user_addr",
          "type": "address"
        }
      ],
      "name": "getIPFSFileName",
      "outputs": [
        {
          "internalType": "string",
          "name": "",
          "type": "string"
        }
      ],
      "stateMutability": "view",
      "type": "function",
      "constant": true
    },
    {
      "inputs": [
        {
          "internalType": "address",
          "name": "user_addr",
          "type": "address"
        },
        {
          "internalType": "string",
          "name": "imgIPFSid",
          "type": "string"
        },
        {
          "internalType": "string",
          "name": "dataIPFSid",
          "type": "string"
        }
      ],
      "name": "setFallData",
      "outputs": [],
      "stateMutability": "nonpayable",
      "type": "function"
    },
    {
      "inputs": [
        {
          "internalType": "address",
          "name": "user_addr",
          "type": "address"
        }
      ],
      "name": "getFallData",
      "outputs": [
        {
          "components": [
            {
              "internalType": "string",
              "name": "imgIPFSid",
              "type": "string"
            },
            {
              "internalType": "string",
              "name": "dataIPFSid",
              "type": "string"
            }
          ],
          "internalType": "struct MetaSave.FallData[]",
          "name": "",
          "type": "tuple[]"
        }
      ],
      "stateMutability": "view",
      "type": "function",
      "constant": true
    }
  ],
  "bytecode": "0x608060405234801561000f575f80fd5b50611cd08061001d5f395ff3fe608060405234801561000f575f80fd5b506004361061012a575f3560e01c806372508ca1116100ab578063a217fddf1161006f578063a217fddf14610376578063aca3583814610394578063d547741f146103b0578063dd4426c2146103cc578063f6ba6678146103ea5761012a565b806372508ca1146102ac5780637fe5995f146102dc57806381379913146102fa57806389537a571461031657806391d14854146103465761012a565b806336568abe116100f257806336568abe146101f8578063417b26e0146102145780634c5fa8b8146102445780634f718ea114610260578063689dbee5146102905761012a565b806301ffc9a71461012e578063131191611461015e578063248a9ca31461017c5780632ae929a9146101ac5780632f2ff15d146101dc575b5f80fd5b610148600480360381019061014391906111c4565b610408565b6040516101559190611209565b60405180910390f35b610166610481565b604051610173919061123a565b60405180910390f35b6101966004803603810190610191919061127d565b6104a5565b6040516101a3919061123a565b60405180910390f35b6101c660048036038101906101c19190611302565b6104c1565b6040516101d391906113e4565b60405180910390f35b6101f660048036038101906101f19190611404565b610589565b005b610212600480360381019061020d9190611404565b6105ab565b005b61022e60048036038101906102299190611302565b610626565b60405161023b91906113e4565b60405180910390f35b61025e6004803603810190610259919061157e565b6106ee565b005b61027a60048036038101906102759190611302565b61079c565b6040516102879190611680565b60405180910390f35b6102aa60048036038101906102a591906116a0565b6108b1565b005b6102c660048036038101906102c19190611302565b6109eb565b6040516102d39190611822565b60405180910390f35b6102e4610bee565b6040516102f19190611209565b60405180910390f35b610314600480360381019061030f91906116a0565b610bf6565b005b610330600480360381019061032b9190611302565b610c95565b60405161033d91906113e4565b60405180910390f35b610360600480360381019061035b9190611404565b610d5d565b60405161036d9190611209565b60405180910390f35b61037e610dc0565b60405161038b919061123a565b60405180910390f35b6103ae60048036038101906103a99190611842565b610dc6565b005b6103ca60048036038101906103c59190611404565b610e15565b005b6103d4610e37565b6040516103e19190611209565b60405180910390f35b6103f2610e3f565b6040516103ff919061123a565b60405180910390f35b5f7f7965db0b000000000000000000000000000000000000000000000000000000007bffffffffffffffffffffffffffffffffffffffffffffffffffffffff1916827bffffffffffffffffffffffffffffffffffffffffffffffffffffffff1916148061047a575061047982610e63565b5b9050919050565b7f14823911f2da1b49f045a0929a60b8c1f2a7fc8c06c7284ca3e8ab4e193a08c881565b5f805f8381526020019081526020015f20600101549050919050565b606060045f8373ffffffffffffffffffffffffffffffffffffffff1673ffffffffffffffffffffffffffffffffffffffff1681526020019081526020015f2080548060200260200160405190810160405280929190818152602001828054801561057d57602002820191905f5260205f20905b815f9054906101000a900473ffffffffffffffffffffffffffffffffffffffff1673ffffffffffffffffffffffffffffffffffffffff1681526020019060010190808311610534575b50505050509050919050565b610592826104a5565b61059b81610ecc565b6105a58383610ee0565b50505050565b6105b3610fc9565b73ffffffffffffffffffffffffffffffffffffffff168173ffffffffffffffffffffffffffffffffffffffff1614610617576040517f6697b23200000000000000000000000000000000000000000000000000000000815260040160405180910390fd5b6106218282610fd0565b505050565b606060055f8373ffffffffffffffffffffffffffffffffffffffff1673ffffffffffffffffffffffffffffffffffffffff1681526020019081526020015f208054806020026020016040519081016040528092919081815260200182805480156106e257602002820191905f5260205f20905b815f9054906101000a900473ffffffffffffffffffffffffffffffffffffffff1673ffffffffffffffffffffffffffffffffffffffff1681526020019060010190808311610699575b50505050509050919050565b5f604051806040016040528084815260200183815250905060025f8573ffffffffffffffffffffffffffffffffffffffff1673ffffffffffffffffffffffffffffffffffffffff1681526020019081526020015f2081908060018154018082558091505060019003905f5260205f2090600202015f909190919091505f820151815f01908161077d9190611a9f565b5060208201518160010190816107939190611a9f565b50505050505050565b60606107a7826110b9565b6107e6576040517f08c379a00000000000000000000000000000000000000000000000000000000081526004016107dd90611bb8565b60405180910390fd5b60015f8373ffffffffffffffffffffffffffffffffffffffff1673ffffffffffffffffffffffffffffffffffffffff1681526020019081526020015f20805461082e906118c9565b80601f016020809104026020016040519081016040528092919081815260200182805461085a906118c9565b80156108a55780601f1061087c576101008083540402835291602001916108a5565b820191905f5260205f20905b81548152906001019060200180831161088857829003601f168201915b50505050509050919050565b60035f8373ffffffffffffffffffffffffffffffffffffffff1673ffffffffffffffffffffffffffffffffffffffff1681526020019081526020015f2081908060018154018082558091505060019003905f5260205f20015f9091909190916101000a81548173ffffffffffffffffffffffffffffffffffffffff021916908373ffffffffffffffffffffffffffffffffffffffff16021790555060045f8273ffffffffffffffffffffffffffffffffffffffff1673ffffffffffffffffffffffffffffffffffffffff1681526020019081526020015f2082908060018154018082558091505060019003905f5260205f20015f9091909190916101000a81548173ffffffffffffffffffffffffffffffffffffffff021916908373ffffffffffffffffffffffffffffffffffffffff1602179055505050565b60605f60025f8473ffffffffffffffffffffffffffffffffffffffff1673ffffffffffffffffffffffffffffffffffffffff1681526020019081526020015f2090505f818054905011610a73576040517f08c379a0000000000000000000000000000000000000000000000000000000008152600401610a6a90611c46565b60405180910390fd5b80805480602002602001604051908101604052809291908181526020015f905b82821015610be2578382905f5260205f2090600202016040518060400160405290815f82018054610ac3906118c9565b80601f0160208091040260200160405190810160405280929190818152602001828054610aef906118c9565b8015610b3a5780601f10610b1157610100808354040283529160200191610b3a565b820191905f5260205f20905b815481529060010190602001808311610b1d57829003601f168201915b50505050508152602001600182018054610b53906118c9565b80601f0160208091040260200160405190810160405280929190818152602001828054610b7f906118c9565b8015610bca5780601f10610ba157610100808354040283529160200191610bca565b820191905f5260205f20905b815481529060010190602001808311610bad57829003601f168201915b50505050508152505081526020019060010190610a93565b50505050915050919050565b5f6001905090565b60055f8373ffffffffffffffffffffffffffffffffffffffff1673ffffffffffffffffffffffffffffffffffffffff1681526020019081526020015f2081908060018154018082558091505060019003905f5260205f20015f9091909190916101000a81548173ffffffffffffffffffffffffffffffffffffffff021916908373ffffffffffffffffffffffffffffffffffffffff1602179055505050565b606060035f8373ffffffffffffffffffffffffffffffffffffffff1673ffffffffffffffffffffffffffffffffffffffff1681526020019081526020015f20805480602002602001604051908101604052809291908181526020018280548015610d5157602002820191905f5260205f20905b815f9054906101000a900473ffffffffffffffffffffffffffffffffffffffff1673ffffffffffffffffffffffffffffffffffffffff1681526020019060010190808311610d08575b50505050509050919050565b5f805f8481526020019081526020015f205f015f8373ffffffffffffffffffffffffffffffffffffffff1673ffffffffffffffffffffffffffffffffffffffff1681526020019081526020015f205f9054906101000a900460ff16905092915050565b5f801b81565b8060015f8473ffffffffffffffffffffffffffffffffffffffff1673ffffffffffffffffffffffffffffffffffffffff1681526020019081526020015f209081610e109190611a9f565b505050565b610e1e826104a5565b610e2781610ecc565b610e318383610fd0565b50505050565b5f6001905090565b7fc8f5b4140cca307cd927e59cbeea8291bffeee228fc677f0fa059aef7b4dd8d581565b5f7f01ffc9a7000000000000000000000000000000000000000000000000000000007bffffffffffffffffffffffffffffffffffffffffffffffffffffffff1916827bffffffffffffffffffffffffffffffffffffffffffffffffffffffff1916149050919050565b610edd81610ed8610fc9565b61110d565b50565b5f610eeb8383610d5d565b610fbf5760015f808581526020019081526020015f205f015f8473ffffffffffffffffffffffffffffffffffffffff1673ffffffffffffffffffffffffffffffffffffffff1681526020019081526020015f205f6101000a81548160ff021916908315150217905550610f5c610fc9565b73ffffffffffffffffffffffffffffffffffffffff168273ffffffffffffffffffffffffffffffffffffffff16847f2f8788117e7eff1d82e926ec794901d17c78024a50270940304540a733656f0d60405160405180910390a460019050610fc3565b5f90505b92915050565b5f33905090565b5f610fdb8383610d5d565b156110af575f805f8581526020019081526020015f205f015f8473ffffffffffffffffffffffffffffffffffffffff1673ffffffffffffffffffffffffffffffffffffffff1681526020019081526020015f205f6101000a81548160ff02191690831515021790555061104c610fc9565b73ffffffffffffffffffffffffffffffffffffffff168273ffffffffffffffffffffffffffffffffffffffff16847ff6391f5c32d9c69d2a47ea670b442974b53935d1edc7fd64eb21e047a839171b60405160405180910390a4600190506110b3565b5f90505b92915050565b5f8060015f8473ffffffffffffffffffffffffffffffffffffffff1673ffffffffffffffffffffffffffffffffffffffff1681526020019081526020015f208054611103906118c9565b9050119050919050565b6111178282610d5d565b61115a5780826040517fe2517d3f000000000000000000000000000000000000000000000000000000008152600401611151929190611c73565b60405180910390fd5b5050565b5f604051905090565b5f80fd5b5f80fd5b5f7fffffffff0000000000000000000000000000000000000000000000000000000082169050919050565b6111a38161116f565b81146111ad575f80fd5b50565b5f813590506111be8161119a565b92915050565b5f602082840312156111d9576111d8611167565b5b5f6111e6848285016111b0565b91505092915050565b5f8115159050919050565b611203816111ef565b82525050565b5f60208201905061121c5f8301846111fa565b92915050565b5f819050919050565b61123481611222565b82525050565b5f60208201905061124d5f83018461122b565b92915050565b61125c81611222565b8114611266575f80fd5b50565b5f8135905061127781611253565b92915050565b5f6020828403121561129257611291611167565b5b5f61129f84828501611269565b91505092915050565b5f73ffffffffffffffffffffffffffffffffffffffff82169050919050565b5f6112d1826112a8565b9050919050565b6112e1816112c7565b81146112eb575f80fd5b50565b5f813590506112fc816112d8565b92915050565b5f6020828403121561131757611316611167565b5b5f611324848285016112ee565b91505092915050565b5f81519050919050565b5f82825260208201905092915050565b5f819050602082019050919050565b61135f816112c7565b82525050565b5f6113708383611356565b60208301905092915050565b5f602082019050919050565b5f6113928261132d565b61139c8185611337565b93506113a783611347565b805f5b838110156113d75781516113be8882611365565b97506113c98361137c565b9250506001810190506113aa565b5085935050505092915050565b5f6020820190508181035f8301526113fc8184611388565b905092915050565b5f806040838503121561141a57611419611167565b5b5f61142785828601611269565b9250506020611438858286016112ee565b9150509250929050565b5f80fd5b5f80fd5b5f601f19601f8301169050919050565b7f4e487b71000000000000000000000000000000000000000000000000000000005f52604160045260245ffd5b6114908261144a565b810181811067ffffffffffffffff821117156114af576114ae61145a565b5b80604052505050565b5f6114c161115e565b90506114cd8282611487565b919050565b5f67ffffffffffffffff8211156114ec576114eb61145a565b5b6114f58261144a565b9050602081019050919050565b828183375f83830152505050565b5f61152261151d846114d2565b6114b8565b90508281526020810184848401111561153e5761153d611446565b5b611549848285611502565b509392505050565b5f82601f83011261156557611564611442565b5b8135611575848260208601611510565b91505092915050565b5f805f6060848603121561159557611594611167565b5b5f6115a2868287016112ee565b935050602084013567ffffffffffffffff8111156115c3576115c261116b565b5b6115cf86828701611551565b925050604084013567ffffffffffffffff8111156115f0576115ef61116b565b5b6115fc86828701611551565b9150509250925092565b5f81519050919050565b5f82825260208201905092915050565b5f5b8381101561163d578082015181840152602081019050611622565b5f8484015250505050565b5f61165282611606565b61165c8185611610565b935061166c818560208601611620565b6116758161144a565b840191505092915050565b5f6020820190508181035f8301526116988184611648565b905092915050565b5f80604083850312156116b6576116b5611167565b5b5f6116c3858286016112ee565b92505060206116d4858286016112ee565b9150509250929050565b5f81519050919050565b5f82825260208201905092915050565b5f819050602082019050919050565b5f82825260208201905092915050565b5f61172182611606565b61172b8185611707565b935061173b818560208601611620565b6117448161144a565b840191505092915050565b5f604083015f8301518482035f8601526117698282611717565b915050602083015184820360208601526117838282611717565b9150508091505092915050565b5f61179b838361174f565b905092915050565b5f602082019050919050565b5f6117b9826116de565b6117c381856116e8565b9350836020820285016117d5856116f8565b805f5b8581101561181057848403895281516117f18582611790565b94506117fc836117a3565b925060208a019950506001810190506117d8565b50829750879550505050505092915050565b5f6020820190508181035f83015261183a81846117af565b905092915050565b5f806040838503121561185857611857611167565b5b5f611865858286016112ee565b925050602083013567ffffffffffffffff8111156118865761188561116b565b5b61189285828601611551565b9150509250929050565b7f4e487b71000000000000000000000000000000000000000000000000000000005f52602260045260245ffd5b5f60028204905060018216806118e057607f821691505b6020821081036118f3576118f261189c565b5b50919050565b5f819050815f5260205f209050919050565b5f6020601f8301049050919050565b5f82821b905092915050565b5f600883026119557fffffffffffffffffffffffffffffffffffffffffffffffffffffffffffffffff8261191a565b61195f868361191a565b95508019841693508086168417925050509392505050565b5f819050919050565b5f819050919050565b5f6119a361199e61199984611977565b611980565b611977565b9050919050565b5f819050919050565b6119bc83611989565b6119d06119c8826119aa565b848454611926565b825550505050565b5f90565b6119e46119d8565b6119ef8184846119b3565b505050565b5b81811015611a1257611a075f826119dc565b6001810190506119f5565b5050565b601f821115611a5757611a28816118f9565b611a318461190b565b81016020851015611a40578190505b611a54611a4c8561190b565b8301826119f4565b50505b505050565b5f82821c905092915050565b5f611a775f1984600802611a5c565b1980831691505092915050565b5f611a8f8383611a68565b9150826002028217905092915050565b611aa882611606565b67ffffffffffffffff811115611ac157611ac061145a565b5b611acb82546118c9565b611ad6828285611a16565b5f60209050601f831160018114611b07575f8415611af5578287015190505b611aff8582611a84565b865550611b66565b601f198416611b15866118f9565b5f5b82811015611b3c57848901518255600182019150602085019450602081019050611b17565b86831015611b595784890151611b55601f891682611a68565b8355505b6001600288020188555050505b505050505050565b7f55736572206e6f7420666f756e640000000000000000000000000000000000005f82015250565b5f611ba2600e83611610565b9150611bad82611b6e565b602082019050919050565b5f6020820190508181035f830152611bcf81611b96565b9050919050565b7f4e6f2066616c6c206461746120666f756e6420666f722074686520676976656e5f8201527f2075736572206164647265737300000000000000000000000000000000000000602082015250565b5f611c30602d83611610565b9150611c3b82611bd6565b604082019050919050565b5f6020820190508181035f830152611c5d81611c24565b9050919050565b611c6d816112c7565b82525050565b5f604082019050611c865f830185611c64565b611c93602083018461122b565b939250505056fea26469706673582212203a422c71976f38aa7041de850ea6966febfb34369fc7262b6e86206e2f3f950a64736f6c63430008140033",
  "immutableReferences": {},
  "source": "// SPDX-License-Identifier: MIT\r\npragma solidity ^0.8.13;\r\n\r\nimport \"@openzeppelin/contracts/access/AccessControl.sol\";\r\n\r\ncontract MetaSave is AccessControl {\r\n    struct FallData {\r\n        string imgIPFSid;\r\n        string dataIPFSid;\r\n    }\r\n\r\n\tmapping(address => string) private userIPFSMapping;\r\n\tmapping(address => FallData[]) private fallDataMap;\r\n\r\n    mapping(address => address[]) private userHospitalMapping;\r\n    mapping(address => address[]) private hospitalUserMapping;\r\n\r\n    mapping(address => address[]) private userDeviceMapping;\r\n\r\n    bytes32 public constant USER_ROLE = keccak256(\"USER_ROLE\");\r\n    bytes32 public constant HOSPITAL_ROLE = keccak256(\"HOSPITAL_ROLE\");\r\n \r\n    function userSignUp() public returns (bool) {\r\n        // grantRole(USER_ROLE, msg.sender);\r\n        return true;\r\n    }\r\n\r\n    function hospitalSignUp() public returns (bool) {\r\n        // grantRole(HOSPITAL_ROLE, msg.sender);\r\n        return true;\r\n    }\r\n\r\n    function addDevice(address user_addr, address device_addr) public {\r\n        // require(hasRole(USER_ROLE, msg.sender), \"Caller is not a user\");\r\n\r\n        userDeviceMapping[user_addr].push(device_addr);\r\n    }\r\n\r\n    function getDevices(address user_addr) public view returns (address[] memory) {\r\n        // require(hasRole(USER_ROLE, msg.sender));\r\n        return userDeviceMapping[user_addr];\r\n    }\r\n\r\n    function userSelectHospital(address user_addr, address hospital_addr) public {\r\n        // require(hasRole(USER_ROLE, msg.sender), \"Caller is not a user\");\r\n\r\n        userHospitalMapping[user_addr].push(hospital_addr);\r\n        hospitalUserMapping[hospital_addr].push(user_addr);\r\n    }\r\n\r\n    function getUserHospitals(address user_addr) public view returns (address[] memory) {\r\n        // require(hasRole(USER_ROLE, msg.sender));\r\n        return userHospitalMapping[user_addr];\r\n    }\r\n\r\n    function getHospitalUsers(address hospital_addr) public view returns (address[] memory) {\r\n        // require(hasRole(HOSPITAL_ROLE, msg.sender));\r\n        return hospitalUserMapping[hospital_addr];\r\n    }\r\n\r\n    function setIPFSFileName(address user_addr, string memory ipfsFileName) public {\r\n        // require(hasRole(USER_ROLE, msg.sender));\r\n\r\n        userIPFSMapping[user_addr] = ipfsFileName;\r\n    }\r\n\r\n    function getIPFSFileName(address user_addr) public view returns (string memory) {\r\n        // require(hasRole(USER_ROLE, msg.sender));\r\n\r\n        require(userExists(user_addr), \"User not found\");\r\n\r\n        return userIPFSMapping[user_addr];\r\n    }\r\n\r\n    function userExists(address user_addr) internal view returns (bool) {\r\n        return bytes(userIPFSMapping[user_addr]).length > 0;\r\n    }\r\n\r\n    function setFallData(address user_addr, string memory imgIPFSid, string memory dataIPFSid) public {\r\n        // require(hasRole(USER_ROLE, msg.sender));\r\n\r\n        FallData memory newFallData = FallData(imgIPFSid, dataIPFSid);\r\n        fallDataMap[user_addr].push(newFallData);\r\n    }\r\n\r\n    function getFallData(address user_addr) public view returns (FallData[] memory) {\r\n        // require(hasRole(USER_ROLE, msg.sender));\r\n        \r\n        FallData[] storage fallData = fallDataMap[user_addr];\r\n        require(fallData.length > 0, \"No fall data found for the given user address\");\r\n        return fallData;\r\n    }\r\n}\r\n",
  "sourcePath": "D:\\xampp\\htdocs\\metasave\\packages\\metasave-contracts\\contracts\\MetaSave.sol",
  "compiler": {
    "name": "solc",
    "version": "0.8.20+commit.a1b79de6.Emscripten.clang"
  },
  "schemaVersion": "3.4.16",
  "updatedAt": "2024-03-01T13:12:10.474Z",
  "networkType": "ethereum",
  "devdoc": {
    "errors": {
      "AccessControlBadConfirmation()": [
        {
          "details": "The caller of a function is not the expected one. NOTE: Don't confuse with {AccessControlUnauthorizedAccount}."
        }
      ],
      "AccessControlUnauthorizedAccount(address,bytes32)": [
        {
          "details": "The `account` is missing a role."
        }
      ]
    },
    "events": {
      "RoleAdminChanged(bytes32,bytes32,bytes32)": {
        "details": "Emitted when `newAdminRole` is set as ``role``'s admin role, replacing `previousAdminRole` `DEFAULT_ADMIN_ROLE` is the starting admin for all roles, despite {RoleAdminChanged} not being emitted signaling this."
      },
      "RoleGranted(bytes32,address,address)": {
        "details": "Emitted when `account` is granted `role`. `sender` is the account that originated the contract call, an admin role bearer except when using {AccessControl-_setupRole}."
      },
      "RoleRevoked(bytes32,address,address)": {
        "details": "Emitted when `account` is revoked `role`. `sender` is the account that originated the contract call:   - if using `revokeRole`, it is the admin role bearer   - if using `renounceRole`, it is the role bearer (i.e. `account`)"
      }
    },
    "kind": "dev",
    "methods": {
      "getRoleAdmin(bytes32)": {
        "details": "Returns the admin role that controls `role`. See {grantRole} and {revokeRole}. To change a role's admin, use {_setRoleAdmin}."
      },
      "grantRole(bytes32,address)": {
        "details": "Grants `role` to `account`. If `account` had not been already granted `role`, emits a {RoleGranted} event. Requirements: - the caller must have ``role``'s admin role. May emit a {RoleGranted} event."
      },
      "hasRole(bytes32,address)": {
        "details": "Returns `true` if `account` has been granted `role`."
      },
      "renounceRole(bytes32,address)": {
        "details": "Revokes `role` from the calling account. Roles are often managed via {grantRole} and {revokeRole}: this function's purpose is to provide a mechanism for accounts to lose their privileges if they are compromised (such as when a trusted device is misplaced). If the calling account had been revoked `role`, emits a {RoleRevoked} event. Requirements: - the caller must be `callerConfirmation`. May emit a {RoleRevoked} event."
      },
      "revokeRole(bytes32,address)": {
        "details": "Revokes `role` from `account`. If `account` had been granted `role`, emits a {RoleRevoked} event. Requirements: - the caller must have ``role``'s admin role. May emit a {RoleRevoked} event."
      },
      "supportsInterface(bytes4)": {
        "details": "See {IERC165-supportsInterface}."
      }
    },
    "version": 1
  },
  "userdoc": {
    "kind": "user",
    "methods": {},
    "version": 1
  }
}