{
  "contractName": "MetaSave",
  "abi": [
    {
      "inputs": [
        {
          "internalType": "address",
          "name": "",
          "type": "address"
        }
      ],
      "name": "userIPFSMapping",
      "outputs": [
        {
          "internalType": "string",
          "name": "",
          "type": "string"
        }
      ],
      "stateMutability": "view",
      "type": "function",
      "constant": true
    },
    {
      "inputs": [
        {
          "internalType": "address",
          "name": "user_addr",
          "type": "address"
        },
        {
          "internalType": "string",
          "name": "ipfsFileName",
          "type": "string"
        }
      ],
      "name": "setIPFSFileName",
      "outputs": [],
      "stateMutability": "nonpayable",
      "type": "function"
    },
    {
      "inputs": [
        {
          "internalType": "address",
          "name": "user_addr",
          "type": "address"
        }
      ],
      "name": "getIPFSFileName",
      "outputs": [
        {
          "internalType": "string",
          "name": "",
          "type": "string"
        }
      ],
      "stateMutability": "view",
      "type": "function",
      "constant": true
    }
  ],
  "bytecode": "0x608060405234801561001057600080fd5b506107b7806100206000396000f3fe608060405234801561001057600080fd5b50600436106100415760003560e01c80634f718ea114610046578063aca3583814610076578063c02e69fe14610092575b600080fd5b610060600480360381019061005b919061043c565b6100c2565b60405161006d9190610502565b60405180910390f35b610090600480360381019061008b9190610659565b6101da565b005b6100ac60048036038101906100a7919061043c565b610231565b6040516100b99190610502565b60405180910390f35b60606100cd826102d1565b61010c576040517f08c379a000000000000000000000000000000000000000000000000000000000815260040161010390610701565b60405180910390fd5b6000808373ffffffffffffffffffffffffffffffffffffffff1673ffffffffffffffffffffffffffffffffffffffff168152602001908152602001600020805461015590610750565b80601f016020809104026020016040519081016040528092919081815260200182805461018190610750565b80156101ce5780601f106101a3576101008083540402835291602001916101ce565b820191906000526020600020905b8154815290600101906020018083116101b157829003601f168201915b50505050509050919050565b806000808473ffffffffffffffffffffffffffffffffffffffff1673ffffffffffffffffffffffffffffffffffffffff168152602001908152602001600020908051906020019061022c929190610327565b505050565b6000602052806000526040600020600091509050805461025090610750565b80601f016020809104026020016040519081016040528092919081815260200182805461027c90610750565b80156102c95780601f1061029e576101008083540402835291602001916102c9565b820191906000526020600020905b8154815290600101906020018083116102ac57829003601f168201915b505050505081565b6000806000808473ffffffffffffffffffffffffffffffffffffffff1673ffffffffffffffffffffffffffffffffffffffff168152602001908152602001600020805461031d90610750565b9050119050919050565b82805461033390610750565b90600052602060002090601f016020900481019282610355576000855561039c565b82601f1061036e57805160ff191683800117855561039c565b8280016001018555821561039c579182015b8281111561039b578251825591602001919060010190610380565b5b5090506103a991906103ad565b5090565b5b808211156103c65760008160009055506001016103ae565b5090565b6000604051905090565b600080fd5b600080fd5b600073ffffffffffffffffffffffffffffffffffffffff82169050919050565b6000610409826103de565b9050919050565b610419816103fe565b811461042457600080fd5b50565b60008135905061043681610410565b92915050565b600060208284031215610452576104516103d4565b5b600061046084828501610427565b91505092915050565b600081519050919050565b600082825260208201905092915050565b60005b838110156104a3578082015181840152602081019050610488565b838111156104b2576000848401525b50505050565b6000601f19601f8301169050919050565b60006104d482610469565b6104de8185610474565b93506104ee818560208601610485565b6104f7816104b8565b840191505092915050565b6000602082019050818103600083015261051c81846104c9565b905092915050565b600080fd5b600080fd5b7f4e487b7100000000000000000000000000000000000000000000000000000000600052604160045260246000fd5b610566826104b8565b810181811067ffffffffffffffff821117156105855761058461052e565b5b80604052505050565b60006105986103ca565b90506105a4828261055d565b919050565b600067ffffffffffffffff8211156105c4576105c361052e565b5b6105cd826104b8565b9050602081019050919050565b82818337600083830152505050565b60006105fc6105f7846105a9565b61058e565b90508281526020810184848401111561061857610617610529565b5b6106238482856105da565b509392505050565b600082601f8301126106405761063f610524565b5b81356106508482602086016105e9565b91505092915050565b600080604083850312156106705761066f6103d4565b5b600061067e85828601610427565b925050602083013567ffffffffffffffff81111561069f5761069e6103d9565b5b6106ab8582860161062b565b9150509250929050565b7f55736572206e6f7420666f756e64000000000000000000000000000000000000600082015250565b60006106eb600e83610474565b91506106f6826106b5565b602082019050919050565b6000602082019050818103600083015261071a816106de565b9050919050565b7f4e487b7100000000000000000000000000000000000000000000000000000000600052602260045260246000fd5b6000600282049050600182168061076857607f821691505b60208210810361077b5761077a610721565b5b5091905056fea2646970667358221220007ba1f07adaab49c0c41487bb089eed1c1508b05f1e182c75f1b0693f47334064736f6c634300080d0033",
  "immutableReferences": {},
  "source": "// SPDX-License-Identifier: MIT\npragma solidity ^0.8.13;\n\ncontract MetaSave {\n\tmapping(address => string) public userIPFSMapping;\n\n    function setIPFSFileName(address user_addr, string memory ipfsFileName) public {\n        userIPFSMapping[user_addr] = ipfsFileName;\n    }\n\n    function getIPFSFileName(address user_addr) public view returns (string memory) {\n        require(userExists(user_addr), \"User not found\");\n        return userIPFSMapping[user_addr];\n    }\n\n    function userExists(address user_addr) internal view returns (bool) {\n        return bytes(userIPFSMapping[user_addr]).length > 0;\n    }\n}\n",
  "sourcePath": "D:\\xampp\\htdocs\\metasave\\packages\\metasave-contracts\\contracts\\MetaSave.sol",
  "compiler": {
    "name": "solc",
    "version": "0.8.13+commit.abaa5c0e.Emscripten.clang"
  },
  "schemaVersion": "3.4.16",
  "updatedAt": "2024-02-04T19:16:18.240Z",
  "networkType": "ethereum",
  "devdoc": {
    "kind": "dev",
    "methods": {},
    "version": 1
  },
  "userdoc": {
    "kind": "user",
    "methods": {},
    "version": 1
  }
}