{
  "contractName": "MetaSave",
  "abi": [
    {
      "inputs": [],
      "name": "AccessControlBadConfirmation",
      "type": "error"
    },
    {
      "inputs": [
        {
          "internalType": "address",
          "name": "account",
          "type": "address"
        },
        {
          "internalType": "bytes32",
          "name": "neededRole",
          "type": "bytes32"
        }
      ],
      "name": "AccessControlUnauthorizedAccount",
      "type": "error"
    },
    {
      "anonymous": false,
      "inputs": [
        {
          "indexed": true,
          "internalType": "bytes32",
          "name": "role",
          "type": "bytes32"
        },
        {
          "indexed": true,
          "internalType": "bytes32",
          "name": "previousAdminRole",
          "type": "bytes32"
        },
        {
          "indexed": true,
          "internalType": "bytes32",
          "name": "newAdminRole",
          "type": "bytes32"
        }
      ],
      "name": "RoleAdminChanged",
      "type": "event"
    },
    {
      "anonymous": false,
      "inputs": [
        {
          "indexed": true,
          "internalType": "bytes32",
          "name": "role",
          "type": "bytes32"
        },
        {
          "indexed": true,
          "internalType": "address",
          "name": "account",
          "type": "address"
        },
        {
          "indexed": true,
          "internalType": "address",
          "name": "sender",
          "type": "address"
        }
      ],
      "name": "RoleGranted",
      "type": "event"
    },
    {
      "anonymous": false,
      "inputs": [
        {
          "indexed": true,
          "internalType": "bytes32",
          "name": "role",
          "type": "bytes32"
        },
        {
          "indexed": true,
          "internalType": "address",
          "name": "account",
          "type": "address"
        },
        {
          "indexed": true,
          "internalType": "address",
          "name": "sender",
          "type": "address"
        }
      ],
      "name": "RoleRevoked",
      "type": "event"
    },
    {
      "inputs": [],
      "name": "DEFAULT_ADMIN_ROLE",
      "outputs": [
        {
          "internalType": "bytes32",
          "name": "",
          "type": "bytes32"
        }
      ],
      "stateMutability": "view",
      "type": "function",
      "constant": true
    },
    {
      "inputs": [],
      "name": "USER_ROLE",
      "outputs": [
        {
          "internalType": "bytes32",
          "name": "",
          "type": "bytes32"
        }
      ],
      "stateMutability": "view",
      "type": "function",
      "constant": true
    },
    {
      "inputs": [
        {
          "internalType": "bytes32",
          "name": "role",
          "type": "bytes32"
        }
      ],
      "name": "getRoleAdmin",
      "outputs": [
        {
          "internalType": "bytes32",
          "name": "",
          "type": "bytes32"
        }
      ],
      "stateMutability": "view",
      "type": "function",
      "constant": true
    },
    {
      "inputs": [
        {
          "internalType": "bytes32",
          "name": "role",
          "type": "bytes32"
        },
        {
          "internalType": "address",
          "name": "account",
          "type": "address"
        }
      ],
      "name": "grantRole",
      "outputs": [],
      "stateMutability": "nonpayable",
      "type": "function"
    },
    {
      "inputs": [
        {
          "internalType": "bytes32",
          "name": "role",
          "type": "bytes32"
        },
        {
          "internalType": "address",
          "name": "account",
          "type": "address"
        }
      ],
      "name": "hasRole",
      "outputs": [
        {
          "internalType": "bool",
          "name": "",
          "type": "bool"
        }
      ],
      "stateMutability": "view",
      "type": "function",
      "constant": true
    },
    {
      "inputs": [
        {
          "internalType": "bytes32",
          "name": "role",
          "type": "bytes32"
        },
        {
          "internalType": "address",
          "name": "callerConfirmation",
          "type": "address"
        }
      ],
      "name": "renounceRole",
      "outputs": [],
      "stateMutability": "nonpayable",
      "type": "function"
    },
    {
      "inputs": [
        {
          "internalType": "bytes32",
          "name": "role",
          "type": "bytes32"
        },
        {
          "internalType": "address",
          "name": "account",
          "type": "address"
        }
      ],
      "name": "revokeRole",
      "outputs": [],
      "stateMutability": "nonpayable",
      "type": "function"
    },
    {
      "inputs": [
        {
          "internalType": "bytes4",
          "name": "interfaceId",
          "type": "bytes4"
        }
      ],
      "name": "supportsInterface",
      "outputs": [
        {
          "internalType": "bool",
          "name": "",
          "type": "bool"
        }
      ],
      "stateMutability": "view",
      "type": "function",
      "constant": true
    },
    {
      "inputs": [],
      "name": "userSignUp",
      "outputs": [
        {
          "internalType": "bool",
          "name": "",
          "type": "bool"
        }
      ],
      "stateMutability": "nonpayable",
      "type": "function"
    },
    {
      "inputs": [
        {
          "internalType": "address",
          "name": "user_addr",
          "type": "address"
        },
        {
          "internalType": "string",
          "name": "ipfsFileName",
          "type": "string"
        }
      ],
      "name": "setIPFSFileName",
      "outputs": [],
      "stateMutability": "nonpayable",
      "type": "function"
    },
    {
      "inputs": [
        {
          "internalType": "address",
          "name": "user_addr",
          "type": "address"
        }
      ],
      "name": "getIPFSFileName",
      "outputs": [
        {
          "internalType": "string",
          "name": "",
          "type": "string"
        }
      ],
      "stateMutability": "view",
      "type": "function",
      "constant": true
    },
    {
      "inputs": [
        {
          "internalType": "address",
          "name": "user_addr",
          "type": "address"
        },
        {
          "internalType": "string",
          "name": "imgIPFSid",
          "type": "string"
        },
        {
          "internalType": "string",
          "name": "dataIPFSid",
          "type": "string"
        }
      ],
      "name": "setFallData",
      "outputs": [],
      "stateMutability": "nonpayable",
      "type": "function"
    },
    {
      "inputs": [
        {
          "internalType": "address",
          "name": "user_addr",
          "type": "address"
        }
      ],
      "name": "getFallData",
      "outputs": [
        {
          "components": [
            {
              "internalType": "string",
              "name": "imgIPFSid",
              "type": "string"
            },
            {
              "internalType": "string",
              "name": "dataIPFSid",
              "type": "string"
            }
          ],
          "internalType": "struct MetaSave.FallData[]",
          "name": "",
          "type": "tuple[]"
        }
      ],
      "stateMutability": "view",
      "type": "function",
      "constant": true
    }
  ],
  "bytecode": "0x608060405234801561000f575f80fd5b506116ef8061001d5f395ff3fe608060405234801561000f575f80fd5b50600436106100cd575f3560e01c80634f718ea11161008a57806391d148541161006457806391d1485414610221578063a217fddf14610251578063aca358381461026f578063d547741f1461028b576100cd565b80634f718ea1146101a357806372508ca1146101d35780637fe5995f14610203576100cd565b806301ffc9a7146100d15780631311916114610101578063248a9ca31461011f5780632f2ff15d1461014f57806336568abe1461016b5780634c5fa8b814610187575b5f80fd5b6100eb60048036038101906100e69190610cf8565b6102a7565b6040516100f89190610d3d565b60405180910390f35b610109610320565b6040516101169190610d6e565b60405180910390f35b61013960048036038101906101349190610db1565b610344565b6040516101469190610d6e565b60405180910390f35b61016960048036038101906101649190610e36565b610360565b005b61018560048036038101906101809190610e36565b610382565b005b6101a1600480360381019061019c9190610fb0565b6103fd565b005b6101bd60048036038101906101b89190611038565b6104dd565b6040516101ca91906110dd565b60405180910390f35b6101ed60048036038101906101e89190611038565b610624565b6040516101fa9190611241565b60405180910390f35b61020b610859565b6040516102189190610d3d565b60405180910390f35b61023b60048036038101906102369190610e36565b61088b565b6040516102489190610d3d565b60405180910390f35b6102596108ee565b6040516102669190610d6e565b60405180910390f35b61028960048036038101906102849190611261565b6108f4565b005b6102a560048036038101906102a09190610e36565b610975565b005b5f7f7965db0b000000000000000000000000000000000000000000000000000000007bffffffffffffffffffffffffffffffffffffffffffffffffffffffff1916827bffffffffffffffffffffffffffffffffffffffffffffffffffffffff19161480610319575061031882610997565b5b9050919050565b7f14823911f2da1b49f045a0929a60b8c1f2a7fc8c06c7284ca3e8ab4e193a08c881565b5f805f8381526020019081526020015f20600101549050919050565b61036982610344565b61037281610a00565b61037c8383610a14565b50505050565b61038a610afd565b73ffffffffffffffffffffffffffffffffffffffff168173ffffffffffffffffffffffffffffffffffffffff16146103ee576040517f6697b23200000000000000000000000000000000000000000000000000000000815260040160405180910390fd5b6103f88282610b04565b505050565b6104277f14823911f2da1b49f045a0929a60b8c1f2a7fc8c06c7284ca3e8ab4e193a08c83361088b565b61042f575f80fd5b5f604051806040016040528084815260200183815250905060025f8573ffffffffffffffffffffffffffffffffffffffff1673ffffffffffffffffffffffffffffffffffffffff1681526020019081526020015f2081908060018154018082558091505060019003905f5260205f2090600202015f909190919091505f820151815f0190816104be91906114be565b5060208201518160010190816104d491906114be565b50505050505050565b60606105097f14823911f2da1b49f045a0929a60b8c1f2a7fc8c06c7284ca3e8ab4e193a08c83361088b565b610511575f80fd5b61051a82610bed565b610559576040517f08c379a0000000000000000000000000000000000000000000000000000000008152600401610550906115d7565b60405180910390fd5b60015f8373ffffffffffffffffffffffffffffffffffffffff1673ffffffffffffffffffffffffffffffffffffffff1681526020019081526020015f2080546105a1906112e8565b80601f01602080910402602001604051908101604052809291908181526020018280546105cd906112e8565b80156106185780601f106105ef57610100808354040283529160200191610618565b820191905f5260205f20905b8154815290600101906020018083116105fb57829003601f168201915b50505050509050919050565b60606106507f14823911f2da1b49f045a0929a60b8c1f2a7fc8c06c7284ca3e8ab4e193a08c83361088b565b610658575f80fd5b5f60025f8473ffffffffffffffffffffffffffffffffffffffff1673ffffffffffffffffffffffffffffffffffffffff1681526020019081526020015f2090505f8180549050116106de576040517f08c379a00000000000000000000000000000000000000000000000000000000081526004016106d590611665565b60405180910390fd5b80805480602002602001604051908101604052809291908181526020015f905b8282101561084d578382905f5260205f2090600202016040518060400160405290815f8201805461072e906112e8565b80601f016020809104026020016040519081016040528092919081815260200182805461075a906112e8565b80156107a55780601f1061077c576101008083540402835291602001916107a5565b820191905f5260205f20905b81548152906001019060200180831161078857829003601f168201915b505050505081526020016001820180546107be906112e8565b80601f01602080910402602001604051908101604052809291908181526020018280546107ea906112e8565b80156108355780601f1061080c57610100808354040283529160200191610835565b820191905f5260205f20905b81548152906001019060200180831161081857829003601f168201915b505050505081525050815260200190600101906106fe565b50505050915050919050565b5f6108847f14823911f2da1b49f045a0929a60b8c1f2a7fc8c06c7284ca3e8ab4e193a08c833610360565b6001905090565b5f805f8481526020019081526020015f205f015f8373ffffffffffffffffffffffffffffffffffffffff1673ffffffffffffffffffffffffffffffffffffffff1681526020019081526020015f205f9054906101000a900460ff16905092915050565b5f801b81565b61091e7f14823911f2da1b49f045a0929a60b8c1f2a7fc8c06c7284ca3e8ab4e193a08c83361088b565b610926575f80fd5b8060015f8473ffffffffffffffffffffffffffffffffffffffff1673ffffffffffffffffffffffffffffffffffffffff1681526020019081526020015f20908161097091906114be565b505050565b61097e82610344565b61098781610a00565b6109918383610b04565b50505050565b5f7f01ffc9a7000000000000000000000000000000000000000000000000000000007bffffffffffffffffffffffffffffffffffffffffffffffffffffffff1916827bffffffffffffffffffffffffffffffffffffffffffffffffffffffff1916149050919050565b610a1181610a0c610afd565b610c41565b50565b5f610a1f838361088b565b610af35760015f808581526020019081526020015f205f015f8473ffffffffffffffffffffffffffffffffffffffff1673ffffffffffffffffffffffffffffffffffffffff1681526020019081526020015f205f6101000a81548160ff021916908315150217905550610a90610afd565b73ffffffffffffffffffffffffffffffffffffffff168273ffffffffffffffffffffffffffffffffffffffff16847f2f8788117e7eff1d82e926ec794901d17c78024a50270940304540a733656f0d60405160405180910390a460019050610af7565b5f90505b92915050565b5f33905090565b5f610b0f838361088b565b15610be3575f805f8581526020019081526020015f205f015f8473ffffffffffffffffffffffffffffffffffffffff1673ffffffffffffffffffffffffffffffffffffffff1681526020019081526020015f205f6101000a81548160ff021916908315150217905550610b80610afd565b73ffffffffffffffffffffffffffffffffffffffff168273ffffffffffffffffffffffffffffffffffffffff16847ff6391f5c32d9c69d2a47ea670b442974b53935d1edc7fd64eb21e047a839171b60405160405180910390a460019050610be7565b5f90505b92915050565b5f8060015f8473ffffffffffffffffffffffffffffffffffffffff1673ffffffffffffffffffffffffffffffffffffffff1681526020019081526020015f208054610c37906112e8565b9050119050919050565b610c4b828261088b565b610c8e5780826040517fe2517d3f000000000000000000000000000000000000000000000000000000008152600401610c85929190611692565b60405180910390fd5b5050565b5f604051905090565b5f80fd5b5f80fd5b5f7fffffffff0000000000000000000000000000000000000000000000000000000082169050919050565b610cd781610ca3565b8114610ce1575f80fd5b50565b5f81359050610cf281610cce565b92915050565b5f60208284031215610d0d57610d0c610c9b565b5b5f610d1a84828501610ce4565b91505092915050565b5f8115159050919050565b610d3781610d23565b82525050565b5f602082019050610d505f830184610d2e565b92915050565b5f819050919050565b610d6881610d56565b82525050565b5f602082019050610d815f830184610d5f565b92915050565b610d9081610d56565b8114610d9a575f80fd5b50565b5f81359050610dab81610d87565b92915050565b5f60208284031215610dc657610dc5610c9b565b5b5f610dd384828501610d9d565b91505092915050565b5f73ffffffffffffffffffffffffffffffffffffffff82169050919050565b5f610e0582610ddc565b9050919050565b610e1581610dfb565b8114610e1f575f80fd5b50565b5f81359050610e3081610e0c565b92915050565b5f8060408385031215610e4c57610e4b610c9b565b5b5f610e5985828601610d9d565b9250506020610e6a85828601610e22565b9150509250929050565b5f80fd5b5f80fd5b5f601f19601f8301169050919050565b7f4e487b71000000000000000000000000000000000000000000000000000000005f52604160045260245ffd5b610ec282610e7c565b810181811067ffffffffffffffff82111715610ee157610ee0610e8c565b5b80604052505050565b5f610ef3610c92565b9050610eff8282610eb9565b919050565b5f67ffffffffffffffff821115610f1e57610f1d610e8c565b5b610f2782610e7c565b9050602081019050919050565b828183375f83830152505050565b5f610f54610f4f84610f04565b610eea565b905082815260208101848484011115610f7057610f6f610e78565b5b610f7b848285610f34565b509392505050565b5f82601f830112610f9757610f96610e74565b5b8135610fa7848260208601610f42565b91505092915050565b5f805f60608486031215610fc757610fc6610c9b565b5b5f610fd486828701610e22565b935050602084013567ffffffffffffffff811115610ff557610ff4610c9f565b5b61100186828701610f83565b925050604084013567ffffffffffffffff81111561102257611021610c9f565b5b61102e86828701610f83565b9150509250925092565b5f6020828403121561104d5761104c610c9b565b5b5f61105a84828501610e22565b91505092915050565b5f81519050919050565b5f82825260208201905092915050565b5f5b8381101561109a57808201518184015260208101905061107f565b5f8484015250505050565b5f6110af82611063565b6110b9818561106d565b93506110c981856020860161107d565b6110d281610e7c565b840191505092915050565b5f6020820190508181035f8301526110f581846110a5565b905092915050565b5f81519050919050565b5f82825260208201905092915050565b5f819050602082019050919050565b5f82825260208201905092915050565b5f61114082611063565b61114a8185611126565b935061115a81856020860161107d565b61116381610e7c565b840191505092915050565b5f604083015f8301518482035f8601526111888282611136565b915050602083015184820360208601526111a28282611136565b9150508091505092915050565b5f6111ba838361116e565b905092915050565b5f602082019050919050565b5f6111d8826110fd565b6111e28185611107565b9350836020820285016111f485611117565b805f5b8581101561122f578484038952815161121085826111af565b945061121b836111c2565b925060208a019950506001810190506111f7565b50829750879550505050505092915050565b5f6020820190508181035f83015261125981846111ce565b905092915050565b5f806040838503121561127757611276610c9b565b5b5f61128485828601610e22565b925050602083013567ffffffffffffffff8111156112a5576112a4610c9f565b5b6112b185828601610f83565b9150509250929050565b7f4e487b71000000000000000000000000000000000000000000000000000000005f52602260045260245ffd5b5f60028204905060018216806112ff57607f821691505b602082108103611312576113116112bb565b5b50919050565b5f819050815f5260205f209050919050565b5f6020601f8301049050919050565b5f82821b905092915050565b5f600883026113747fffffffffffffffffffffffffffffffffffffffffffffffffffffffffffffffff82611339565b61137e8683611339565b95508019841693508086168417925050509392505050565b5f819050919050565b5f819050919050565b5f6113c26113bd6113b884611396565b61139f565b611396565b9050919050565b5f819050919050565b6113db836113a8565b6113ef6113e7826113c9565b848454611345565b825550505050565b5f90565b6114036113f7565b61140e8184846113d2565b505050565b5b81811015611431576114265f826113fb565b600181019050611414565b5050565b601f8211156114765761144781611318565b6114508461132a565b8101602085101561145f578190505b61147361146b8561132a565b830182611413565b50505b505050565b5f82821c905092915050565b5f6114965f198460080261147b565b1980831691505092915050565b5f6114ae8383611487565b9150826002028217905092915050565b6114c782611063565b67ffffffffffffffff8111156114e0576114df610e8c565b5b6114ea82546112e8565b6114f5828285611435565b5f60209050601f831160018114611526575f8415611514578287015190505b61151e85826114a3565b865550611585565b601f19841661153486611318565b5f5b8281101561155b57848901518255600182019150602085019450602081019050611536565b868310156115785784890151611574601f891682611487565b8355505b6001600288020188555050505b505050505050565b7f55736572206e6f7420666f756e640000000000000000000000000000000000005f82015250565b5f6115c1600e8361106d565b91506115cc8261158d565b602082019050919050565b5f6020820190508181035f8301526115ee816115b5565b9050919050565b7f4e6f2066616c6c206461746120666f756e6420666f722074686520676976656e5f8201527f2075736572206164647265737300000000000000000000000000000000000000602082015250565b5f61164f602d8361106d565b915061165a826115f5565b604082019050919050565b5f6020820190508181035f83015261167c81611643565b9050919050565b61168c81610dfb565b82525050565b5f6040820190506116a55f830185611683565b6116b26020830184610d5f565b939250505056fea26469706673582212209b5dee1b1bc859aea8c1c91b1bc0c6a7d38485a7aa93fa965f4323c47c8f58d364736f6c63430008140033",
  "immutableReferences": {},
  "source": "// SPDX-License-Identifier: MIT\r\npragma solidity ^0.8.13;\r\n\r\nimport \"@openzeppelin/contracts/access/AccessControl.sol\";\r\n\r\ncontract MetaSave is AccessControl {\r\n    struct FallData {\r\n        string imgIPFSid;\r\n        string dataIPFSid;\r\n    }\r\n\r\n\tmapping(address => string) private userIPFSMapping;\r\n\tmapping(address => FallData[]) private fallDataMap;\r\n\r\n    bytes32 public constant USER_ROLE = keccak256(\"USER_ROLE\");\r\n \r\n    function userSignUp() public returns (bool) {\r\n        grantRole(USER_ROLE, msg.sender);\r\n        return true;\r\n    }\r\n\r\n    function setIPFSFileName(address user_addr, string memory ipfsFileName) public {\r\n        require(hasRole(USER_ROLE, msg.sender));\r\n\r\n        userIPFSMapping[user_addr] = ipfsFileName;\r\n    }\r\n\r\n    function getIPFSFileName(address user_addr) public view returns (string memory) {\r\n        require(hasRole(USER_ROLE, msg.sender));\r\n\r\n        require(userExists(user_addr), \"User not found\");\r\n\r\n        return userIPFSMapping[user_addr];\r\n    }\r\n\r\n    function userExists(address user_addr) internal view returns (bool) {\r\n        return bytes(userIPFSMapping[user_addr]).length > 0;\r\n    }\r\n\r\n    function setFallData(address user_addr, string memory imgIPFSid, string memory dataIPFSid) public {\r\n        require(hasRole(USER_ROLE, msg.sender));\r\n\r\n        FallData memory newFallData = FallData(imgIPFSid, dataIPFSid);\r\n        fallDataMap[user_addr].push(newFallData);\r\n    }\r\n\r\n    function getFallData(address user_addr) public view returns (FallData[] memory) {\r\n        require(hasRole(USER_ROLE, msg.sender));\r\n        \r\n        FallData[] storage fallData = fallDataMap[user_addr];\r\n        require(fallData.length > 0, \"No fall data found for the given user address\");\r\n        return fallData;\r\n    }\r\n}\r\n",
  "sourcePath": "D:\\xampp\\htdocs\\metasave\\packages\\metasave-contracts\\contracts\\MetaSave.sol",
  "compiler": {
    "name": "solc",
    "version": "0.8.20+commit.a1b79de6.Emscripten.clang"
  },
  "schemaVersion": "3.4.16",
  "updatedAt": "2024-02-26T18:39:31.314Z",
  "networkType": "ethereum",
  "devdoc": {
    "errors": {
      "AccessControlBadConfirmation()": [
        {
          "details": "The caller of a function is not the expected one. NOTE: Don't confuse with {AccessControlUnauthorizedAccount}."
        }
      ],
      "AccessControlUnauthorizedAccount(address,bytes32)": [
        {
          "details": "The `account` is missing a role."
        }
      ]
    },
    "events": {
      "RoleAdminChanged(bytes32,bytes32,bytes32)": {
        "details": "Emitted when `newAdminRole` is set as ``role``'s admin role, replacing `previousAdminRole` `DEFAULT_ADMIN_ROLE` is the starting admin for all roles, despite {RoleAdminChanged} not being emitted signaling this."
      },
      "RoleGranted(bytes32,address,address)": {
        "details": "Emitted when `account` is granted `role`. `sender` is the account that originated the contract call, an admin role bearer except when using {AccessControl-_setupRole}."
      },
      "RoleRevoked(bytes32,address,address)": {
        "details": "Emitted when `account` is revoked `role`. `sender` is the account that originated the contract call:   - if using `revokeRole`, it is the admin role bearer   - if using `renounceRole`, it is the role bearer (i.e. `account`)"
      }
    },
    "kind": "dev",
    "methods": {
      "getRoleAdmin(bytes32)": {
        "details": "Returns the admin role that controls `role`. See {grantRole} and {revokeRole}. To change a role's admin, use {_setRoleAdmin}."
      },
      "grantRole(bytes32,address)": {
        "details": "Grants `role` to `account`. If `account` had not been already granted `role`, emits a {RoleGranted} event. Requirements: - the caller must have ``role``'s admin role. May emit a {RoleGranted} event."
      },
      "hasRole(bytes32,address)": {
        "details": "Returns `true` if `account` has been granted `role`."
      },
      "renounceRole(bytes32,address)": {
        "details": "Revokes `role` from the calling account. Roles are often managed via {grantRole} and {revokeRole}: this function's purpose is to provide a mechanism for accounts to lose their privileges if they are compromised (such as when a trusted device is misplaced). If the calling account had been revoked `role`, emits a {RoleRevoked} event. Requirements: - the caller must be `callerConfirmation`. May emit a {RoleRevoked} event."
      },
      "revokeRole(bytes32,address)": {
        "details": "Revokes `role` from `account`. If `account` had been granted `role`, emits a {RoleRevoked} event. Requirements: - the caller must have ``role``'s admin role. May emit a {RoleRevoked} event."
      },
      "supportsInterface(bytes4)": {
        "details": "See {IERC165-supportsInterface}."
      }
    },
    "version": 1
  },
  "userdoc": {
    "kind": "user",
    "methods": {},
    "version": 1
  }
}