{
  "contractName": "ZKProof",
  "abi": [
    {
      "inputs": [
        {
          "internalType": "bytes32",
          "name": "_root",
          "type": "bytes32"
        },
        {
          "internalType": "string",
          "name": "_mtIPFSid",
          "type": "string"
        }
      ],
      "name": "setRootAndIPFS",
      "outputs": [],
      "stateMutability": "nonpayable",
      "type": "function"
    },
    {
      "inputs": [],
      "name": "getMTRoot",
      "outputs": [
        {
          "internalType": "bytes32",
          "name": "",
          "type": "bytes32"
        }
      ],
      "stateMutability": "view",
      "type": "function",
      "constant": true
    },
    {
      "inputs": [],
      "name": "getMTIPFSid",
      "outputs": [
        {
          "internalType": "string",
          "name": "",
          "type": "string"
        }
      ],
      "stateMutability": "view",
      "type": "function",
      "constant": true
    },
    {
      "inputs": [
        {
          "internalType": "bytes32[]",
          "name": "proof",
          "type": "bytes32[]"
        },
        {
          "internalType": "address",
          "name": "hxsh",
          "type": "address"
        },
        {
          "internalType": "bytes32",
          "name": "message",
          "type": "bytes32"
        }
      ],
      "name": "verify",
      "outputs": [
        {
          "internalType": "bool",
          "name": "",
          "type": "bool"
        }
      ],
      "stateMutability": "view",
      "type": "function",
      "constant": true
    }
  ],
  "bytecode": "0x608060405234801561000f575f80fd5b50610b0b8061001d5f395ff3fe608060405234801561000f575f80fd5b506004361061004a575f3560e01c80638a0a29831461004e578063a17dcfbe1461006a578063f4b1b8061461009a578063f7107288146100b8575b5f80fd5b61006860048036038101906100639190610419565b6100d6565b005b610084600480360381019061007f9190610591565b6100f0565b6040516100919190610617565b60405180910390f35b6100a2610159565b6040516100af919061063f565b60405180910390f35b6100c0610161565b6040516100cd91906106d2565b60405180910390f35b815f8190555080600190816100eb91906108f5565b505050565b5f8083836040516020016101059291906109d3565b6040516020818303038152906040528051906020012060405160200161012b9190610a1a565b60405160208183030381529060405280519060200120905061014f855f54836101f1565b9150509392505050565b5f8054905090565b6060600180546101709061071f565b80601f016020809104026020016040519081016040528092919081815260200182805461019c9061071f565b80156101e75780601f106101be576101008083540402835291602001916101e7565b820191905f5260205f20905b8154815290600101906020018083116101ca57829003601f168201915b5050505050905090565b5f826101fd8584610207565b1490509392505050565b5f808290505f5b84518110156102505761023b8286838151811061022e5761022d610a34565b5b602002602001015161025b565b9150808061024890610a8e565b91505061020e565b508091505092915050565b5f8183106102725761026d8284610285565b61027d565b61027c8383610285565b5b905092915050565b5f825f528160205260405f20905092915050565b5f604051905090565b5f80fd5b5f80fd5b5f819050919050565b6102bc816102aa565b81146102c6575f80fd5b50565b5f813590506102d7816102b3565b92915050565b5f80fd5b5f80fd5b5f601f19601f8301169050919050565b7f4e487b71000000000000000000000000000000000000000000000000000000005f52604160045260245ffd5b61032b826102e5565b810181811067ffffffffffffffff8211171561034a576103496102f5565b5b80604052505050565b5f61035c610299565b90506103688282610322565b919050565b5f67ffffffffffffffff821115610387576103866102f5565b5b610390826102e5565b9050602081019050919050565b828183375f83830152505050565b5f6103bd6103b88461036d565b610353565b9050828152602081018484840111156103d9576103d86102e1565b5b6103e484828561039d565b509392505050565b5f82601f830112610400576103ff6102dd565b5b81356104108482602086016103ab565b91505092915050565b5f806040838503121561042f5761042e6102a2565b5b5f61043c858286016102c9565b925050602083013567ffffffffffffffff81111561045d5761045c6102a6565b5b610469858286016103ec565b9150509250929050565b5f67ffffffffffffffff82111561048d5761048c6102f5565b5b602082029050602081019050919050565b5f80fd5b5f6104b46104af84610473565b610353565b905080838252602082019050602084028301858111156104d7576104d661049e565b5b835b8181101561050057806104ec88826102c9565b8452602084019350506020810190506104d9565b5050509392505050565b5f82601f83011261051e5761051d6102dd565b5b813561052e8482602086016104a2565b91505092915050565b5f73ffffffffffffffffffffffffffffffffffffffff82169050919050565b5f61056082610537565b9050919050565b61057081610556565b811461057a575f80fd5b50565b5f8135905061058b81610567565b92915050565b5f805f606084860312156105a8576105a76102a2565b5b5f84013567ffffffffffffffff8111156105c5576105c46102a6565b5b6105d18682870161050a565b93505060206105e28682870161057d565b92505060406105f3868287016102c9565b9150509250925092565b5f8115159050919050565b610611816105fd565b82525050565b5f60208201905061062a5f830184610608565b92915050565b610639816102aa565b82525050565b5f6020820190506106525f830184610630565b92915050565b5f81519050919050565b5f82825260208201905092915050565b5f5b8381101561068f578082015181840152602081019050610674565b5f8484015250505050565b5f6106a482610658565b6106ae8185610662565b93506106be818560208601610672565b6106c7816102e5565b840191505092915050565b5f6020820190508181035f8301526106ea818461069a565b905092915050565b7f4e487b71000000000000000000000000000000000000000000000000000000005f52602260045260245ffd5b5f600282049050600182168061073657607f821691505b602082108103610749576107486106f2565b5b50919050565b5f819050815f5260205f209050919050565b5f6020601f8301049050919050565b5f82821b905092915050565b5f600883026107ab7fffffffffffffffffffffffffffffffffffffffffffffffffffffffffffffffff82610770565b6107b58683610770565b95508019841693508086168417925050509392505050565b5f819050919050565b5f819050919050565b5f6107f96107f46107ef846107cd565b6107d6565b6107cd565b9050919050565b5f819050919050565b610812836107df565b61082661081e82610800565b84845461077c565b825550505050565b5f90565b61083a61082e565b610845818484610809565b505050565b5b818110156108685761085d5f82610832565b60018101905061084b565b5050565b601f8211156108ad5761087e8161074f565b61088784610761565b81016020851015610896578190505b6108aa6108a285610761565b83018261084a565b50505b505050565b5f82821c905092915050565b5f6108cd5f19846008026108b2565b1980831691505092915050565b5f6108e583836108be565b9150826002028217905092915050565b6108fe82610658565b67ffffffffffffffff811115610917576109166102f5565b5b610921825461071f565b61092c82828561086c565b5f60209050601f83116001811461095d575f841561094b578287015190505b61095585826108da565b8655506109bc565b601f19841661096b8661074f565b5f5b828110156109925784890151825560018201915060208501945060208101905061096d565b868310156109af57848901516109ab601f8916826108be565b8355505b6001600288020188555050505b505050505050565b6109cd81610556565b82525050565b5f6040820190506109e65f8301856109c4565b6109f36020830184610630565b9392505050565b5f819050919050565b610a14610a0f826102aa565b6109fa565b82525050565b5f610a258284610a03565b60208201915081905092915050565b7f4e487b71000000000000000000000000000000000000000000000000000000005f52603260045260245ffd5b7f4e487b71000000000000000000000000000000000000000000000000000000005f52601160045260245ffd5b5f610a98826107cd565b91507fffffffffffffffffffffffffffffffffffffffffffffffffffffffffffffffff8203610aca57610ac9610a61565b5b60018201905091905056fea2646970667358221220c07c71bc27374aa32ae52556a08909b2c680c0119f6d56094b424396dba3ac9464736f6c63430008140033",
  "immutableReferences": {},
  "source": "// SPDX-License-Identifier: MIT\r\npragma solidity ^0.8.13;\r\n\r\nimport \"@openzeppelin/contracts/utils/cryptography/MerkleProof.sol\";\r\n\r\ncontract ZKProof {\r\n\r\n    bytes32 private root;\r\n    string private mtIPFSid;\r\n\r\n    function setRootAndIPFS(bytes32 _root, string memory _mtIPFSid) public {\r\n        root = _root;\r\n        mtIPFSid = _mtIPFSid;\r\n    }\r\n\r\n    function getMTRoot() public view returns (bytes32) {\r\n        return root;\r\n    }\r\n\r\n    function getMTIPFSid() public view returns (string memory) {\r\n        return mtIPFSid;\r\n    }\r\n\r\n    function verify(\r\n        bytes32[] memory proof,\r\n        address hxsh,\r\n        bytes32 message\r\n    ) public view returns (bool) {\r\n        bytes32 leaf = keccak256(bytes.concat(keccak256(abi.encode(hxsh, message))));\r\n        // another verify circuit to verify if the user holds the token/message\r\n        return MerkleProof.verify(proof, root, leaf);\r\n    }\r\n\r\n}",
  "sourcePath": "D:\\xampp\\htdocs\\metasave\\packages\\metasave-contracts\\contracts\\ZKProof.sol",
  "compiler": {
    "name": "solc",
    "version": "0.8.20+commit.a1b79de6.Emscripten.clang"
  },
  "schemaVersion": "3.4.16",
  "updatedAt": "2024-03-24T11:39:31.114Z",
  "networkType": "ethereum",
  "devdoc": {
    "kind": "dev",
    "methods": {},
    "version": 1
  },
  "userdoc": {
    "kind": "user",
    "methods": {},
    "version": 1
  }
}