{
  "contractName": "ZKProof",
  "abi": [
    {
      "inputs": [
        {
          "internalType": "bytes32",
          "name": "root",
          "type": "bytes32"
        },
        {
          "internalType": "bytes32[]",
          "name": "proof",
          "type": "bytes32[]"
        },
        {
          "internalType": "address",
          "name": "hxsh",
          "type": "address"
        },
        {
          "internalType": "bytes32",
          "name": "message",
          "type": "bytes32"
        }
      ],
      "name": "verify",
      "outputs": [
        {
          "internalType": "bool",
          "name": "",
          "type": "bool"
        }
      ],
      "stateMutability": "view",
      "type": "function",
      "constant": true
    }
  ],
  "bytecode": "0x608060405234801561000f575f80fd5b5061056e8061001d5f395ff3fe608060405234801561000f575f80fd5b5060043610610029575f3560e01c80638fdecf261461002d575b5f80fd5b6100476004803603810190610042919061035c565b61005d565b60405161005491906103f6565b60405180910390f35b5f80838360405160200161007292919061042d565b604051602081830303815290604052805190602001206040516020016100989190610474565b6040516020818303038152906040528051906020012090506100bb8587836100c6565b915050949350505050565b5f826100d285846100dc565b1490509392505050565b5f808290505f5b845181101561012557610110828683815181106101035761010261048e565b5b6020026020010151610130565b9150808061011d906104f1565b9150506100e3565b508091505092915050565b5f81831061014757610142828461015a565b610152565b610151838361015a565b5b905092915050565b5f825f528160205260405f20905092915050565b5f604051905090565b5f80fd5b5f80fd5b5f819050919050565b6101918161017f565b811461019b575f80fd5b50565b5f813590506101ac81610188565b92915050565b5f80fd5b5f601f19601f8301169050919050565b7f4e487b71000000000000000000000000000000000000000000000000000000005f52604160045260245ffd5b6101fc826101b6565b810181811067ffffffffffffffff8211171561021b5761021a6101c6565b5b80604052505050565b5f61022d61016e565b905061023982826101f3565b919050565b5f67ffffffffffffffff821115610258576102576101c6565b5b602082029050602081019050919050565b5f80fd5b5f61027f61027a8461023e565b610224565b905080838252602082019050602084028301858111156102a2576102a1610269565b5b835b818110156102cb57806102b7888261019e565b8452602084019350506020810190506102a4565b5050509392505050565b5f82601f8301126102e9576102e86101b2565b5b81356102f984826020860161026d565b91505092915050565b5f73ffffffffffffffffffffffffffffffffffffffff82169050919050565b5f61032b82610302565b9050919050565b61033b81610321565b8114610345575f80fd5b50565b5f8135905061035681610332565b92915050565b5f805f806080858703121561037457610373610177565b5b5f6103818782880161019e565b945050602085013567ffffffffffffffff8111156103a2576103a161017b565b5b6103ae878288016102d5565b93505060406103bf87828801610348565b92505060606103d08782880161019e565b91505092959194509250565b5f8115159050919050565b6103f0816103dc565b82525050565b5f6020820190506104095f8301846103e7565b92915050565b61041881610321565b82525050565b6104278161017f565b82525050565b5f6040820190506104405f83018561040f565b61044d602083018461041e565b9392505050565b5f819050919050565b61046e6104698261017f565b610454565b82525050565b5f61047f828461045d565b60208201915081905092915050565b7f4e487b71000000000000000000000000000000000000000000000000000000005f52603260045260245ffd5b7f4e487b71000000000000000000000000000000000000000000000000000000005f52601160045260245ffd5b5f819050919050565b5f6104fb826104e8565b91507fffffffffffffffffffffffffffffffffffffffffffffffffffffffffffffffff820361052d5761052c6104bb565b5b60018201905091905056fea264697066735822122073a6f492684f3f3c0a8d9ea65e50b22330edc3c9aeb8b7d8e00cc3ec40455dc564736f6c63430008140033",
  "immutableReferences": {},
  "source": "// SPDX-License-Identifier: MIT\r\npragma solidity ^0.8.13;\r\n\r\nimport \"@openzeppelin/contracts/utils/cryptography/MerkleProof.sol\";\r\n\r\ncontract ZKProof {\r\n\r\n    function verify(\r\n        bytes32 root,\r\n        bytes32[] memory proof,\r\n        address hxsh,\r\n        bytes32 message\r\n    ) public view returns (bool) {\r\n        bytes32 leaf = keccak256(bytes.concat(keccak256(abi.encode(hxsh, message))));\r\n        return MerkleProof.verify(proof, root, leaf);\r\n    }\r\n\r\n}",
  "sourcePath": "D:\\xampp\\htdocs\\metasave\\packages\\metasave-contracts\\contracts\\ZKProof.sol",
  "compiler": {
    "name": "solc",
    "version": "0.8.20+commit.a1b79de6.Emscripten.clang"
  },
  "schemaVersion": "3.4.16",
  "updatedAt": "2024-02-26T18:39:48.928Z",
  "networkType": "ethereum",
  "devdoc": {
    "kind": "dev",
    "methods": {},
    "version": 1
  },
  "userdoc": {
    "kind": "user",
    "methods": {},
    "version": 1
  }
}