{
  "contractName": "ZKProof",
  "abi": [
    {
      "inputs": [
        {
          "internalType": "bytes32",
          "name": "root",
          "type": "bytes32"
        },
        {
          "internalType": "bytes32[]",
          "name": "proof",
          "type": "bytes32[]"
        },
        {
          "internalType": "address",
          "name": "hxsh",
          "type": "address"
        },
        {
          "internalType": "uint256",
          "name": "message",
          "type": "uint256"
        }
      ],
      "name": "verify",
      "outputs": [
        {
          "internalType": "bool",
          "name": "",
          "type": "bool"
        }
      ],
      "stateMutability": "view",
      "type": "function",
      "constant": true
    }
  ],
  "bytecode": "0x608060405234801561001057600080fd5b506105c8806100206000396000f3fe608060405234801561001057600080fd5b506004361061002b5760003560e01c8063cff144f714610030575b600080fd5b61004a600480360381019061004591906103b0565b610060565b604051610057919061044e565b60405180910390f35b6000808383604051602001610076929190610487565b6040516020818303038152906040528051906020012060405160200161009c91906104d1565b6040516020818303038152906040528051906020012090506100bf8587836100ca565b915050949350505050565b6000826100d785846100e1565b1490509392505050565b60008082905060005b845181101561012c576101178286838151811061010a576101096104ec565b5b6020026020010151610137565b915080806101249061054a565b9150506100ea565b508091505092915050565b600081831061014f5761014a8284610162565b61015a565b6101598383610162565b5b905092915050565b600082600052816020526040600020905092915050565b6000604051905090565b600080fd5b600080fd5b6000819050919050565b6101a08161018d565b81146101ab57600080fd5b50565b6000813590506101bd81610197565b92915050565b600080fd5b6000601f19601f8301169050919050565b7f4e487b7100000000000000000000000000000000000000000000000000000000600052604160045260246000fd5b610211826101c8565b810181811067ffffffffffffffff821117156102305761022f6101d9565b5b80604052505050565b6000610243610179565b905061024f8282610208565b919050565b600067ffffffffffffffff82111561026f5761026e6101d9565b5b602082029050602081019050919050565b600080fd5b600061029861029384610254565b610239565b905080838252602082019050602084028301858111156102bb576102ba610280565b5b835b818110156102e457806102d088826101ae565b8452602084019350506020810190506102bd565b5050509392505050565b600082601f830112610303576103026101c3565b5b8135610313848260208601610285565b91505092915050565b600073ffffffffffffffffffffffffffffffffffffffff82169050919050565b60006103478261031c565b9050919050565b6103578161033c565b811461036257600080fd5b50565b6000813590506103748161034e565b92915050565b6000819050919050565b61038d8161037a565b811461039857600080fd5b50565b6000813590506103aa81610384565b92915050565b600080600080608085870312156103ca576103c9610183565b5b60006103d8878288016101ae565b945050602085013567ffffffffffffffff8111156103f9576103f8610188565b5b610405878288016102ee565b935050604061041687828801610365565b92505060606104278782880161039b565b91505092959194509250565b60008115159050919050565b61044881610433565b82525050565b6000602082019050610463600083018461043f565b92915050565b6104728161033c565b82525050565b6104818161037a565b82525050565b600060408201905061049c6000830185610469565b6104a96020830184610478565b9392505050565b6000819050919050565b6104cb6104c68261018d565b6104b0565b82525050565b60006104dd82846104ba565b60208201915081905092915050565b7f4e487b7100000000000000000000000000000000000000000000000000000000600052603260045260246000fd5b7f4e487b7100000000000000000000000000000000000000000000000000000000600052601160045260246000fd5b60006105558261037a565b91507fffffffffffffffffffffffffffffffffffffffffffffffffffffffffffffffff82036105875761058661051b565b5b60018201905091905056fea264697066735822122024c622c891ca6c1d853fca4316a67847954e695108547308d7478586eb9e8a9164736f6c634300080d0033",
  "immutableReferences": {},
  "source": "// SPDX-License-Identifier: MIT\r\npragma solidity ^0.8.13;\r\n\r\nimport \"@openzeppelin/contracts/utils/cryptography/MerkleProof.sol\";\r\n\r\ncontract ZKProof {\r\n\r\n    function verify(\r\n        bytes32 root,\r\n        bytes32[] memory proof,\r\n        address hxsh,\r\n        uint256 message\r\n    ) public view returns (bool) {\r\n        bytes32 leaf = keccak256(bytes.concat(keccak256(abi.encode(hxsh, message))));\r\n        return MerkleProof.verify(proof, root, leaf);\r\n    }\r\n\r\n}",
  "sourcePath": "D:\\xampp\\htdocs\\metasave\\packages\\metasave-contracts\\contracts\\ZKProof.sol",
  "compiler": {
    "name": "solc",
    "version": "0.8.13+commit.abaa5c0e.Emscripten.clang"
  },
  "schemaVersion": "3.4.16",
  "updatedAt": "2024-02-09T08:39:47.350Z",
  "networkType": "ethereum",
  "devdoc": {
    "kind": "dev",
    "methods": {},
    "version": 1
  },
  "userdoc": {
    "kind": "user",
    "methods": {},
    "version": 1
  }
}