{
  "contractName": "MetaSave",
  "abi": [
    {
      "inputs": [],
      "stateMutability": "nonpayable",
      "type": "constructor"
    },
    {
      "inputs": [],
      "name": "owner",
      "outputs": [
        {
          "internalType": "address",
          "name": "",
          "type": "address"
        }
      ],
      "stateMutability": "view",
      "type": "function",
      "constant": true
    },
    {
      "inputs": [
        {
          "internalType": "string",
          "name": "_email",
          "type": "string"
        }
      ],
      "name": "addEmail",
      "outputs": [],
      "stateMutability": "nonpayable",
      "type": "function"
    },
    {
      "inputs": [
        {
          "internalType": "string",
          "name": "_email",
          "type": "string"
        }
      ],
      "name": "isEmailPresent",
      "outputs": [
        {
          "internalType": "bool",
          "name": "",
          "type": "bool"
        }
      ],
      "stateMutability": "view",
      "type": "function",
      "constant": true
    },
    {
      "inputs": [],
      "name": "getAllEmails",
      "outputs": [
        {
          "internalType": "string[]",
          "name": "",
          "type": "string[]"
        }
      ],
      "stateMutability": "view",
      "type": "function",
      "constant": true
    }
  ],
  "bytecode": "0x608060405234801561001057600080fd5b50336000806101000a81548173ffffffffffffffffffffffffffffffffffffffff021916908373ffffffffffffffffffffffffffffffffffffffff16021790555061094a806100606000396000f3fe608060405234801561001057600080fd5b506004361061004c5760003560e01c806389aae99a146100515780638da5cb5b1461006d578063c8a4c72c1461008b578063c9ca98e0146100a9575b600080fd5b61006b600480360381019061006691906104bf565b6100d9565b005b610075610118565b6040516100829190610549565b60405180910390f35b61009361013c565b6040516100a091906106ae565b60405180910390f35b6100c360048036038101906100be91906104bf565b610215565b6040516100d091906106eb565b60405180910390f35b6001819080600181540180825580915050600190039060005260206000200160009091909190915090805190602001906101149291906102c2565b5050565b60008054906101000a900473ffffffffffffffffffffffffffffffffffffffff1681565b60606001805480602002602001604051908101604052809291908181526020016000905b8282101561020c57838290600052602060002001805461017f90610735565b80601f01602080910402602001604051908101604052809291908181526020018280546101ab90610735565b80156101f85780601f106101cd576101008083540402835291602001916101f8565b820191906000526020600020905b8154815290600101906020018083116101db57829003601f168201915b505050505081526020019060010190610160565b50505050905090565b600080600090505b6001805490508110156102b7578260405160200161023b91906107a2565b6040516020818303038152906040528051906020012060018281548110610265576102646107b9565b5b9060005260206000200160405160200161027f919061087c565b60405160208183030381529060405280519060200120036102a45760019150506102bd565b80806102af906108cc565b91505061021d565b50600090505b919050565b8280546102ce90610735565b90600052602060002090601f0160209004810192826102f05760008555610337565b82601f1061030957805160ff1916838001178555610337565b82800160010185558215610337579182015b8281111561033657825182559160200191906001019061031b565b5b5090506103449190610348565b5090565b5b80821115610361576000816000905550600101610349565b5090565b6000604051905090565b600080fd5b600080fd5b600080fd5b600080fd5b6000601f19601f8301169050919050565b7f4e487b7100000000000000000000000000000000000000000000000000000000600052604160045260246000fd5b6103cc82610383565b810181811067ffffffffffffffff821117156103eb576103ea610394565b5b80604052505050565b60006103fe610365565b905061040a82826103c3565b919050565b600067ffffffffffffffff82111561042a57610429610394565b5b61043382610383565b9050602081019050919050565b82818337600083830152505050565b600061046261045d8461040f565b6103f4565b90508281526020810184848401111561047e5761047d61037e565b5b610489848285610440565b509392505050565b600082601f8301126104a6576104a5610379565b5b81356104b684826020860161044f565b91505092915050565b6000602082840312156104d5576104d461036f565b5b600082013567ffffffffffffffff8111156104f3576104f2610374565b5b6104ff84828501610491565b91505092915050565b600073ffffffffffffffffffffffffffffffffffffffff82169050919050565b600061053382610508565b9050919050565b61054381610528565b82525050565b600060208201905061055e600083018461053a565b92915050565b600081519050919050565b600082825260208201905092915050565b6000819050602082019050919050565b600081519050919050565b600082825260208201905092915050565b60005b838110156105ca5780820151818401526020810190506105af565b838111156105d9576000848401525b50505050565b60006105ea82610590565b6105f4818561059b565b93506106048185602086016105ac565b61060d81610383565b840191505092915050565b600061062483836105df565b905092915050565b6000602082019050919050565b600061064482610564565b61064e818561056f565b93508360208202850161066085610580565b8060005b8581101561069c578484038952815161067d8582610618565b94506106888361062c565b925060208a01995050600181019050610664565b50829750879550505050505092915050565b600060208201905081810360008301526106c88184610639565b905092915050565b60008115159050919050565b6106e5816106d0565b82525050565b600060208201905061070060008301846106dc565b92915050565b7f4e487b7100000000000000000000000000000000000000000000000000000000600052602260045260246000fd5b6000600282049050600182168061074d57607f821691505b6020821081036107605761075f610706565b5b50919050565b600081905092915050565b600061077c82610590565b6107868185610766565b93506107968185602086016105ac565b80840191505092915050565b60006107ae8284610771565b915081905092915050565b7f4e487b7100000000000000000000000000000000000000000000000000000000600052603260045260246000fd5b60008190508160005260206000209050919050565b6000815461080a81610735565b6108148186610766565b9450600182166000811461082f576001811461084057610873565b60ff19831686528186019350610873565b610849856107e8565b60005b8381101561086b5781548189015260018201915060208101905061084c565b838801955050505b50505092915050565b600061088882846107fd565b915081905092915050565b7f4e487b7100000000000000000000000000000000000000000000000000000000600052601160045260246000fd5b6000819050919050565b60006108d7826108c2565b91507fffffffffffffffffffffffffffffffffffffffffffffffffffffffffffffffff820361090957610908610893565b5b60018201905091905056fea2646970667358221220487def8a38b3499b0f121a8703e6c0b4f1f33e264bccec275c77671755e75c7a64736f6c634300080d0033",
  "immutableReferences": {},
  "source": "// SPDX-License-Identifier: MIT\n// Tells the Solidity compiler to compile only from v0.8.13 to v0.9.0\npragma solidity ^0.8.13;\n\ncontract MetaSave {\n\t\n\taddress public owner;\n    string[] private emails;\n\n    constructor() {\n        owner = msg.sender;\n    }\n\n    function addEmail(string memory _email) public {\n        emails.push(_email);\n    }\n\n    function isEmailPresent(string memory _email) external view returns (bool) {\n        for (uint256 i = 0; i < emails.length; i++) {\n            if (keccak256(abi.encodePacked(emails[i])) == keccak256(abi.encodePacked(_email))) {\n                return true;\n            }\n        }\n        return false;\n    }\n\n    function getAllEmails() external view returns (string[] memory) {\n        return emails;\n    }\n\n}\n",
  "sourcePath": "D:\\xampp\\htdocs\\metasave\\metasave-contracts\\contracts\\MetaSave.sol",
  "compiler": {
    "name": "solc",
    "version": "0.8.13+commit.abaa5c0e.Emscripten.clang"
  },
  "schemaVersion": "3.4.9",
  "updatedAt": "2024-01-07T19:42:21.060Z",
  "networkType": "ethereum",
  "devdoc": {
    "kind": "dev",
    "methods": {},
    "version": 1
  },
  "userdoc": {
    "kind": "user",
    "methods": {},
    "version": 1
  }
}