{
  "contractName": "MetaSave",
  "abi": [
    {
      "inputs": [
        {
          "internalType": "uint256",
          "name": "",
          "type": "uint256"
        }
      ],
      "name": "userIPFSMapping",
      "outputs": [
        {
          "internalType": "string",
          "name": "",
          "type": "string"
        }
      ],
      "stateMutability": "view",
      "type": "function",
      "constant": true
    },
    {
      "inputs": [
        {
          "internalType": "uint256",
          "name": "user_id",
          "type": "uint256"
        },
        {
          "internalType": "string",
          "name": "ipfsFileName",
          "type": "string"
        }
      ],
      "name": "setIPFSFileName",
      "outputs": [],
      "stateMutability": "nonpayable",
      "type": "function"
    },
    {
      "inputs": [
        {
          "internalType": "uint256",
          "name": "user_id",
          "type": "uint256"
        }
      ],
      "name": "getIPFSFileName",
      "outputs": [
        {
          "internalType": "string",
          "name": "",
          "type": "string"
        }
      ],
      "stateMutability": "view",
      "type": "function",
      "constant": true
    }
  ],
  "bytecode": "0x608060405234801561001057600080fd5b5061070b806100206000396000f3fe608060405234801561001057600080fd5b50600436106100415760003560e01c806329e39cdb14610046578063a96b341b14610076578063f55ec80e14610092575b600080fd5b610060600480360381019061005b9190610390565b6100c2565b60405161006d9190610456565b60405180910390f35b610090600480360381019061008b91906105ad565b6101ae565b005b6100ac60048036038101906100a79190610390565b6101d9565b6040516100b99190610456565b60405180910390f35b60606100cd82610279565b61010c576040517f08c379a000000000000000000000000000000000000000000000000000000000815260040161010390610655565b60405180910390fd5b6000808381526020019081526020016000208054610129906106a4565b80601f0160208091040260200160405190810160405280929190818152602001828054610155906106a4565b80156101a25780601f10610177576101008083540402835291602001916101a2565b820191906000526020600020905b81548152906001019060200180831161018557829003601f168201915b50505050509050919050565b8060008084815260200190815260200160002090805190602001906101d49291906102a3565b505050565b600060205280600052604060002060009150905080546101f8906106a4565b80601f0160208091040260200160405190810160405280929190818152602001828054610224906106a4565b80156102715780601f1061024657610100808354040283529160200191610271565b820191906000526020600020905b81548152906001019060200180831161025457829003601f168201915b505050505081565b6000806000808481526020019081526020016000208054610299906106a4565b9050119050919050565b8280546102af906106a4565b90600052602060002090601f0160209004810192826102d15760008555610318565b82601f106102ea57805160ff1916838001178555610318565b82800160010185558215610318579182015b828111156103175782518255916020019190600101906102fc565b5b5090506103259190610329565b5090565b5b8082111561034257600081600090555060010161032a565b5090565b6000604051905090565b600080fd5b600080fd5b6000819050919050565b61036d8161035a565b811461037857600080fd5b50565b60008135905061038a81610364565b92915050565b6000602082840312156103a6576103a5610350565b5b60006103b48482850161037b565b91505092915050565b600081519050919050565b600082825260208201905092915050565b60005b838110156103f75780820151818401526020810190506103dc565b83811115610406576000848401525b50505050565b6000601f19601f8301169050919050565b6000610428826103bd565b61043281856103c8565b93506104428185602086016103d9565b61044b8161040c565b840191505092915050565b60006020820190508181036000830152610470818461041d565b905092915050565b600080fd5b600080fd5b7f4e487b7100000000000000000000000000000000000000000000000000000000600052604160045260246000fd5b6104ba8261040c565b810181811067ffffffffffffffff821117156104d9576104d8610482565b5b80604052505050565b60006104ec610346565b90506104f882826104b1565b919050565b600067ffffffffffffffff82111561051857610517610482565b5b6105218261040c565b9050602081019050919050565b82818337600083830152505050565b600061055061054b846104fd565b6104e2565b90508281526020810184848401111561056c5761056b61047d565b5b61057784828561052e565b509392505050565b600082601f83011261059457610593610478565b5b81356105a484826020860161053d565b91505092915050565b600080604083850312156105c4576105c3610350565b5b60006105d28582860161037b565b925050602083013567ffffffffffffffff8111156105f3576105f2610355565b5b6105ff8582860161057f565b9150509250929050565b7f55736572206e6f7420666f756e64000000000000000000000000000000000000600082015250565b600061063f600e836103c8565b915061064a82610609565b602082019050919050565b6000602082019050818103600083015261066e81610632565b9050919050565b7f4e487b7100000000000000000000000000000000000000000000000000000000600052602260045260246000fd5b600060028204905060018216806106bc57607f821691505b6020821081036106cf576106ce610675565b5b5091905056fea2646970667358221220deda1f337c37b896daa14f4312a692e06fb0bcf9e3dfc19cde11f6714cf6743e64736f6c634300080d0033",
  "immutableReferences": {},
  "source": "// SPDX-License-Identifier: MIT\npragma solidity ^0.8.13;\n\ncontract MetaSave {\n\tmapping(uint256 => string) public userIPFSMapping;\n\n    function setIPFSFileName(uint256 user_id, string memory ipfsFileName) public {\n        userIPFSMapping[user_id] = ipfsFileName;\n    }\n\n    function getIPFSFileName(uint256 user_id) public view returns (string memory) {\n        require(userExists(user_id), \"User not found\");\n        return userIPFSMapping[user_id];\n    }\n\n    function userExists(uint256 user_id) internal view returns (bool) {\n        return bytes(userIPFSMapping[user_id]).length > 0;\n    }\n}\n",
  "sourcePath": "D:\\xampp\\htdocs\\metasave\\metasave-contracts\\contracts\\MetaSave.sol",
  "compiler": {
    "name": "solc",
    "version": "0.8.13+commit.abaa5c0e.Emscripten.clang"
  },
  "schemaVersion": "3.4.16",
  "updatedAt": "2024-02-02T12:47:56.744Z",
  "networkType": "ethereum",
  "devdoc": {
    "kind": "dev",
    "methods": {},
    "version": 1
  },
  "userdoc": {
    "kind": "user",
    "methods": {},
    "version": 1
  }
}